:020000040800F2
:10000000D0060020810200084F1D00086518000876
:100010004D1D000873060008B12100080000000013
:100020000000000000000000000000002B2100087C
:100030007506000800000000511D00082D21000871
:100040009B0200089B0200089B0200089B0200081C
:100050009B0200089B0200089B0200089B0200080C
:100060009B0200089B0200089B0200089B020008FC
:100070009B0200089B0200089B0200089B020008EC
:100080009B020008000000009B0200089B02000881
:100090009B0200089B0200089B0200089B020008CC
:1000A0009B0200089B0200089B0200089B020008BC
:1000B0009B0200089B0200089B0200089B020008AC
:1000C0009B0200089B0200089B0200089B0200089C
:1000D0009B0200089B0200089B0200089B0200088C
:1000E0009B0200089B0200089B0200089B0200087C
:1000F0009B0200089B0200089B0200080000000011
:10010000000000009B020008000000009B020008A5
:100110009B020008000000009B0200089B020008F0
:100120009B0200089B0200089B0200089B0200083B
:100130009B02000800000000000000009B02000875
:100140009B0200089B020008000000000000000065
:10015000000000000000000000000000000000009F
:100160000000000000000000000000009B020008EA
:100170009B020008000000000000000000000000DA
:10018000000000009B0200080000000000000000CA
:10019000000000000000000000000000000000005F
:1001A00000000000000000009B0200089B02000805
:1001B0009B0200089B0200089B0200080000000050
:1001C000000000009B02000800000000000000008A
:1001D0009B0200089B02000800F002F800F041F8C2
:1001E0000AA090E8000C82448344AAF10107DA4592
:1001F00001D100F036F8AFF2090EBAE80F0013F0A3
:10020000010F18BFFB1A43F001031847A03200008A
:10021000C0320000103A24BF78C878C1FAD852071B
:1002200024BF30C830C144BF04680C607047000070
:100230000023002400250026103A28BF78C1FBD8EF
:10024000520728BF30C148BF0B607047642900F0D7
:100250007380002070471FB502F033F81FBD10B542
:1002600010BD00F0CCF91146FFF7F5FF02F012F8CF
:1002700000F0EAF903B4FFF7F2FF03BC00F0F2F973
:100280000948804709480047FEE7FEE7FEE7FEE72A
:10029000FEE7FEE7FEE7FEE7FEE7FEE70448054966
:1002A000054A064B70470000A1210008D90100084B
:1002B000D0000020D0060020D0020020D002002074
:1002C0000FB41CB5074B06AA7B44694600900598FD
:1002D00000F07DF90020694600F08CF91CBC5DF847
:1002E00014FB00002903000070B50446856900680E
:1002F000C10601D5302600E02026C00707D070BD1A
:10030000D4E9012130469047206A401C20626D1ECE
:10031000F6D570BD70B5044685690078C00707D171
:1003200070BDD4E9012120209047206A401C206242
:100330006D1EF6D570BD00002DE9F0410646002483
:1003400010687529314616A510D0AFF3008000283B
:1003500002DA404213A507E031688A0701D512A5E9
:1003600002E0490704D511A5012401E0AFF30080A4
:1003700000210A2206F1240709E0B0FBF2FCB0FBE1
:10038000F2F302FB1C00303078541846491C002858
:10039000F3D123462A463046BDE8F04100F0B9B813
:1003A000000000002D0000002B00000020000000D5
:1003B0002DE9F0474FF0000A89460446C0F820A016
:1003C0002046E1688847002876D0252806D0D4E961
:1003D00001219047206A401C2062F1E7E168204635
:1003E00000258847C4F81CA006460027C4F818A0BA
:1003F0002A2E09D0304601F0ECFE38B304EB870812
:10040000303EC8F8186019E059F8041B204604EB88
:1004100087029161E1688847012F064618D1E0699B
:10042000002820DA25F020051DE0D8F8180000EBA0
:10043000800006EB40003038C8F818002046E1681C
:100440008847064601F0C5FE0028EED1012F0AD0EC
:100450002E2E08D12046E16888477F1C0646022FD1
:1004600045F02005C4DBA069002803DA404245F0CE
:100470000105A061E80701D025F01005B6B1A6F18D
:100480004100192802D8203645F400654A46314615
:10049000204625604D46FFF7D9FE58B1012806D009
:1004A000ED1D25F0070000F1080989E704E005F1DA
:1004B000040985E730468AE7206ABDE8F0874FF0F7
:1004C000000200B5134694469646203922BFA0E8A4
:1004D0000C50A0E80C50B1F12001BFF4F7AF0907B0
:1004E00028BFA0E80C5048BF0CC05DF804EB8900A1
:1004F00028BF40F8042B08BF704748BF20F8022BE4
:1005000011F0804F18BF00F8012B704770477047FB
:1005100070472DE9F0470D4699469246044600F192
:1005200024080168880604D5E06921F010012160E3
:1005300000E00120A84201DD471B00E00027A1697F
:100540007A1902EB0900081AA0612078C00602D4CB
:100550002046FFF7C9FE002608E0D4E901211AF879
:1005600006009047206A401C761C20624E45F4DB52
:100570002078C0060AD52046FFF7B6FE06E0D4E98B
:10058000012130209047206A401C2062381EA7F1CC
:100590000107F4DC07E0D4E9012118F805009047D1
:1005A000206A401C2062281EA5F10105F3DC2046CC
:1005B000FFF7B0FE2078000602D50220BDE8F087E4
:1005C0000120FBE701694A1C02610878704700B509
:1005D0008FB0CDE901310021059105497944CDE97C
:1005E000031011466846FFF7E3FE0FB000BD0000A0
:1005F000E5FFFFFF0A6802F8010B0A6070477546C5
:1006000000F02CF8AE4605006946534620F007007E
:10061000854618B020B5FFF741FEBDE820404FF0F9
:1006200000064FF000074FF000084FF0000B21F0DC
:100630000701AC46ACE8C009ACE8C009ACE8C009A9
:10064000ACE8C0098D46704710B50446AFF3008092
:100650002046BDE81040FFF70DBE0000004870477F
:100660006C00002001491820ABBEFEE72600020006
:100670007047FEE77047002240F6B83306E00021DD
:10068000491C89B29942FBD3521C92B28242F6D3E2
:10069000704772B6FEE7000070B5044600F032F90C
:1006A0000546601C02D004484068044400F02AF962
:1006B000401BA042FAD370BD000000202DE9F04F8E
:1006C000DFF82092002301260324A9F1040B85B052
:1006D0000F2709F1040AABF1040EFAE006FA03F55C
:1006E0002A407CD091F804C00CF0030CBCF1010F3F
:1006F00002D0BCF1020F26D1D0F808C0CDF800C05E
:100700004FEA430C04FA0CF8CDF810C0DDF800C035
:100710002CEA080CCDF800C0D1F80C80DDF810C030
:1007200008FA0CF8DDF800C048EA0C08C0F80880A8
:10073000D0F804C02CEA050C0D79C5F300159D40D6
:1007400045EA0C0545600D79ED43AD070ED0C5684F
:100750004FEA430804FA08FC25EA0C05D1F808C062
:100760000CFA08FC4CEA050CC0F80CC00D7905F039
:100770000305022D16D1DD0800EB850CCDF808C06D
:10078000DCF820805D074FEAD56C07FA0CF528EA03
:1007900005080D6905FA0CF5DDF808C045EA0805FD
:1007A000CCF8205005684FEA430CCDF808C004FA95
:1007B0000CFC25EA0C0591F804C00CF00308DDF8E8
:1007C00008C008FA0CF848EA0508C0F800804D682F
:1007D00015F4403F7CD0444DD5F860C000E077E090
:1007E0004CF0010CC5F860C02D6E23F0030C05F031
:1007F000010500953D4D65440295AD684FEA837C47
:100800004FEA1C7807FA08FC25EA0C05B0F1904F76
:1008100006D0DFF8DCC0604505D14FF0010C20E0C8
:100820004FF0000C1DE0DFF8CCC0604502D14FF066
:10083000020C16E0DFF8C0C0604502D14FF0030C97
:100840000FE0DFF8B8C0604502D14FF0040C08E0BB
:10085000DFF8ACC0604502D14FF0050C01E04FF06D
:10086000060C0CFA08FC4CEA050C029DC5F808C001
:10087000D9F80050CC46D1F8048095435FEAC828E7
:1008800000D51543CCF80050DAF80050D446D1F822
:10089000048095435FEA882800D51543CCF80050C2
:1008A000DBF80050DC46D1F8048095435FEA8838D5
:1008B00000D51543CCF80050DEF80050F446D1F8CE
:1008C000048095435FEAC83800D51543CCF8005042
:1008D0005B1C0A6832FA03F57FF400AF05B0BDE88F
:1008E000F08F0000080401400010024000000140A9
:1008F0000004004800080048000C004800100048B0
:100900000014004801488068704700000000002083
:1009100002488168426811448160704700000020ED
:1009200010B50024032000F065F80F2000F008F84F
:1009300008B1012401E000F025F8204610BD0000B8
:1009400070B50E4E05460024706898B14FF47A7168
:10095000B1FBF0F00A490968B1FBF0F000F06EFF5E
:1009600040B9102D06D200222946501E00F022F870
:10097000356000E00124204670BD0000000000202A
:100980000C0000200A4882B0016E41F001010166AE
:10099000016E01F001010091816D41F0805181658E
:1009A000806D00F08050009002B000F093B800001D
:1009B00000100240F0B40E4B1B680C46C3F3022338
:1009C000C3F10705042D00D90425191D072901D2FB
:1009D000002300E0DB1E012606FA05F1491E214036
:1009E00099409E40761E16403143F0BC01F0E1BBB9
:1009F0000CED00E0064900F0070208684FF6FF031F
:100A0000184040EA0220034A104308607047000083
:100A10000CED00E00000FA052B492C4B0A6832214E
:100A20004A432B4940B1B0F5007F086829D020F433
:100A3000C06040F480602CE00868C0F341200228C8
:100A400004D051F8800F20F4807022E0D1F88000AB
:100A500020F48070C1F88000086820F4C06040F481
:100A600000700860B2FBF3F0401C00E0401E4A69D1
:100A7000520501D50028F9D1486940050AD503205F
:100A80007047C0F34120022806D051F8800F40F48F
:100A90008070086000207047D1F8800040F48070BA
:100AA000C1F88000086820F4C06040F4007008605D
:100AB000B2FBF3F0401C00E0401E4A695205DBD552
:100AC0000028F9D1D8E700000C00002040420F00B8
:100AD000007000400248816841F4804181607047A5
:100AE000007000402DE9F8430446006800269D4D43
:100AF00000035ED5A86D0027C00008D4A86D40F0A3
:100B00008050A865A86D012700F080500090DFF8A4
:100B10005892D9F8001041F48071C9F80010FFF71D
:100B2000F1FE804606E000BFFFF7ECFEA0EB0800F8
:100B300002282BD8D9F80000C005F5D5D5F89000CB
:100B400010F4407014D0216C814211D0D5F890007F
:100B5000D5F8901020F4407041F48031C5F8901021
:100B6000D5F8901021F48031C5F89010C5F89000A8
:100B7000C00711D0FFF7C6FE804641F2883907E072
:100B8000FFF7C0FEA0EB0801494501D903260BE0A1
:100B9000D5F890008007F3D5D5F89000216C20F4AB
:100BA00040700843C5F890001FB1A86D20F0805038
:100BB000A8652078C00707D0D5F88800616820F0C4
:100BC00003000843C5F888002078800707D5D5F8CA
:100BD0008800A16820F00C000843C5F88800207840
:100BE000400707D5D5F88800E16820F030000843B9
:100BF000C5F888002078000707D5D5F88800216956
:100C000020F0C0000843C5F888002078800607D58A
:100C1000D5F88800616920F440600843C5F8880071
:100C20002078400607D5D5F88800A16920F4405007
:100C30000843C5F888002078000607D5D5F8880055
:100C4000E16920F440400843C5F888002088C005C9
:100C500007D5D5F88800216A20F440300843C5F84C
:100C600088002088800507D5D5F88800616A20F4BF
:100C700040200843C5F88800208840050FD5D5F8E6
:100C80008800A16A20F440100843C5F88800A06AD3
:100C9000B0F5801F03D1E86840F48010E860208838
:100CA00000050FD5D5F88800E16A20F4400008431C
:100CB000C5F88800E06AB0F5800F03D1E86840F419
:100CC0008010E8602088C0040FD5D5F88800216B1B
:100CD00020F040700843C5F88800206BB0F1807F99
:100CE00003D1E86840F48010E86020884FF000618C
:100CF00080040ED5D5F88800626B20F04060104368
:100D0000C5F88800606B884203D1E86840F4801021
:100D1000E860208840040ED5D5F88800A26B20F04A
:100D200040601043C5F88800A06B884203D1E86892
:100D300040F48010E860208800040FD5D5F88800C2
:100D4000E16B20F040500843C5F88800E06BB0F13B
:100D5000805F03D1E86840F48030E8603046BDE849
:100D6000F883000000100240007000402DE9F047B9
:100D70000E4605004FF0000725D0DFF8AC81D8F80B
:100D8000000000F00F00B0420CD2D8F8001021F0A3
:100D90000F013143C8F80010D8F8000000F00F0030
:100DA000B04210D12968614CC80741F2883A5AD044
:100DB0006868DFF87C91032808D0022820682DD0CD
:100DC000400500282CDB0120BDE8F0872068800169
:100DD000F9D5E06800F00302E068C0F30310401C9E
:100DE000032A19D0534A00BFB2FBF0F0E268C2F305
:100DF00006225043E268C2F34162521C5200B0FB2B
:100E0000F2F0484517D9A06810F0F00F0CD0880711
:100E100011D5A86840B10EE0474AE5E78003D0E766
:100E200000F092F8484506D9A06820F0F00040F0A4
:100E30008000A0608027A068696820F00300084354
:100E4000A060FFF75FFD814606E000BFFFF75AFD97
:100E5000A0EB090151453AD8A068696800F00C0080
:100E6000B0EB810FF2D12868810714D5400703D574
:100E7000A06840F4E060A0602878000705D5A0686D
:100E800020F4605040F4E060A060A068A96820F001
:100E9000F000084304E0802F03D1A06820F0F000A8
:100EA000A060D8F80010404601F00F01B14216D9F9
:100EB000016821F00F0131430160FFF723FD074670
:100EC00007E000BFFFF71EFDC11B514501D90320FC
:100ED0007AE7D8F8000000F00F00B042F2D128788D
:100EE000400705D5A068E96820F4E0600843A060E9
:100EF0002878000706D5A068296920F4605040EAE8
:100F0000C100A06000F020F8A1680C4AC1F30311F1
:100F1000515C01F01F01C840094908600948006898
:100F2000BDE8F047FFF70CBD002002400010024072
:100F300000B4C4040024F40000127A00CC2200089B
:100F40000C00002000000020184910B58868C0F38C
:100F500081021748012A0BD08A684310C2F381022C
:100F6000022A06D08A68C2F38102032A03D0002035
:100F700010BD184610BDCA6802F00304CA68C2F367
:100F80000312521C032C02D0B0FBF2F001E0B3FBC1
:100F9000F2F0CA68C968C2F306225043C1F3416146
:100FA000491C4900B0FBF1F010BD000000100240E8
:100FB0000024F4002DE9F84304007AD02078F84D9D
:100FC000C00747D0A868E96800F00C0001F00301F1
:100FD0000C2802D0082817D001E0032914D060683B
:100FE000B0F5803F17D0B0F5A02F286817D020F4B7
:100FF00080302860286820F4802028606068E0B194
:10100000FFF780FC064614E02868800322D560685C
:101010000028D2D01EE0286840F48030EDE740F48C
:1010200080202860F7E700BFFFF76CFC801B642876
:1010300070D828688003F7D50CE0FFF763FC0646FC
:1010400005E000BFFFF75EFC801B6428F0D828682D
:101050008003F7D4207880074CD5A868E96800F0B1
:101060000C0001F003010C2802D004280DD001E08F
:1010700002290AD0E068002828682BD040F480704C
:101080002860FFF73FFC064619E02868400502D5B6
:10109000E068002891D06868217C20F0FE4040EA9A
:1010A00001606860BF480068FFF74AFC002800D173
:1010B00020E072E1FFF726FC801B0228B8D82868E0
:1010C0004005F7D56868217C20F0FE4040EA0160C9
:1010D00068600FE020F480702860FFF713FC06467C
:1010E00005E000BFFFF70EFC801B0228A0D828688F
:1010F0004005F7D42078000729D560690028D5F885
:10110000940013D040F00100C5F89400FFF7FAFBFB
:10111000064606E090E000BFFFF7F4FB801B0228C4
:1011200086D8D5F894008007F6D510E020F00100AD
:10113000C5F89400FFF7E6FB064604E0FFF7E2FB84
:10114000801B022878D8D5F894008007F6D4207840
:10115000400761D5A86D0026C00008D4A86D40F0F6
:101160008050A865A86D012600F0805000908E4840
:101170000168C90511D40168804641F4807101609D
:10118000FFF7C0FB074604E0FFF7BCFBC01B0228CB
:1011900052D8D8F80000C005F6D5A068012815D0AF
:1011A0000528D5F8900016D020F00100C5F8900071
:1011B000D5F8900020F00400C5F89000A06841F236
:1011C0008838B8B1FFF79EFB07460EE0D5F89000CF
:1011D00040F00100F0E740F00400C5F89000F5E7AA
:1011E000FFF790FBC11B414526D8D5F8900080073A
:1011F000F6D50CE0FFF786FB074604E0FFF782FB1D
:10120000C11B414518D8D5F890008007F6D41EB10F
:10121000A86D20F08050A8652078800629D5A069A7
:101220000028D5F8980013D040F00100C5F89800C8
:10123000FFF768FB064606E075E000BFFFF762FBBC
:10124000801B02286FD8D5F898008007F6D510E0EB
:1012500020F00100C5F89800FFF754FB064604E0B3
:10126000FFF750FB801B02285DD8D5F89800800757
:10127000F6D4E069F0B3A968C1F3810103295DD018
:101280000228286820F08070286003D0FFF73AFB1E
:1012900004464BE0FFF736FB064604E0FFF732FB5F
:1012A000801B02283FD828688001F7D4F4E90801A0
:1012B0006FF00F0202EB01110843218A5204490822
:1012C00002EB4151A26841EA02210843217D4FF01F
:1012D0007E42490802EB41610843217B40EAC1603C
:1012E000E968324A11400843E860286840F080709D
:1012F000286000E05EE0E86840F08070E860FFF79A
:1013000001FB044605E000BFFFF7FCFA001B0228C2
:1013100009D828688001F7D54CE000BFFFF7F2FA42
:10132000001B022802D90320BDE8F8832868800149
:10133000F4D4E8681E490840E8603BE00128F3D097
:10134000E868226A00F00301914226D1616A00F048
:10135000F0020901103991421FD1A26A00F4FE4146
:10136000B1EB022F19D194F82C2000F07841B1EBA9
:10137000C26F12D1218E00F4C00249084905A1F5BF
:101380000011914209D194F8341000F0C06049086E
:101390004906A1F1007181420CD00120C4E7000090
:1013A0000010024000000020007000400C809F01EF
:1013B000FCFFEEFE0020B7E710B500680B46416861
:1013C0000D480140080CD870C1F304245C7001F092
:1013D0003F049C70C1F34231197052B900F043FED2
:1013E000D870587800F03FFE5870987800F03BFEB7
:1013F0009870002010BD00003FFFFF0010B50B46A5
:1014000001688968596001680969C1F30E01996032
:10141000006801680D480140C1F305401870C1F330
:1014200006245C7001F07F049C70890DD97052B95C
:1014300000F019FE1870587800F015FE5870987872
:1014400000F011FE9870002010BD00007F7F7F002B
:1014500070B504004FF0010040D094F8250028B981
:10146000002084F82400204600F040F8022084F890
:1014700025002068C168C943C90630D5CA21416228
:10148000216853204862204600F002FE10BB20680D
:101490008169154A11408161216888696268A36980
:1014A000104322691A43104388612189E06840EAA9
:1014B000014021680861204600F00FFE50B9D4E9D0
:1014C0000721114322686369956925F060452B4324
:1014D000194391612268FF21516208B170BD00205B
:1014E000012184F8251070BDBFFF8FFB10B592B0AD
:1014F000044644216846FEF7E2FF1049206888420E
:1015000019D14FF400200090801210906846FFF728
:10151000E9FA08B1FFF7BDF8094850F8901F41F407
:10152000004140F83819016841F4806101600068A9
:1015300000F48060119012B010BD0000002800403F
:10154000001002402DE9F05F044690F824000B469D
:10155000012840D04FF0010984F824904FF0020A8E
:1015600084F825A02068002680694FEA40608AB38D
:10157000002800DBDE7098781978DA7840EA0140BC
:101580005978090241EA8251084393F8201040EA51
:101590000165D8695F680543586921680543986902
:1015A0000743CA204862216853204862586A4FF0B6
:1015B000FF08B0F5807F20684FF47A7B816927D0DF
:1015C00021F4085181612168C1F85CA0FFF79AF904
:1015D00082464AE002E00220BDE8F09F002800DBDE
:1015E000DE70187800F048FD0504587800F044FDDE
:1015F00045EA0025987800F03FFD0543D87845EA94
:10160000805593F8200000F037FD45EA0065C0E7FB
:1016100021F4885181612168C1F85C90FFF772F96B
:10162000824605E0FFF76EF9A0EB0A00584513D893
:101630002068C068C007F5D020680564206847644A
:101640002068816941F480711BE000BFFFF75AF9FF
:10165000A0EB0A00584508D92168C1F8248003206E
:1016600084F8250084F82460B6E72068C068800705
:10167000ECD5206885642068C7642068816941F4DE
:10168000007181612168C1F8248084F8259084F874
:1016900024600020A0E7000070B5044690F8240004
:1016A0000B4601281BD0012684F82460022084F810
:1016B0002500B2B19878D97840EA01455878197870
:1016C000000240EA413005432168CA20486221688F
:1016D00053204862204600F0DBFCD0B120E002201D
:1016E00070BD5878C10603D500F0EF000A3058707D
:1016F000D87800F0C1FC0504587800F0BDFC45EA3C
:101700000025987800F0B8FC0543187845EA403584
:10171000DAE70848054020684560204600F0DDFC17
:101720002268FF21516208B984F82560002184F8FD
:10173000241070BD3FFFFF002DE9F041044690F8F2
:10174000240090460D46012811D0012784F824700A
:10175000022084F825002168CA20486221685320AD
:101760004862204600F094FC002618B129E00220CF
:10177000BDE8F0812068B8F1000F80694FEA406051
:1017800024D0002800DBEE70A8782978EA7840EAB7
:1017900001406978090241EA82510843184908402A
:1017A000216808602068816921F480218161D5E980
:1017B0000301084321688A6910438861204600F0CC
:1017C0008CFC2268FF215162A0B115E0002800DBEB
:1017D000EE70287800F050FC0304687800F04CFCB0
:1017E00043EA0023A87800F047FC0343E87843EA83
:1017F0008050D3E784F8257084F82460B8E70000AF
:101800007F7F7F0070B504460B482168C860FFF7F2
:1018100079F805464FF47A7607E000BFFFF772F8D3
:10182000401BB04201D9032070BD2068C06880060B
:10183000F4D5002070BD00005F00010010B5401E0F
:10184000B0F1807F01D3012010BD4FF0E024606132
:101850000F21601700F0ADFC0020A061072020617F
:10186000002010BDFEE7000000B585B014216846D9
:10187000FEF725FE4FF6FF70009000200321CDE912
:101880000201019069460248FEF718FF05B000BD4D
:101890000008004800B585B014216846FEF70FFE29
:1018A0004FF6FF700090012001900320039000206C
:1018B000029069460248FEF701FF05B000BD000036
:1018C000000800482DE9F0410A4E804630680024A7
:1018D00085B22146204600F01DF900F053F94FF47F
:1018E0009637404600F022F9641CBC42F9D33560BB
:1018F000BDE8F0811408004830B587B0142168466F
:10190000FEF7DDFD1E48C16C41F00401C164C16CED
:1019100001F004010591C16C41F00101C164C16C89
:1019200001F001010591C16C41F00201C164C06C7C
:10193000012500F0020005904FF44870CDE9000544
:1019400000240394694602940E48FEF7B7FE28026D
:1019500003940090CDE901544FF09044694620462D
:10196000FEF7ACFEFFF796FFA06940F48070A0611F
:1019700004481830016841F40871016007B030BDB7
:101980000010024000040048203AD2B2034B02EBA0
:10199000420203EB021200F023B80000DC22000830
:1019A0002DE9F043DFF8348081460E46D8F8000078
:1019B000002587B240F23F1407E021464846FFF772
:1019C000E3FF103C6D1CA4B2761C32780AB1142DD2
:1019D000F3D3C8F80070BDE8F08300001408004895
:1019E0002DE9F04791468A460026044600F092F819
:1019F000DFF84080012700BF00F0C4F85FF0000569
:101A000039F8160007FA05F10842404601D140882E
:101A100000E0008800F08AF86D1C102DF0D3641CE3
:101A2000E4B25146204600F075F8761C182EE3D338
:101A3000BDE8F0871400002070B50D4E306885B207
:101A4000FFF75AFF002000F017F80A4CA080A0888A
:101A5000A0F50241303907D000F004FA002000F070
:101A60000BF8A080356070BD00F073F9F6E7000058
:101A7000140800481400002070B51D490A6842F49B
:101A800000720A600A6842F480720A60184C103CC6
:101A9000226842F020022260164A1060086840F076
:101AA0002000086000BF00BF00BF206840F0200099
:101AB0002060206840F480702060FFF7D5FE4FF072
:101AC0009041886A40F48070886200BF00BF00BF08
:101AD0000848001F006885B2886940F480708861FA
:101AE000FFF7D8FE206840F400702060284670BDE3
:101AF000280400481408004801B504480168BDF8EE
:101B0000002089B2024B5A80016008BD14080048C9
:101B10001400002010B50C460146202000F060F8AB
:101B20002146BDE81040212000F05AB8134A116840
:101B300041F400711160114910390B6843F480734E
:101B40000B600B6843F020030B600D4B18601068AE
:101B500040F02000106000BF00BF00BF086840F0E8
:101B600020000860086840F48070086000BF00BF73
:101B700000BF086840F400700860704728040048FF
:101B8000140800481449086840F4007008600868A8
:101B900040F48070086010481038026842F020025B
:101BA00002600E4B22221A600A6842F020020A608C
:101BB00000BF00BF00BF016841F020010160016863
:101BC00041F48071016000BF00BF00BF016841F4B3
:101BD00000710160704700002804004814080048A4
:101BE000184B10B51A6842F400721A601A6842F471
:101BF00080721A60134A103A146844F0200414608A
:101C0000114C2060186840F02000186000BF00BF31
:101C100000BF106840F020001060106840F4807031
:101C200010602160186840F02000186000BF00BFFD
:101C300000BF106840F020001060106840F4807011
:101C4000106010BD2804004814080048094808B571
:101C5000C16C41F02001C164C16C01F02001009110
:101C6000C16C41F00101C164C06C00F00100009042
:101C700008BD00000010024010B590B014210AA861
:101C8000FEF71DFC0024282168460F94FEF717FC80
:101C90002D482C49C0E900147F218160FF21C0E953
:101CA00003144FF080414461C0E906410462FFF72C
:101CB000CFFB08B1FEF7EDFC08208DF82800352099
:101CC0008DF829008DF82A400B940D9400220AA962
:101CD0001D480E94FFF730FD08B1FEF7DAFC042032
:101CE0008DF83C0012208DF83D0013208DF83E0049
:101CF0000C208DF83F0000220FA91348FFF7CCFC01
:101D000008B1FEF7C6FC17208DF800002D208DF8D5
:101D100001000A208DF8020080070194CDE9050436
:101D200001208DF8200000020990079400226946E6
:101D30000548FFF707FC002801D0FEF7AAFC10B009
:101D400010BD0000002800401C000020FEE7FEE758
:101D5000704730B501210020FFF742FF4FF47A7041
:101D6000FEF789FC00210120FFF73AFF41F2907154
:101D70001020FFF735FF4FF41C516020FFF730FFB4
:101D800001216120FFF72CFF02214620FFF728FFE9
:101D900048F210011320FFF723FF48F2FE01122042
:101DA000FFF71EFF4FF4A0610220FFF719FF41F279
:101DB00030010320FFF714FF40F2033421463020A6
:101DC000FFF70EFF21463120FFF70AFF21463220A0
:101DD000FFF706FFE51E29463320FFF701FF032129
:101DE0003420FFF7FDFE21463520FFF7F9FE1421D0
:101DF0003620FFF7F5FE21463720FFF7F1FE21469A
:101E00003820FFF7EDFE21463920FFF7E9FE29468D
:101E10003A20FFF7E5FE03213B20FFF7E1FE2146D4
:101E20003C20FFF7DDFE4FF4A0513D20FFF7D8FE28
:101E30004FF400719220FFF7D3FE21469320FFF765
:101E4000CFFE40F60D019020FFF7CAFE41F21801C7
:101E50000320FFF7C5FEBDE8304040F273110720B4
:101E6000FFF7BEBE10B543F20801E320FFF7B8FE4E
:101E70001221E720FFF7B4FE41F23121EF20FFF7F6
:101E8000AFFE00210120FFF7ABFE4FF4E06102201E
:101E9000FFF7A6FE41F230010320FFF7A1FE00216B
:101EA0000420FFF79DFE40F207210820FFF798FE6F
:101EB00000210920FFF794FE00210A20FFF790FE81
:101EC00000210C20FFF78CFE00210D20FFF788FE7B
:101ED00000210F20FFF784FE00211020FFF780FE75
:101EE00007211120FFF77CFE00211220FFF778FE6A
:101EF00000211320FFF774FEC820FEF7CDFB41F24E
:101F000090611020FFF76CFE40F227211120FFF7AF
:101F100067FE3220FEF7C0FB1D211220FFF760FE96
:101F20003220FEF7B9FB4FF400611320FFF758FE93
:101F300014212920FFF754FE0B212B20FFF750FE20
:101F40003220FEF7A9FB00212020FFF749FE0021E7
:101F50002120FFF745FE07213020FFF741FE40F228
:101F600007713120FFF73CFE06213220FFF738FED3
:101F700040F204713520FFF733FE41F6047136203C
:101F8000FFF72EFE04213720FFF72AFE002138201C
:101F9000FFF726FE40F206713920FFF721FE40F2DE
:101FA00001713C20FFF71CFE0F213D20FFF718FEBA
:101FB00000215020FFF714FEEF215120FFF710FE03
:101FC00000215220FFF70CFE40F23F115320FFF793
:101FD00007FE4FF41C516020FFF702FE0121612033
:101FE000FFF7FEFD00216A20FFF7FAFD00218020A7
:101FF000FFF7F6FD00218120FFF7F2FD002182208E
:10200000FFF7EEFD00218320FFF7EAFD0021842089
:10201000FFF7E6FD00218520FFF7E2FD102190206B
:10202000FFF7DEFD00219220FFF7DAFD0321932068
:10203000FFF7D6FD4FF488719520FFF7D1FD002101
:102040009720FFF7CDFD00219820FFF7C9FD41F251
:1020500018010320FFF7C4FDBDE8104040F27311E2
:102060000720FFF7BDBD010901EB810100F00F0062
:1020700000EB4100C0B270470022014602E00A397D
:10208000C9B2521C0A29FAD2100741EA10607047FF
:102090002DE9F041044600680025C168490619D4BD
:1020A000C16841F08001C160FEF72CFC06464FF488
:1020B0007A78032708E000BFFEF724FC801B404528
:1020C00002D9032584F825702068C068400601D431
:1020D000032DF1D12846BDE8F08170B504460068B3
:1020E0000025C16821F08001C160206881694FF03E
:1020F0000306890607D42046FFF784FB98B184F8CD
:10210000256003250FE0816921F0200181612046CF
:10211000FFF778FB10B184F82560032520688169FA
:1021200041F020018161284670BD7047FEF7F0BB89
:1021300000B593B038216846FEF7C1F914210EA806
:10214000FEF7BDF94FF40070FEF766FC4FF48070A7
:102150000A210390009140200122CDE904020220CF
:10216000CDE90802CDE90A1007900C900D90684661
:10217000FEF720FF08B172B6FEE70F200E90032095
:102180000F90002010901190129002210EA8FEF7DF
:10219000EDFD002801D072B6FEE713B000BD0000CF
:1021A0000248016841F470010160704788ED00E069
:1021B000FEE70907090E002804DB00F1E02080F8A3
:1021C0000014704700F00F0000F1E02080F8141DAB
:1021D000704730380A2801D201207047002070472C
:1021E0001CB5002219491A48FFF708F900221949BD
:1021F0001748FFF7E1F8154817A11430FEF760F80B
:10220000124900201431FFF7CBFB10488178009170
:102210004378027815A11430FEF752F80B49482094
:102220001431FFF7BDFB0B4802788178CDE900122D
:102230004378C278054812A11430FEF741F80349EB
:10224000BDE81C4014317820FFF7AABB44000020F1
:102250001C00002010000020202020202020746579
:1022600078742020202020200000000054696D6533
:10227000202532643A2532643A2532642020200039
:102280002020202025642D25642D25642D25642003
:1022900020200000FEF744FBFFF74AFFFFF7D6FCC3
:1022A000FFF7EAFCFFF7C8FB0020FFF70BFB00205D
:1022B000FFF722FC4FF6FF70FFF71EFCFFF790FFC1
:1022C000FCE74FF04070E1EE100A7047000000009C
:1022D00000000000010203040607080900000000D6
:1022E00000000000000000000000000000000000EE
:1022F00000000000000000000000000000000000DE
:10230000000000000000000000000000000080014C
:1023100080018001800180018001800180018001B5
:1023200080018001800180010000000080018001A7
:10233000000000000000000000000000000000009D
:10234000CC00CC00CC00CC00CC00CC0000000000C5
:10235000000000000000000000000000000000007D
:10236000000000000000000000000000000000006D
:102370000000000000000000600C600C600C3006E3
:102380003006FE1FFE1F300638071803FE1FFE1F13
:10239000180318038C018C018C01000000008000E0
:1023A000E003F80F9C0E8C1C8C188C009800F80130
:1023B000E007800E801C8C188C189C18B80CF00F4D
:1023C000E00380008000000000000000000000002A
:1023D00000000E181B0C110C11061106110311033D
:1023E0009B018E01C038C06C60446044304430446E
:1023F0001844186C0C380000000000000000E001D8
:10240000F0033807180618063003F001F000F80052
:102410009C310E33061E061C061C063FFC73F02181
:1024200000000000000000000000000000000000AC
:102430000C000C000C000C000C000C000000000054
:10244000000000000000000000000000000000008C
:10245000000000000000000000000000000000027A
:1024600000038001C000C000600060003000300048
:10247000300030003000300030003000600060007C
:10248000C000C00080010003000200000000200026
:102490006000C00080018001000300030006000608
:1024A0000006000600060006000600060003000302
:1024B00080018001C00060002000000000000000DA
:1024C0000000000000000000C000C000D806F807AF
:1024D000E0013003380700000000000000000000A9
:1024E00000000000000000000000000000000000EC
:1024F00000000000000000008001800180018001D8
:102500008001FC3FFC3F800180018001800180014F
:1025100000000000000000000000000000000000BB
:1025200000000000000000000000000000000000AB
:10253000000000000000000000000000000080011A
:102540008001000100018000000000000000000088
:10255000000000000000000000000000000000007B
:1025600000000000E007E00700000000000000009D
:10257000000000000000000000000000000000005B
:10258000000000000000000000000000000000004B
:102590000000000000000000000000000000C0007B
:1025A000C000000000000000000000000000000C5F
:1025B000000C000600060006000300030003800371
:1025C000800180018001C000C000C0006000600088
:1025D0000000000000000000000000000000E00318
:1025E000F007380E180C0C180C180C180C180C18D6
:1025F0000C180C180C180C18180C380EF007E00307
:1026000000000000000000000000000000000001C9
:102610008001C001F00198018801800180018001E2
:1026200080018001800180018001800180018001A2
:102630000000000000000000000000000000E003B7
:10264000F80F180C0C180C1800180018000C0006D5
:1026500000038001C000600030001800FC1FFC1F58
:102660000000000000000000000000000000E00189
:10267000F807180E0C0C0C0C000C0006C003C00769
:10268000000C001800180C180C18180CF807E003C0
:102690000000000000000000000000000000000C2E
:1026A000000E000F000F800DC00C600C600C300C91
:1026B000180C0C0CFC3FFC3F000C000C000C000C38
:1026C0000000000000000000000000000000F80F03
:1026D000F80F180018000C00EC03FC071C0E001C7F
:1026E0000018001800180C181C0C180EF807E0034E
:1026F0000000000000000000000000000000C00713
:10270000F00F381C181818000C00CC03EC0F3C0E0E
:102710001C1C0C180C180C18181C380EF007E003C1
:102720000000000000000000000000000000FC1F8E
:10273000FC1F000C00060006000380038001C0019E
:10274000C000E00060006000700030003000300029
:102750000000000000000000000000000000E00396
:10276000F007380E180C180C180C3806F007F00794
:10277000180C0C180C180C180C18380CF80FE00377
:102780000000000000000000000000000000E00366
:10279000F007380E1C0C0C180C180C181C1C381EDA
:1027A000F81BE0190018000C000C1C0EF807F001D3
:1027B0000000000000000000000000000000000019
:1027C0000000000000000000800180010000000007
:1027D00000000000000000000000000080018001F7
:1027E00000000000000000000000000000000000E9
:1027F00000000000000000008001800100000000D7
:1028000000000000000000000000000080018001C6
:102810000001000180000000000000000000000036
:102820000000000000000000000000000010001C7C
:10283000800FE003F8001800F800E003800F001C90
:102840000010000000000000000000000000000078
:10285000000000000000000000000000F81F000061
:1028600000000000F81F0000000000000000000051
:102870000000000000000000000000000000000058
:102880000000000000000000000000000800380008
:10289000F001C007001F0018001FC007F00138003A
:1028A0000800000000000000000000000000E0033D
:1028B000F80F180C0C180C180018000C0006000378
:1028C0008001C000C000C00000000000C000C000C7
:1028D00000000000000000000000000000000000F8
:1028E000E00718180420C229224A11440944094467
:1028F000094409221113E20C024004201818E007D1
:102900000000000000000000000000000000800344
:102910008003C006C006C006600C600C301830187A
:102920003018F83FF83F1C700C600C6006C006C001
:102930000000000000000000000000000000FC0398
:10294000FC0F0C0C0C180C180C180C0CFC07FC0FD2
:102950000C180C300C300C300C300C18FC1FFC0721
:102960000000000000000000000000000000C007A0
:10297000F01F38381C300C70066006000600060098
:1029800006000600060006600C701C30F01FE00711
:102990000000000000000000000000000000FE0336
:1029A000FE0F060E061806180630063006300630F2
:1029B00006300630063006180618060EFE0FFE0317
:1029C0000000000000000000000000000000FC3FCC
:1029D000FC3F0C000C000C000C000C00FC1FFC1F4A
:1029E0000C000C000C000C000C000C00FC3FFC3F29
:1029F0000000000000000000000000000000F83FA0
:102A0000F83F18001800180018001800F81FF81FE9
:102A100018001800180018001800180018001800F6
:102A20000000000000000000000000000000E00FB7
:102A3000F83F3C780E6006E007C00300030003FE89
:102A400003FE03C007C006C00EC03CF0F83FE00F15
:102A500000000000000000000000000000000C303A
:102A60000C300C300C300C300C300C30FC3FFC3F88
:102A70000C300C300C300C300C300C300C300C3076
:102A800000000000000000000000000000008001C5
:102A9000800180018001800180018001800180012E
:102AA000800180018001800180018001800180011E
:102AB0000000000000000000000000000000000610
:102AC00000060006000600060006000600060006D6
:102AD000000600060006180618063807F003E00195
:102AE00000000000000000000000000000000630B0
:102AF0000618060C060606038601C6006600760068
:102B0000DE008E0106030606060C06180630066077
:102B1000000000000000000000000000000018009D
:102B200018001800180018001800180018001800E5
:102B3000180018001800180018001800F81FF81FD7
:102B400000000000000000000000000000000EE097
:102B50001EF01EF01EF036D836D836D836D866CCE1
:102B600066CC66CCC6C6C6C6C6C6C6C686C386C33F
:102B700000000000000000000000000000000C3019
:102B80001C303C303C306C306C30CC30CC308C3134
:102B90000C330C330C360C360C3C0C3C0C380C3023
:102BA0000000000000000000000000000000E0073E
:102BB000F81F1C380E70066003C003C003C003C0BA
:102BC00003C003C003C006600E701C38F81FE00786
:102BD0000000000000000000000000000000FC0FEA
:102BE000FC1F0C380C300C300C300C300C18FC1F57
:102BF000FC070C000C000C000C000C000C000C007E
:102C00000000000000000000000000000000E007DD
:102C1000F81F1C380E70066003E003C003C003C039
:102C200003C003C007E006630E3F1C3CF83FE0F71B
:102C300000C0000000000000000000000000FE0FC7
:102C4000FE1F06380630063006300638FE1FFE0727
:102C500006030606060C061806180630063006603F
:102C60000000000000000000000000000000E00381
:102C7000F80F1C0C0C180C180C001C00F803E00FCB
:102C8000001E0038063006300E301C1CF80FE0071E
:102C90000000000000000000000000000000FE7FB7
:102CA000FE7F800180018001800180018001800120
:102CB000800180018001800180018001800180010C
:102CC00000000000000000000000000000000C30C8
:102CD0000C300C300C300C300C300C300C300C3014
:102CE0000C300C300C300C300C301818F81FE0078A
:102CF0000000000000000000000000000000036071
:102D00000630063006300C180C180C18180C180C6D
:102D1000380E30063006700760036003C001C00142
:102D20000000000000000000000000000000036040
:102D3000C361C361C361663366336633663366332A
:102D400066336C1B6C1B6C1B2C1A3C1E380E380E29
:102D500000000000000000000000000000000FE084
:102D60000C7018303018700C600EC00780038003A0
:102D7000C003E006700C301C18180C300E6007E021
:102D8000000000000000000000000000000003C080
:102D900006600C301C383818300C6006E007C003A1
:102DA000800180018001800180018001800180011B
:102DB0000000000000000000000000000000FC7F98
:102DC000FC7F006000300018000C0006000380014A
:102DD000C0006000300018000C000600FE7FFE7F7F
:102DE0000000000000000000000000000000E00300
:102DF000E003600060006000600060006000600050
:102E000060006000600060006000600060006000C2
:102E1000600060006000E003E0030000000030009C
:102E20003000600060006000C000C000C000C00151
:102E300080018001800100030003000300060006FA
:102E40000000000000000000000000000000E0039F
:102E5000E00300030003000300030003000300037A
:102E6000000300030003000300030003000300034A
:102E7000000300030003E003E00300000000000083
:102E8000C001C00160036003600330063006180C07
:102E9000180C00000000000000000000000000000E
:102EA0000000000000000000000000000000000022
:102EB0000000000000000000000000000000000012
:102EC0000000000000000000000000000000FFFF04
:102ED000FFFF0000000000000000000000000C00E8
:102EE0000C000C000C000C000C00000000000000A6
:102EF00000000000000000000000000000000000D2
:102F000000000000000000000000000000000000C1
:102F10000000000000000000F003F8071C0C0C0C7F
:102F2000000FF00FF80C0C0C0C0C1C0FF80FF01825
:102F30000000000000000000000000000000180079
:102F40001800180018001800D803F80F380C1818CB
:102F500018181818181818181818380CF80FD8035B
:102F60000000000000000000000000000000000061
:102F70000000000000000000C003F007300E180C35
:102F80001800180018001800180C300EF007C003C5
:102F90000000000000000000000000000000001819
:102FA0000018001800180018C01BF01F301C18185B
:102FB00018181818181818181818301CF01FC01BEB
:102FC0000000000000000000000000000000000001
:102FD0000000000000000000C003F00F300C1818C3
:102FE000F81FF81F180018003818301CF00FC00721
:102FF0000000000000000000000000000000800F42
:10300000C00FC000C000C000F007F007C000C00043
:10301000C000C000C000C000C000C000C000C000B0
:1030200000000000000000000000000000000000A0
:103030000000000000000000E00DF80F180E0C0C5E
:103040000C0C0C0C0C0C0C0C0C0C180EF80FE00DEE
:10305000000C0C0C1C06F807F00100000000180022
:103060001800180018001800D807F80F381C181896
:1030700018181818181818181818181818181818D0
:103080000000000000000000000000000000C00080
:10309000C000000000000000C000C000C000C00070
:1030A000C000C000C000C000C000C000C000C00020
:1030B0000000000000000000000000000000C00050
:1030C000C000000000000000C000C000C000C00040
:1030D000C000C000C000C000C000C000C000C000F0
:1030E000C000C000C000F8007800000000000C0024
:1030F0000C000C000C000C000C0C0C060C038C01DA
:10310000CC006C00FC009C018C030C030C060C0C26
:103110000000000000000000000000000000C000EF
:10312000C000C000C000C000C000C000C000C0009F
:10313000C000C000C000C000C000C000C000C0008F
:10314000000000000000000000000000000000007F
:1031500000000000000000007C3CFF7EC7E383C14C
:1031600083C183C183C183C183C183C183C183C13F
:10317000000000000000000000000000000000004F
:1031800000000000000000009807F80F381C181815
:1031900018181818181818181818181818181818AF
:1031A000000000000000000000000000000000001F
:1031B0000000000000000000C003F00F300C1818E1
:1031C00018181818181818181818300CF00FC00311
:1031D00000000000000000000000000000000000EF
:1031E0000000000000000000D803F80F380C181889
:1031F00018181818181818181818380CF80FD803B9
:103200001800180018001800180000000000000046
:103210000000000000000000C01BF01F301C181848
:1032200018181818181818181818301CF01FC01B78
:103230000018001800180018001800000000000016
:103240000000000000000000B007F0037000300034
:1032500030003000300030003000300030003000EE
:10326000000000000000000000000000000000005E
:103270000000000000000000E003F003380E180C0E
:103280003800F003C007000C180C380EF007E003FC
:10329000000000000000000000000000000000002E
:1032A0008000C000C000C000F007F007C000C000F0
:1032B000C000C000C000C000C000C000C007800740
:1032C00000000000000000000000000000000000FE
:1032D000000000000000000018181818181818182E
:1032E00018181818181818181818381CF01FE01992
:1032F00000000000000000000000000000000000CE
:1033000000000000000000000C18180C180C180C2D
:10331000300630063006600360036003C001C00160
:10332000000000000000000000000000000000009D
:103330000000000000000000C141C141C36163639F
:10334000636363633636363636361C1C1C1C1C1C05
:10335000000000000000000000000000000000006D
:1033600000000000000000001C38381C300C600613
:1033700060036003600360036006300C381C1C3877
:10338000000000000000000000000000000000003D
:1033900000000000000000001830301830187018CD
:1033A000600C600CE00CC006C00680038003800344
:1033B00080018001C001F0007000000000000000EA
:1033C0000000000000000000FC1FFC1F000C0006B5
:1033D00000038001C000600030001800FC1FFC1FCB
:1033E00000000000000000000000000000000003DA
:1033F0008001C000C000C000C000C000C00060006C
:103400006000300060004000C000C000C000C0008C
:10341000C000C00080010003000000000000800127
:103420008001800180018001800180018001800194
:103430008001800180018001800180018001800184
:103440008001800180018001800100000000600097
:10345000C000C00180018001800180018001000363
:10346000000300060003000180018001800180014B
:1034700080018001C000600000000000000000002A
:10348000000000000000000000000000F010F81F25
:10349000080F000000000000000000000000000015
:1034A000000000000000000000000000CC34000814
:1034B000000000201C00000014020008E83400088E
:1034C0001C000020B40600003002000810000000BC
:1034D00001000000000000000024F40000000000D3
:0834E0000000FFFF00000000E6
:04000005080001D915
:00000001FF
