:020000040800F2
:1000000010070020810200087F2000084F1A000816
:100010007D2000086F060008ED29000800000000A0
:10002000000000000000000000000000392400086B
:100030007106000800000000812000083B24000831
:100040009B0200089B0200089B0200089B0200081C
:100050009B0200089B0200089B0200089B0200080C
:100060009B0200089B0200089B0200089B020008FC
:100070009B0200089B0200089B0200089B020008EC
:100080009B020008000000009B0200089B02000881
:100090009B0200089B0200089B0200089B020008CC
:1000A0009B0200089B0200089B0200089B020008BC
:1000B0009B0200089B0200089B0200089B020008AC
:1000C0009B0200089B0200089B0200089B0200089C
:1000D0009B020008E12900089B0200089B0200081F
:1000E0009B0200089B0200089B0200089B0200087C
:1000F0009B0200089B0200089B0200080000000011
:10010000000000009B020008000000009B020008A5
:100110009B020008000000009B0200089B020008F0
:100120009B0200089B0200089B0200089B0200083B
:100130009B02000800000000000000009B02000875
:100140009B0200089B020008000000000000000065
:10015000000000000000000000000000000000009F
:100160000000000000000000000000009B020008EA
:100170009B020008000000000000000000000000DA
:10018000000000009B0200080000000000000000CA
:10019000000000000000000000000000000000005F
:1001A00000000000000000009B0200089B02000805
:1001B0009B0200089B0200089B0200080000000050
:1001C000000000009B02000800000000000000008A
:1001D0009B0200089B02000800F002F800F041F8C2
:1001E0000AA090E8000C82448344AAF10107DA4592
:1001F00001D100F036F8AFF2090EBAE80F0013F0A3
:10020000010F18BFFB1A43F001031847843A00009E
:10021000A43A0000103A24BF78C878C1FAD852072F
:1002200024BF30C830C144BF04680C607047000070
:100230000023002400250026103A28BF78C1FBD8EF
:10024000520728BF30C148BF0B607047642900F0D7
:10025000F780002070471FB502F00CFC1FBD10B5E1
:1002600010BD00F0CAF91146FFF7F5FF02F0D6FB0A
:1002700000F0E8F903B4FFF7F2FF03BC00F0F0F977
:100280000948804709480047FEE7FEE7FEE7FEE72A
:10029000FEE7FEE7FEE7FEE7FEE7FEE70448054966
:1002A000054A064B70470000A9240008D901000840
:1002B0001001002010070020100300201003002070
:1002C00053EA020C00F069802DE9F04B4FF0000674
:1002D000002B1FBFB3FA83F503FA05F424FA05F6E1
:1002E0005E4012BF1643B2FA82F502FA05F4C5F178
:1002F00020051EBF22FA05FC44EA0C04203556EA0C
:10030000044C4FEA144418BF641C4FF000084FF02F
:100310000009904271EB030C39D3002919BFB1FADF
:1003200081F701FA07F6B0FA80F700FA07F6C7F18D
:1003300020071EBF20FA07FC46EA0C062037B6FB52
:10034000F4FCA7EB0507103F07F01F0BCBF12006CD
:100350000CFA0BFB2CFA06F644BFB3460026202FFE
:10036000A4BF5E464FF0000B5BEA060C08BF4FF0DF
:10037000010B19EB0B09ABFB027C48EB0608C01B19
:1003800006FB02CC0BFB03CC71EB0C01C1E70B4667
:10039000024641464846BDE8F08B13B54FF00000D9
:1003A0004FF00001AFF30080BDE81C407047000033
:1003B0000FB41CB5074B06AA7B446946009005980C
:1003C00000F003F90020694600F012F91CBC5DF84A
:1003D00014FB0000350200002DE9F0410E460446F2
:1003E000002020622046E168884730B3252805D0E8
:1003F000D4E901219047206A401CF2E7E1682046D9
:1004000000278847050018D0A5F14100192802D817
:1004100020354FF400673246294620462760FFF713
:1004200015FF40B1012804D0F61D26F00706083656
:10043000D8E7361DD6E72846DAE7206ABDE8F0811E
:100440002DE9F0410646002410687529314616A5AD
:1004500010D0AFF30080002802DA404213A507E075
:1004600031688A0701D512A502E0490704D511A514
:10047000012401E0AFF3008000210A2206F12407E5
:1004800009E0B0FBF2FCB0FBF2F302FB1C003030E1
:1004900078541846491C0028F3D123462A46304692
:1004A000BDE8F04100F032B8000000002D0000006F
:1004B0002B000000200000004FF0000200B51346A2
:1004C00094469646203922BFA0E80C50A0E80C5074
:1004D000B1F12001BFF4F7AF090728BFA0E80C5025
:1004E00048BF0CC05DF804EB890028BF40F8042B1E
:1004F00008BF704748BF20F8022B11F0804F18BF8B
:1005000000F8012B70477047704770472DE9F0479E
:100510000D4699469246044600F124080168880673
:1005200004D5E06921F01001216000E00120A8421B
:1005300001DD471B00E00027A1697A1902EB0900E1
:10054000081AA0612078C00602D42046AFF30080CC
:10055000002608E0D4E901211AF806009047206A35
:10056000401C761C20624E45F4DB2078C0060AD57C
:100570002046AFF3008006E0D4E901213020904707
:10058000206A401C2062381EA7F10107F4DC07E056
:10059000D4E9012118F805009047206A401C206228
:1005A000281EA5F10105F3DC2046AFF3008020787A
:1005B000000602D50220BDE8F0870120FBE700001D
:1005C00001694A1C02610878704700B58FB0CDE917
:1005D00001310021059105497944CDE90310114607
:1005E0006846FFF7F9FE0FB000BD0000E5FFFFFF12
:1005F0000A6802F8010B0A607047754600F02CF893
:10060000AE4605006946534620F00700854618B0FF
:1006100020B5FFF743FEBDE820404FF000064FF045
:1006200000074FF000084FF0000B21F00701AC4627
:10063000ACE8C009ACE8C009ACE8C009ACE8C00946
:100640008D46704710B50446AFF300802046BDE8E4
:100650001040FFF70FBE000000487047AC000020BC
:1006600001491820ABBEFEE7260002007047FEE7F6
:100670007047002240F6B83306E00021491C89B2D9
:100680009942FBD3521C92B28242F6D3704710B506
:10069000044601F059FAA02001F017FA01F08AFA95
:1006A000204601F012FA01F06AFA01F04DFAA12099
:1006B00001F00BFA01F07EFA01F0E0F9044601F0D6
:1006C0002BFA01F05CFA204610BD72B6FEE710B5B9
:1006D00090F8253000210122022B03D00421C163B0
:1006E000012122E003681C6824F00E041C60836C66
:1006F0001C6824F480741C6003681C6824F00104E6
:100700001C6090F84430046C03F01F0302FA03F3FA
:100710006360D0E913345C60436D33B11C6824F42A
:1007200080741C60D0E916345C6080F825200022BB
:1007300080F82420084610BD70B590F825200024CC
:1007400001212346022A07D00422C26380F8251023
:1007500080F82430012429E00268156825F00E0590
:1007600015600268156825F001051560826C156832
:1007700025F48075156090F84420056C02F01F0286
:1007800001FA02F26A60D0E913255560426D32B178
:10079000156825F480751560D0E91625556080F838
:1007A000251080F82430816B01B18847204670BD48
:1007B00070B5044600F038F90546601C02D00448C4
:1007C0004068044400F030F9401BA042FAD370BDE9
:1007D000000000202DE9F04FDFF8209200230126D1
:1007E0000324A9F1040B85B00F2709F1040AABF12A
:1007F000040EFAE006FA03F52A407CD091F804C012
:100800000CF0030CBCF1010F02D0BCF1020F26D199
:10081000D0F808C0CDF800C04FEA430C04FA0CF839
:10082000CDF810C0DDF800C02CEA080CCDF800C0EF
:10083000D1F80C80DDF810C008FA0CF8DDF800C023
:1008400048EA0C08C0F80880D0F804C02CEA050C6F
:100850000D79C5F300159D4045EA0C0545600D79FD
:10086000ED43AD070ED0C5684FEA430804FA08FC13
:1008700025EA0C05D1F808C00CFA08FC4CEA050C76
:10088000C0F80CC00D7905F00305022D16D1DD0866
:1008900000EB850CCDF808C0DCF820805D074FEA3E
:1008A000D56C07FA0CF528EA05080D6905FA0CF570
:1008B000DDF808C045EA0805CCF8205005684FEA85
:1008C000430CCDF808C004FA0CFC25EA0C0591F89D
:1008D00004C00CF00308DDF808C008FA0CF848EA78
:1008E0000508C0F800804D6815F4403F7CD0444DA9
:1008F000D5F860C000E077E04CF0010CC5F860C0AE
:100900002D6E23F0030C05F0010500953D4D654467
:100910000295AD684FEA837C4FEA1C7807FA08FC21
:1009200025EA0C05B0F1904F06D0DFF8DCC0604539
:1009300005D14FF0010C20E04FF0000C1DE0DFF876
:10094000CCC0604502D14FF0020C16E0DFF8C0C009
:10095000604502D14FF0030C0FE0DFF8B8C06045EE
:1009600002D14FF0040C08E0DFF8ACC0604502D1C2
:100970004FF0050C01E04FF0060C0CFA08FC4CEAB5
:10098000050C029DC5F808C0D9F80050CC46D1F836
:10099000048095435FEAC82800D51543CCF8005081
:1009A000DAF80050D446D1F8048095435FEA8828ED
:1009B00000D51543CCF80050DBF80050DC46D1F8E8
:1009C000048095435FEA883800D51543CCF8005081
:1009D000DEF80050F446D1F8048095435FEAC83849
:1009E00000D51543CCF800505B1C0A6832FA03F5B9
:1009F0007FF400AF05B0BDE8F08F000008040140AF
:100A000000100240000001400004004800080048B7
:100A1000000C00480010004800140048006908401D
:100A200000D0012070470000014880687047000036
:100A300000000020024881684268114481607047CC
:100A40000000002010B50024032000F073F80F20F0
:100A500000F008F808B1012401E000F025F8204674
:100A600010BD000070B50E4E05460024706898B1A8
:100A70004FF47A71B1FBF0F00A490968B1FBF0F06C
:100A800000F05EFD40B9102D06D200222946501E0E
:100A900000F030F8356000E00124204670BD000011
:100AA000000000200C0000200A4882B0016E41F0D6
:100AB00001010166016E01F001010091816D41F0BB
:100AC00080518165806D00F08050009002B000F090
:100AD000A1B8000000100240002809DB00F01F024E
:100AE000012191404009800000F1E020C0F8001190
:100AF00070470000F0B40E4B1B680C46C3F3022392
:100B0000C3F10705042D00D90425191D072901D2B9
:100B1000002300E0DB1E012606FA05F1491E2140F4
:100B200099409E40761E16403143F0BC01F05FBFF5
:100B30000CED00E0064900F0070208684FF6FF03DD
:100B4000184040EA0220034A104308607047000042
:100B50000CED00E00000FA052B492C4B0A6832210D
:100B60004A432B4940B1B0F5007F086829D020F4F2
:100B7000C06040F480602CE00868C0F34120022887
:100B800004D051F8800F20F4807022E0D1F880006A
:100B900020F48070C1F88000086820F4C06040F440
:100BA00000700860B2FBF3F0401C00E0401E4A6990
:100BB000520501D50028F9D1486940050AD503201E
:100BC0007047C0F34120022806D051F8800F40F44E
:100BD0008070086000207047D1F8800040F4807079
:100BE000C1F88000086820F4C06040F4007008601C
:100BF000B2FBF3F0401C00E0401E4A695205DBD511
:100C00000028F9D1D8E700000C00002040420F0076
:100C1000007000400248816841F480418160704763
:100C2000007000402DE9F8430446006800269D4D01
:100C300000035ED5A86D0027C00008D4A86D40F061
:100C40008050A865A86D012700F080500090DFF863
:100C50005892D9F8001041F48071C9F80010FFF7DC
:100C6000E3FE804606E000BFFFF7DEFEA0EB0800D3
:100C700002282BD8D9F80000C005F5D5D5F890008A
:100C800010F4407014D0216C814211D0D5F890003E
:100C9000D5F8901020F4407041F48031C5F89010E0
:100CA000D5F8901021F48031C5F89010C5F8900067
:100CB000C00711D0FFF7B8FE804641F2883907E03F
:100CC000FFF7B2FEA0EB0801494501D903260BE06E
:100CD000D5F890008007F3D5D5F89000216C20F46A
:100CE00040700843C5F890001FB1A86D20F08050F7
:100CF000A8652078C00707D0D5F88800616820F083
:100D000003000843C5F888002078800707D5D5F888
:100D10008800A16820F00C000843C5F888002078FE
:100D2000400707D5D5F88800E16820F03000084377
:100D3000C5F888002078000707D5D5F88800216914
:100D400020F0C0000843C5F888002078800607D549
:100D5000D5F88800616920F440600843C5F8880030
:100D60002078400607D5D5F88800A16920F44050C6
:100D70000843C5F888002078000607D5D5F8880014
:100D8000E16920F440400843C5F888002088C00588
:100D900007D5D5F88800216A20F440300843C5F80B
:100DA00088002088800507D5D5F88800616A20F47E
:100DB00040200843C5F88800208840050FD5D5F8A5
:100DC0008800A16A20F440100843C5F88800A06A92
:100DD000B0F5801F03D1E86840F48010E8602088F7
:100DE00000050FD5D5F88800E16A20F440000843DB
:100DF000C5F88800E06AB0F5800F03D1E86840F4D8
:100E00008010E8602088C0040FD5D5F88800216BD9
:100E100020F040700843C5F88800206BB0F1807F57
:100E200003D1E86840F48010E86020884FF000614A
:100E300080040ED5D5F88800626B20F04060104326
:100E4000C5F88800606B884203D1E86840F48010E0
:100E5000E860208840040ED5D5F88800A26B20F009
:100E600040601043C5F88800A06B884203D1E86851
:100E700040F48010E860208800040FD5D5F8880081
:100E8000E16B20F040500843C5F88800E06BB0F1FA
:100E9000805F03D1E86840F48030E8603046BDE808
:100EA000F883000000100240007000402DE9F04778
:100EB0000E4605004FF0000725D0DFF8AC81D8F8CA
:100EC000000000F00F00B0420CD2D8F8001021F062
:100ED0000F013143C8F80010D8F8000000F00F00EF
:100EE000B04210D12968614CC80741F2883A5AD003
:100EF0006868DFF87C91032808D0022820682DD08C
:100F0000400500282CDB0120BDE8F0872068800127
:100F1000F9D5E06800F00302E068C0F30310401C5C
:100F2000032A19D0534A00BFB2FBF0F0E268C2F3C3
:100F300006225043E268C2F34162521C5200B0FBE9
:100F4000F2F0484517D9A06810F0F00F0CD08807D0
:100F500011D5A86840B10EE0474AE5E78003D0E725
:100F600000F0B6F8484506D9A06820F0F00040F03F
:100F70008000A0608027A068696820F00300084313
:100F8000A060FFF751FD814606E000BFFFF74CFD72
:100F9000A0EB090151453AD8A068696800F00C003F
:100FA000B0EB810FF2D12868810714D5400703D533
:100FB000A06840F4E060A0602878000705D5A0682C
:100FC00020F4605040F4E060A060A068A96820F0C0
:100FD000F000084304E0802F03D1A06820F0F00067
:100FE000A060D8F80010404601F00F01B14216D9B8
:100FF000016821F00F0131430160FFF715FD07463D
:1010000007E000BFFFF710FDC11B514501D90320C8
:101010007AE7D8F8000000F00F00B042F2D128784B
:10102000400705D5A068E96820F4E0600843A060A7
:101030002878000706D5A068296920F4605040EAA6
:10104000C100A06000F044F8A1680C4AC1F303118C
:10105000515C01F01F01C840094908600948006857
:10106000BDE8F047FFF7FEBC002002400010024040
:1010700000B4C4040024F40000127A00A62A000878
:101080000C0000200000002005480649006889681F
:10109000054AC1F30221515C01F01F01C8407047AD
:1010A0000C00002000100240B62A0008054806493E
:1010B00000688968054AC1F3C221515C01F01F0133
:1010C000C84070470C00002000100240B62A0008FB
:1010D000184910B58868C0F381021748012A0BD05F
:1010E0008A684310C2F38102022A06D08A68C2F3DA
:1010F0008102032A03D0002010BD184610BDCA6823
:1011000002F00304CA68C2F30312521C032C02D07B
:10111000B0FBF2F001E0B3FBF2F0CA68C968C2F3B9
:1011200006225043C1F34161491C4900B0FBF1F074
:1011300010BD0000001002400024F4002DE9F84327
:1011400004007AD02078F84DC00747D0A868E96835
:1011500000F00C0001F003010C2802D0082817D081
:1011600001E0032914D06068B0F5803F17D0B0F5D6
:10117000A02F286817D020F480302860286820F439
:10118000802028606068E0B1FFF74EFC064614E05E
:101190002868800322D560680028D2D01EE0286825
:1011A00040F48030EDE740F480202860F7E700BF8E
:1011B000FFF73AFC801B642870D828688003F7D5B5
:1011C0000CE0FFF731FC064605E000BFFFF72CFC02
:1011D000801B6428F0D828688003F7D42078800723
:1011E0004CD5A868E96800F00C0001F003010C2858
:1011F00002D004280DD001E002290AD0E0680028BE
:1012000028682BD040F480702860FFF70DFC06465C
:1012100019E02868400502D5E068002891D0686888
:10122000217C20F0FE4040EA01606860BF48006811
:10123000FFF718FC002800D120E072E1FFF7F4FB73
:10124000801B0228B8D828684005F7D56868217C3B
:1012500020F0FE4040EA016068600FE020F48070FA
:101260002860FFF7E1FB064605E000BFFFF7DCFB67
:10127000801B0228A0D828684005F7D420780007F2
:1012800029D560690028D5F8940013D040F00100FA
:10129000C5F89400FFF7C8FB064606E090E000BFE3
:1012A000FFF7C2FB801B022886D8D5F89400800780
:1012B000F6D510E020F00100C5F89400FFF7B4FB6C
:1012C000064604E0FFF7B0FB801B022878D8D5F86B
:1012D00094008007F6D42078400761D5A86D0026D9
:1012E000C00008D4A86D40F08050A865A86D012604
:1012F00000F0805000908E480168C90511D4016843
:10130000804641F480710160FFF78EFB074604E0E0
:10131000FFF78AFBC01B022852D8D8F80000C0058E
:10132000F6D5A068012815D00528D5F8900016D06C
:1013300020F00100C5F89000D5F8900020F00400DE
:10134000C5F89000A06841F28838B8B1FFF76CFB8F
:1013500007460EE0D5F8900040F00100F0E740F0BD
:101360000400C5F89000F5E7FFF75EFBC11B41459F
:1013700026D8D5F890008007F6D50CE0FFF754FB8F
:10138000074604E0FFF750FBC11B414518D8D5F8CC
:1013900090008007F6D41EB1A86D20F08050A8659B
:1013A0002078800629D5A0690028D5F8980013D0A8
:1013B00040F00100C5F89800FFF736FB064606E04E
:1013C00075E000BFFFF730FB801B02286FD8D5F80F
:1013D00098008007F6D510E020F00100C5F89800CD
:1013E000FFF722FB064604E0FFF71EFB801B0228E6
:1013F0005DD8D5F898008007F6D4E069F0B3A96805
:10140000C1F3810103295DD00228286820F0807093
:10141000286003D0FFF708FB04464BE0FFF704FB0E
:10142000064604E0FFF700FB801B02283FD828682F
:101430008001F7D4F4E908016FF00F0202EB01110B
:101440000843218A5204490802EB4151A26841EA4B
:1014500002210843217D4FF07E42490802EB4161A1
:101460000843217B40EAC160E968324A11400843E1
:10147000E860286840F08070286000E05EE0E8687E
:1014800040F08070E860FFF7CFFA044605E000BF47
:10149000FFF7CAFA001B022809D828688001F7D58F
:1014A0004CE000BFFFF7C0FA001B022802D903205E
:1014B000BDE8F88328688001F4D4E8681E49084034
:1014C000E8603BE00128F3D0E868226A00F00301FD
:1014D000914226D1616A00F0F0020901103991426F
:1014E0001FD1A26A00F4FE41B1EB022F19D194F88A
:1014F0002C2000F07841B1EBC26F12D1218E00F4A4
:10150000C00249084905A1F50011914209D194F89A
:10151000341000F0C06049084906A1F10071814211
:101520000CD00120C4E700000010024000000020A1
:10153000007000400C809F01FCFFEEFE0020B7E72A
:1015400010B5401EB0F1807F01D3012010BD4FF0D7
:10155000E02460610F21601701F049FA0020A061CA
:1015600007202061002010BD90F88410012918D0B8
:10157000012180F884102421C0F8881001680A68CD
:101580000B6823F001030B6022F000510022426639
:10159000036819602021C0F8881080F88420104664
:1015A0007047022070477047704770B5044690F846
:1015B000840001281DD0012084F884002420C4F870
:1015C000880020680568026822F001020260206835
:1015D000826822F060620A438260204600F06CFF5D
:1015E000206805602020C4F88800002084F884006A
:1015F00070BD022070BD70B5044690F884000128CB
:101600001DD0012084F884002420C4F888002068BC
:101610000568026822F0010202602068826822F0F8
:1016200060420A438260204600F046FF2068056061
:101630002020C4F88800002084F8840070BD0220B7
:1016400070BD7047704770472DE9F041036804464C
:10165000D86919689A6840F60F0528424FF00005CE
:101660004FF002060AD187067ED501F0200702F06E
:10167000805C57EA0C0777D0616F3AE1B24FDFF830
:10168000CCC2174001EA0C0C57EA0C0C6CD05FEA94
:10169000C07C0CD05FEAC15C09D54FF0010CC3F8E7
:1016A00020C0D4F8903043F00103C4F89030830791
:1016B00009D5D30707D023681E62D4F8903043F0D1
:1016C0000403C4F8903043070AD5D30708D026682E
:1016D00004233362D4F8903043F00203C4F890300E
:1016E00003070CD501F020033B4308D026680823EC
:1016F0003362D4F8903043F00803C4F89030030507
:101700000BD54B0109D526684FF400633362D4F83A
:10171000903043F02003C4F89030D4F89030002B80
:101720003DD0800609D501F0200002F08051084329
:1017300003D0616F09B120468847D4F89000216832
:101740008968490602D410F0280F2AD0204600F0FC
:1017500099FF2068806840061ED52068083050E850
:10176000001F21F0400100E021E040E80012002AC3
:10177000F3D1D4F8800078B175498163D4F8800042
:10178000FEF7DAFF00280AD0D4F88000816B00E071
:101790002046BDE8F04108472046FFF754FFBDE86A
:1017A000F0812046FFF74FFFC4F89050F7E7D4F8D8
:1017B0006CC02027BCF1010F7ED15FEAC06C7BD5E5
:1017C0005FEAC16C78D510201862206880684006F6
:1017D00045D5D4F88010086840680004000CDED0BD
:1017E000B4F85C208242DAD9A4F85E000868006888
:1017F00080062CD4216851E8000F20F4807041E865
:101800000002002AF6D12068083050E8001F21F0BD
:10181000010140E80012002AF5D12068083050E8A4
:10182000001F21F0400140E80012002AF5D1C4F861
:101830008C70E566206850E8001F21F0100140E838
:101840000012002AF6D1D4F88000FEF740FF266788
:10185000B4F85C00B4F85E10401A81B230E0B4F81D
:101860005C00B4F85E10401A81B2B4F85E00002843
:1018700095D0002993D0226852E8000F20F4907090
:1018800042E80003002BF6D12F4BDB4320680830E1
:1018900050E8002F1A4040E8002CBCF1000FF5D1B1
:1018A000C4F88C70E5666567226852E8000F20F086
:1018B000100042E8000300E006E0002BF4D12667A8
:1018C0002046FFF770FE6AE7C60209D5560207D523
:1018D0004FF4801018622046BDE8F041FFF7B2BE19
:1018E00003060AD501F0800302F40002134304D07A
:1018F000A16F00297FF44CAF51E7420611D54A068B
:101900000FD52046026852E8001F21F0400142E84E
:101910000013002BF6D1C0F88870856700F096F8A8
:101920003DE7020206D54A0004D52046BDE8F04155
:10193000FFF787BEC001C6D50029C4DA2046BDE83E
:10194000F041FFF731BE000001000010200100044B
:101950007126000810B5040003D0D4F8880010B137
:1019600007E0012010BD002084F88400204600F02C
:1019700027F82420C4F888002068016821F00101BC
:101980000160A06A10B1204600F0B8FD204600F0CA
:10199000A3FE0128E6D02068416821F4904141600F
:1019A0002068816821F02A0181602068016841F087
:1019B000010101602046BDE8104000F003BE0000B8
:1019C00010B598B00446142111A8FEF775FD442106
:1019D0006846FEF771FD1B492068884230D101201E
:1019E0000024CDE900046846FFF71CF908B1FEF7B2
:1019F0006CFE1548016E41F480410166016E01F4F0
:101A000080411691C16C41F00101C164C06C11A903
:101A100000F0010016904FF4C06011900220CDE953
:101A200012040720CDE914404FF09040FEF7D2FE9B
:101A3000002211462520FFF75DF82520FFF74CF81E
:101A400018B010BD00380140001002407047FEE79A
:101A500000B585B014216846FEF72EFDC020009029
:101A60000120019002900220039069460248FEF78F
:101A7000B1FE05B000BD00000004004870B50824A8
:101A8000002500F0A1FC13E06806050E002000F020
:101A900083FC142000F0BBFF142000F0B8FF0120ED
:101AA00000F07AFC142000F0B2FF00F081FC054346
:101AB000641EE4B2E8D2002000F06EFC142000F0B6
:101AC000A6FF00F0A3FC284670BD70B504460825AB
:101AD00016E000F061FC142000F099FF04F0800093
:101AE00000F088FC142000F092FF6006040E142021
:101AF00000F08DFF012000F04FFC142000F087FF64
:101B00006D1EEDB24FF00000E3D200F045FCBDE8E1
:101B10007040142000F07BBF10B5012000F06AFC7B
:101B2000142000F074FF142000F071FF012000F079
:101B300033FC142000F06BFF002000F02DFCBDE80A
:101B40001040142000F063BF10B5012000F052FCDB
:101B5000142000F05CFF012000F01EFC142000F0B7
:101B600056FF002000F046FC142000F050FF00203B
:101B700000F012FCBDE81040142000F048BF10B582
:101B8000002000F009FC142000F041FF002000F0CC
:101B900031FC142000F03BFF012000F0FDFB14207D
:101BA00000F035FF012000F025FCBDE810401420B6
:101BB00000F02DBF10B5052400F006FC142000F045
:101BC00026FF012000F0E8FB142000F020FF05E0D4
:101BD000641EA4B2142000F01AFF6CB100F0E8FB00
:101BE0000028F5D100F012FC002000F0D5FB1420F5
:101BF00000F00DFF002010BD00F008FCFFF7BFFF54
:101C0000012010BD00B585B014216846FEF754FCD4
:101C10004FF6FF70009000200321CDE902010190F2
:101C200069460248FEF7D6FD05B000BD0008004831
:101C300000B585B014216846FEF73EFC4FF6FF70F4
:101C4000009001200190032003900020029069463B
:101C50000248FEF7BFFD05B000BD000000080048C7
:101C60002DE9F0410A4E80463068002485B22146B5
:101C7000204600F01DF900F053F94FF49637404626
:101C800000F022F9641CBC42F9D33560BDE8F08154
:101C90001408004830B587B014216846FEF70CFCE4
:101CA0001E48C16C41F00401C164C16C01F0040123
:101CB0000591C16C41F00101C164C16C01F00101E9
:101CC0000591C16C41F00201C164C06C012500F0B6
:101CD000020005904FF44870CDE9000500240394FC
:101CE000694602940E48FEF775FD280203940090A1
:101CF000CDE901544FF0904469462046FEF76AFD55
:101D0000FFF796FFA06940F48070A0610448183086
:101D1000016841F40871016007B030BD0010024055
:101D200000040048203AD2B2034B02EB420203EB1C
:101D3000021200F023B80000BE2A00082DE9F0438B
:101D4000DFF8348081460E46D8F80000002587B2BF
:101D500040F23F1407E021464846FFF7E3FF103CFE
:101D60006D1CA4B2761C32780AB1142DF3D3C8F8D6
:101D70000070BDE8F0830000140800482DE9F0472A
:101D800091468A460026044600F092F8DFF840802B
:101D9000012700BF00F0C4F85FF0000539F8160015
:101DA00007FA05F10842404601D1408800E000886A
:101DB00000F08AF86D1C102DF0D3641CE4B251467B
:101DC000204600F075F8761C182EE3D3BDE8F087A6
:101DD0001000002070B50D4E306885B2FFF75AFF35
:101DE000002000F017F80A4CA080A088A0F502415E
:101DF000303907D000F0CEF9002000F00BF8A080B9
:101E0000356070BD00F03DF9F6E7000014080048A9
:101E10001000002070B51D490A6842F400720A6083
:101E20000A6842F480720A60184C103C226842F042
:101E300020022260164A1060086840F02000086006
:101E400000BF00BF00BF206840F020002060206875
:101E500040F480702060FFF7D5FE4FF09041886A13
:101E600040F48070886200BF00BF00BF0848001FB8
:101E7000006885B2886940F480708861FFF7D8FEF9
:101E8000206840F400702060284670BD2804004897
:101E90001408004801B504480168BDF8002089B263
:101EA000024B5A80016008BD140800481000002051
:101EB00010B50C460146202000F060F82146BDE830
:101EC0001040212000F05AB8134A116841F4007103
:101ED0001160114910390B6843F480730B600B6873
:101EE00043F020030B600D4B1860106840F0200099
:101EF000106000BF00BF00BF086840F0200008600D
:101F0000086840F48070086000BF00BF00BF086828
:101F100040F4007008607047280400481408004826
:101F20001449086840F400700860086840F4807044
:101F3000086010481038026842F0200202600E4B20
:101F400022221A600A6842F020020A6000BF00BF25
:101F500000BF016841F020010160016841F4807117
:101F6000016000BF00BF00BF016841F40071016063
:101F7000704700002804004814080048184B10B5AA
:101F80001A6842F400721A601A6842F480721A6089
:101F9000134A103A146844F020041460114C206075
:101FA000186840F02000186000BF00BF00BF106834
:101FB00040F020001060106840F4807010602160D4
:101FC000186840F02000186000BF00BF00BF106814
:101FD00040F020001060106840F48070106010BD68
:101FE0002804004814080048094808B5C16C41F0AD
:101FF0002001C164C16C01F020010091C16C41F06D
:102000000101C164C06C00F00100009008BD000037
:1020100000100240184810B5164901604FF41651DF
:102020004160002181600C22C160C0E9041281611D
:10203000C161016241628162FFF78CFC08B1FEF769
:1020400044FB00210C48FFF7D6FA08B1FEF73DFB30
:1020500000210948FFF7A9FA08B1FEF736FB064848
:10206000FFF782FA002803D0BDE81040FEF72DBB31
:1020700010BD00000038014018000020FEE7FEE718
:10208000704730B501210020FFF778FF4FF47A70D8
:10209000FEF7EFFA00210120FFF770FF41F2907187
:1020A0001020FFF76BFF4FF41C516020FFF766FF15
:1020B00001216120FFF762FF02214620FFF75EFF4A
:1020C00048F210011320FFF759FF48F2FE011220D9
:1020D000FFF754FF4FF4A0610220FFF74FFF41F2DA
:1020E00030010320FFF74AFF40F20334214630203D
:1020F000FFF744FF21463120FFF740FF2146322001
:10210000FFF73CFFE51E29463320FFF737FF032189
:102110003420FFF733FF21463520FFF72FFF14212E
:102120003620FFF72BFF21463720FFF727FF2146F8
:102130003820FFF723FF21463920FFF71FFF2946EC
:102140003A20FFF71BFF03213B20FFF717FF214633
:102150003C20FFF713FF4FF4A0513D20FFF70EFF87
:102160004FF400719220FFF709FF21469320FFF7FB
:1021700005FF40F60D019020FFF700FF41F2180126
:102180000320FFF7FBFEBDE8304040F2731107204B
:10219000FFF7F4BE10B543F20801E320FFF7EEFEAF
:1021A0001221E720FFF7EAFE41F23121EF20FFF78D
:1021B000E5FE00210120FFF7E1FE4FF4E06102207F
:1021C000FFF7DCFE41F230010320FFF7D7FE0021CC
:1021D0000420FFF7D3FE40F207210820FFF7CEFED0
:1021E00000210920FFF7CAFE00210A20FFF7C6FEE2
:1021F00000210C20FFF7C2FE00210D20FFF7BEFEDC
:1022000000210F20FFF7BAFE00211020FFF7B6FED5
:1022100007211120FFF7B2FE00211220FFF7AEFECA
:1022200000211320FFF7AAFEC820FEF7C1FA41F2F1
:1022300090611020FFF7A2FE40F227211120FFF746
:102240009DFE3220FEF7B4FA1D211220FFF796FE04
:102250003220FEF7ADFA4FF400611320FFF78EFE37
:1022600014212920FFF78AFE0B212B20FFF786FE81
:102270003220FEF79DFA00212020FFF77FFE00218B
:102280002120FFF77BFE07213020FFF777FE40F289
:1022900007713120FFF772FE06213220FFF76EFE34
:1022A00040F204713520FFF769FE41F604713620D3
:1022B000FFF764FE04213720FFF760FE002138207D
:1022C000FFF75CFE40F206713920FFF757FE40F23F
:1022D00001713C20FFF752FE0F213D20FFF74EFE1B
:1022E00000215020FFF74AFEEF215120FFF746FE64
:1022F00000215220FFF742FE40F23F115320FFF72A
:102300003DFE4FF41C516020FFF738FE0121612093
:10231000FFF734FE00216A20FFF730FE0021802005
:10232000FFF72CFE00218120FFF728FE00218220EC
:10233000FFF724FE00218320FFF720FE00218420E8
:10234000FFF71CFE00218520FFF718FE10219020CA
:10235000FFF714FE00219220FFF710FE03219320C7
:10236000FFF70CFE4FF488719520FFF707FE002160
:102370009720FFF703FE00219820FFF7FFFD41F2B1
:1023800018010320FFF7FAFDBDE8104040F2731179
:102390000720FFF7F3BD000008B1044801E003483F
:1023A0001030016841F04001016070471804004896
:1023B00010B580210348FEF731FB012800D0002032
:1023C00010BD00000004004800B585B01421684627
:1023D000FEF772F88020009000200190012002900A
:1023E0000220039069460248FEF7F4F905B000BDEB
:1023F0000004004808B1044801E0034810300168B7
:1024000041F08001016070471804004800B585B0B4
:1024100014216846FEF750F88020009011200190AA
:10242000002002900220039069460248FEF7D2F98C
:1024300005B000BD000400487047FEF7FBBA00B5C8
:1024400093B038216846FEF737F814210EA8FEF73E
:1024500033F84FF40070FEF77FFB0220C1010391B7
:10246000402104910121CDE9080100900A21CDE924
:102470000A1007900C900D906846FEF75FFE08B1B9
:1024800072B6FEE70F200E9003200F9000201090F0
:102490001190129002210EA8FEF708FD002801D02D
:1024A00072B6FEE713B000BD0248016841F4700146
:1024B0000160704788ED00E030B5416EB9B1026847
:1024C00091689268C1F342610B4B520F9C5CE5002E
:1024D00003F10804A25CB5FBF2F2A0F86A205A5C92
:1024E000615CD200B2FBF1F1A0F8681030BD0121AF
:1024F000A0F86A10F8E70000962A000890F8281063
:10250000090706D501684A68836B22F400421A4322
:102510004A6090F82810C90706D001684A68C36A63
:1025200022F400321A434A6090F82810890706D531
:1025300001684A68036B22F480321A434A6090F8BB
:102540002810490706D501684A68436B22F48022A7
:102550001A434A6090F82810C90606D501688A68AF
:10256000C36B22F480521A438A6090F828108906BF
:1025700006D501688A68036C22F400521A438A6007
:1025800090F82810490611D501684A68436C22F476
:1025900080121A434A60416CB1F5801F06D1016870
:1025A0004A68836C22F4C0021A434A6090F82810EB
:1025B000090606D501684A68C06C22F4002202436D
:1025C0004A6070472DE9F84300260446C0F8906041
:1025D000FEF72AFA8046206800684FF020050007C1
:1025E0006FF07E4713D5434600222904204600970A
:1025F00000F0ACF958B1216851E8000F20F08000DC
:1026000041E80002002AF6D1C4F8885021E0206891
:102610000068400722D5434600224FF4800120463F
:10262000009700F093F9C8B1216851E8000F20F439
:10263000907041E80002002AF6D12068083050E886
:10264000001F21F0010140E80012002AF5D1C4F872
:102650008C5084F884600320BDE8F883C4F8885067
:10266000C4F88C5044F86C6F666026760020F3E75F
:1026700010B5806A0021A0F85E10A0F85610FEF791
:10268000E2FF10BD10B5026852E8001F21F49071FE
:1026900042E80013002BF6D10E4B0268083252E8D4
:1026A000001F194042E80014002CF6D1C16E012928
:1026B00008D1016851E8002F22F0100241E8002300
:1026C000002BF6D12021C0F88C100021C166416793
:1026D00010BD0000FEFFFFEF2DE9F0410446016848
:1026E00080682269E3691043626900251A43104338
:1026F000DFF82CC20A688B4B1A4002430A6020683C
:102700004168E26821F44051114341602168A069A9
:10271000614501D0226A10438A68834B1A40024304
:102720008A602068C16A626A21F00F011143C162A8
:102730007E4923687E488B420DD1D0F8880010F086
:10274000030006D0012855D0022842D003283FD1EB
:1027500052E001203DE077498B420BD1D0F8880050
:1027600010F00C0035D0042833D0082840D00C28B5
:102770002ED141E070498B420BD1D0F8880010F087
:10278000300026D0102835D0202831D030281FD155
:1027900032E06A498B420BD1D0F8880010F0C000BB
:1027A00017D0402826D0802822D0C02810D123E07E
:1027B00063450DD1D0F8880010F4406009D0B0F521
:1027C000806F17D0B0F5006F12D0B0F5406F13D006
:1027D00010205B495B4F00264FF4004263453BD11C
:1027E00060B1022813D004280BD0082872D10DE064
:1027F0000220EEE70420ECE70820EAE7FEF744FCBD
:1028000001E0FEF765FC010001D17CE01146606A41
:1028100037F810206768B1FBF2F007EB47038342FB
:1028200070D8B0EB073F6DD8002308461946FDF776
:1028300047FD090241EA106102027808101871414F
:102840003A460023FDF73CFD3F4AA0F54071914216
:1028500058D82168C86056E0E3694FF6EF78934294
:102860002CD109284ED2DFE800F00508114D0D4D9E
:102870004D4D1000FEF708FC01E0FEF717FC0100CB
:1028800004D140E0FEF724FCF9E71146606A37F80E
:102890001000B1FBF0F04100606801EB5001B1FBAA
:1028A000F0F0A0F1100141452CD84FF6F071014035
:1028B000C0F3420001432068C16024E0092821D20E
:1028C000DFE800F0050912200E2020201100FEF79D
:1028D000DBFB02E016E0FEF7E9FB010004D112E0A9
:1028E000FEF7F6FBF9E71146606A37F81000B1FB16
:1028F000F0F1606801EB5001B1FBF0F0A0F11001C4
:1029000041450AD901250120A4F86A0024F8680F7E
:102910002846E6602661BDE8F08180B299E70000B4
:1029200000800040F369FFCFFFF4FF110038014041
:10293000001002400044004000480040004C0040AD
:102940000024F4007E2A0008FFFC0F002DE9F04768
:10295000994617460D4604464FF00008089E33E09E
:10296000701C31D0FEF760F8A0EB0900B04218D817
:10297000BEB120680168490726D5802D24D0402D9E
:1029800022D0C169C94309070DD408250562204634
:10299000FFF778FEC4F8905084F884800120BDE8E9
:1029A000F0870320FBE7C069C04300050CD4216811
:1029B0004FF4006008622046FFF764FE2020C4F850
:1029C000900084F88480ECE72068C06935EA000054
:1029D00004D00020B842C3D00020E0E70120F9E78E
:1029E0000148FEF731BE000018000020FEE709078D
:1029F000090E002804DB00F1E02080F80014704785
:102A000000F00F0000F1E02080F8141D7047002155
:102A100000E0491C8142FCD37047000086B0FEF7FD
:102A200011F8FFF70CFDFFF7DFFAFFF7F3FAFFF7F6
:102A3000D1F90020FFF714F90020FFF72BFA4FF629
:102A4000FF70FFF727FAFFF703F80020FDF71FFEDE
:102A5000024604A16846FDF7ABFC69464820FFF733
:102A60006DF9FEE72020646174613A25642020201E
:102A7000200000004FF04070E1EE100A70470100A6
:102A800002000400060008000A000C0010002000EC
:102A9000400080000001010101030701000008045B
:102AA0000204080101010000000000000000010212
:102AB00003040607080900000000010203040000E7
:102AC0000000000000000000000000000000000006
:102AD00000000000000000000000000000000000F6
:102AE00000000000000000000000000000000000E6
:102AF00080018001800180018001800180018001CE
:102B000080018001800180018001000000008001BF
:102B10008001000000000000000000000000000034
:102B20000000CC00CC00CC00CC00CC00CC000000DD
:102B30000000000000000000000000000000000095
:102B40000000000000000000000000000000000085
:102B500000000000000000000000600C600C600C31
:102B600030063006FE1FFE1F300638071803FE1F12
:102B7000FE1F180318038C018C018C01000000005B
:102B80008000E003F80F9C0E8C1C8C188C009800C1
:102B9000F801E007800E801C8C188C189C18B80C6B
:102BA000F00FE00380008000000000000000000043
:102BB000000000000E181B0C110C11061106110369
:102BC00011039B018E01C038C06C604460443044E6
:102BD00030441844186C0C3800000000000000005D
:102BE000E001F0033807180618063003F001F00082
:102BF000F8009C310E33061E061C061C063FFC73B3
:102C0000F0210000000000000000000000000000B3
:102C100000000C000C000C000C000C000C0000006C
:102C200000000000000000000000000000000000A4
:102C30000000000000000000000000000000000094
:102C4000000200038001C000C0006000600030008E
:102C500030003000300030003000300030006000C4
:102C60006000C000C00080010003000200000000FE
:102C700020006000C0008001800100030003000606
:102C80000006000600060006000600060006000317
:102C9000000380018001C0006000200000000000EF
:102CA00000000000000000000000C000C000D806C6
:102CB000F807E001300338070000000000000000C2
:102CC0000000000000000000000000000000000004
:102CD0000000000000000000000080018001800171
:102CE00080018001FC3FFC3F800180018001800168
:102CF0008001000000000000000000000000000053
:102D000000000000000000000000000000000000C3
:102D100000000000000000000000000000000000B3
:102D2000800180010001000180000000000000001F
:102D30000000000000000000000000000000000093
:102D4000000000000000E007E007000000000000B5
:102D50000000000000000000000000000000000073
:102D60000000000000000000000000000000000063
:102D70000000000000000000000000000000000053
:102D8000C000C000000000000000000000000000C3
:102D9000000C000C00060006000600030003000300
:102DA0008003800180018001C000C000C00060007D
:102DB00060000000000000000000000000000000B3
:102DC000E003F007380E180C0C180C180C180C182F
:102DD0000C180C180C180C180C18180C380EF007DE
:102DE000E003000000000000000000000000000000
:102DF00000018001C001F00198018801800180017B
:102E000080018001800180018001800180018001BA
:102E10008001000000000000000000000000000031
:102E2000E003F80F180C0C180C1800180018000C10
:102E3000000600038001C000600030001800FC1F85
:102E4000FC1F000000000000000000000000000067
:102E5000E001F807180E0C0C0C0C000C0006C00367
:102E6000C007000C001800180C180C18180CF807F4
:102E7000E00300000000000000000000000000006F
:102E8000000C000E000F000F800DC00C600C600CD9
:102E9000300C180C0C0CFC3FFC3F000C000C000C20
:102EA000000C000000000000000000000000000016
:102EB000F80FF80F180018000C00EC03FC071C0EAC
:102EC000001C0018001800180C181C0C180EF8072D
:102ED000E00300000000000000000000000000000F
:102EE000C007F00F381C181818000C00CC03EC0FAA
:102EF0003C0E1C1C0C180C180C18181C380EF00773
:102F0000E0030000000000000000000000000000DE
:102F1000FC1FFC1F000C000600060003800380015C
:102F2000C001C000E00060006000700030003000B0
:102F30003000000000000000000000000000000061
:102F4000E003F007380E180C180C180C3806F007C0
:102F5000F007180C0C180C180C180C18380CF80F7B
:102F6000E00300000000000000000000000000007E
:102F7000E003F007380E1C0C0C180C180C181C1C65
:102F8000381EF81BE0190018000C000C1C0EF80786
:102F9000F001000000000000000000000000000040
:102FA000000000000000000000008001800100001F
:102FB0000000000000000000000000000000800190
:102FC0008001000000000000000000000000000080
:102FD00000000000000000000000800180010000EF
:102FE0000000000000000000000000000000800160
:102FF00080010001000180000000000000000000CE
:1030000000000000000000000000000000000010B0
:10301000001C800FE003F8001800F800E003800FA8
:10302000001C001000000000000000000000000074
:103030000000000000000000000000000000F81F79
:10304000000000000000F81F000000000000000069
:103050000000000000000000000000000000000070
:103060000000000000000000000000000000080058
:103070003800F001C007001F0018001FC007F00152
:103080003800080000000000000000000000000000
:10309000E003F80F180C0C180C180018000C0006B0
:1030A00000038001C000C000C00000000000C0009C
:1030B000C000000000000000000000000000000050
:1030C0000000E00718180420C229224A11440944CC
:1030D0000944094409221113E20C02400420181883
:1030E000E0070000000000000000000000000000F9
:1030F00080038003C006C006C006600C600C301858
:1031000030183018F83FF83F1C700C600C6006C097
:1031100006C00000000000000000000000000000E9
:10312000FC03FC0F0C0C0C180C180C180C0CFC07F6
:10313000FC0F0C180C300C300C300C300C18FC1F31
:10314000FC0700000000000000000000000000007C
:10315000C007F01F38381C300C70066006000600EF
:10316000060006000600060006600C701C30F01F0A
:10317000E007000000000000000000000000000068
:10318000FE03FE0F060E061806180630063006303F
:10319000063006300630063006180618060EFE0FFA
:1031A000FE0300000000000000000000000000001E
:1031B000FC3FFC3F0C000C000C000C000C00FC1F42
:1031C000FC1F0C000C000C000C000C000C00FC3F61
:1031D000FC3F0000000000000000000000000000B4
:1031E000F83FF83F18001800180018001800F81FE2
:1031F000F81F180018001800180018001800180010
:1032000018000000000000000000000000000000A6
:10321000E00FF83F3C780E6006E007C003000300B3
:1032200003FE03FE03C007C006C00EC03CF0F83F1B
:10323000E00F00000000000000000000000000009F
:103240000C300C300C300C300C300C300C30FC3F9F
:10325000FC3F0C300C300C300C300C300C300C308F
:103260000C30000000000000000000000000000022
:103270008001800180018001800180018001800146
:103280008001800180018001800180018001800136
:1032900080010000000000000000000000000000AD
:1032A00000060006000600060006000600060006EE
:1032B0000006000600060006180618063807F00388
:1032C000E00100000000000000000000000000001D
:1032D00006300618060C060606038601C6006600C0
:1032E0007600DE008E0106030606060C0618063080
:1032F0000660000000000000000000000000000068
:1033000018001800180018001800180018001800FD
:103310001800180018001800180018001800F81FEE
:10332000F81F000000000000000000000000000086
:103330000EE01EF01EF01EF036D836D836D836D83D
:1033400066CC66CC66CCC6C6C6C6C6C6C6C686C36E
:1033500086C3000000000000000000000000000024
:103360000C301C303C303C306C306C30CC30CC30CD
:103370008C310C330C330C360C360C3C0C3C0C38BA
:103380000C30000000000000000000000000000001
:10339000E007F81F1C380E70066003C003C003C0AE
:1033A00003C003C003C003C006600E701C38F81FC2
:1033B000E007000000000000000000000000000026
:1033C000FC0FFC1F0C380C300C300C300C300C187F
:1033D000FC1FFC070C000C000C000C000C000C0087
:1033E0000C000000000000000000000000000000D1
:1033F000E007F81F1C380E70066003E003C003C02E
:1034000003C003C003C007E006630E3F1C3CF83F47
:10341000E0F700C000000000000000000000000015
:10342000FE0FFE1F06380630063006300638FE1F37
:10343000FE0706030606060C0618061806300630B8
:103440000660000000000000000000000000000016
:10345000E003F80F1C0C0C180C180C001C00F803EF
:10346000E00F001E0038063006300E301C1CF80F2E
:10347000E007000000000000000000000000000065
:10348000FE7FFE7F8001800180018001800180013C
:103490008001800180018001800180018001800124
:1034A000800100000000000000000000000000009B
:1034B0000C300C300C300C300C300C300C300C302C
:1034C0000C300C300C300C300C300C301818F81F4D
:1034D000E007000000000000000000000000000005
:1034E00003600630063006300C180C180C18180C47
:1034F000180C380E30063006700760036003C001F8
:10350000C0010000000000000000000000000000FA
:103510000360C361C361C361663366336633663378
:10352000663366336C1B6C1B6C1B2C1A3C1E380EEE
:10353000380E000000000000000000000000000045
:103540000FE00C7018303018700C600EC00780034C
:103550008003C003E006700C301C18180C300E609D
:1035600007E0000000000000000000000000000074
:1035700003C006600C301C383818300C6006E007B9
:10358000C0038001800180018001800180018001F1
:1035900080010000000000000000000000000000AA
:1035A000FC7FFC7F006000300018000C0006000368
:1035B0008001C0006000300018000C000600FE7F93
:1035C000FE7F00000000000000000000000000007E
:1035D000E003E003600060006000600060006000E5
:1035E00060006000600060006000600060006000DB
:1035F0006000600060006000E003E0030000000085
:1036000030003000600060006000C000C000C000FA
:10361000C001800180018001000300030003000657
:103620000006000000000000000000000000000094
:10363000E003E003000300030003000300030003B2
:103640000003000300030003000300030003000362
:103650000003000300030003E003E0030000000098
:103660000000C001C0016003600360033006300643
:10367000180C180C00000000000000000000000002
:10368000000000000000000000000000000000003A
:10369000000000000000000000000000000000002A
:1036A000000000000000000000000000000000001A
:1036B000FFFFFFFF0000000000000000000000000E
:1036C0000C000C000C000C000C000C0000000000B2
:1036D00000000000000000000000000000000000EA
:1036E00000000000000000000000000000000000DA
:1036F00000000000000000000000F003F8071C0CB0
:103700000C0C000FF00FF80C0C0C0C0C1C0FF80F2D
:10371000F0180000000000000000000000000000A1
:1037200018001800180018001800D803F80F380CFB
:10373000181818181818181818181818380CF80F1E
:10374000D80300000000000000000000000000009E
:1037500000000000000000000000C003F007300E71
:10376000180C1800180018001800180C300EF0077C
:10377000C003000000000000000000000000000086
:1037800000180018001800180018C01BF01F301C8B
:10379000181818181818181818181818301CF01FAE
:1037A000C01B00000000000000000000000000003E
:1037B00000000000000000000000C003F00F300C0B
:1037C0001818F81FF81F180018003818301CF00FD0
:1037D000C007000000000000000000000000000022
:1037E000800FC00FC000C000C000F007F007C0008D
:1037F000C000C000C000C000C000C000C000C000C9
:10380000C0000000000000000000000000000000F8
:1038100000000000000000000000E00DF80F180E8E
:103820000C0C0C0C0C0C0C0C0C0C0C0C180EF80FDB
:10383000E00D000C0C0C1C06F807F0010000000065
:1038400018001800180018001800D807F80F381CC6
:1038500018181818181818181818181818181818E8
:103860001818000000000000000000000000000028
:10387000C000C000000000000000C000C000C00088
:10388000C000C000C000C000C000C000C000C00038
:10389000C000000000000000000000000000000068
:1038A000C000C000000000000000C000C000C00058
:1038B000C000C000C000C000C000C000C000C00008
:1038C000C000C000C000C000F80078000000000088
:1038D0000C000C000C000C000C000C0C0C060C0373
:1038E0008C01CC006C00FC009C018C030C030C06CA
:1038F0000C0C0000000000000000000000000000B0
:10390000C000C000C000C000C000C000C000C000B7
:10391000C000C000C000C000C000C000C000C000A7
:10392000C0000000000000000000000000000000D7
:10393000000000000000000000007C3CFF7EC7E3A8
:1039400083C183C183C183C183C183C183C183C157
:1039500083C1000000000000000000000000000023
:10396000000000000000000000009807F80F381C5D
:1039700018181818181818181818181818181818C7
:103980001818000000000000000000000000000007
:1039900000000000000000000000C003F00F300C29
:1039A000181818181818181818181818300CF00FBC
:1039B000C003000000000000000000000000000044
:1039C00000000000000000000000D803F80F380CD1
:1039D000181818181818181818181818380CF80F7C
:1039E000D803180018001800180018000000000084
:1039F00000000000000000000000C01BF01F301C91
:103A0000181818181818181818181818301CF01F3B
:103A1000C01B001800180018001800180000000053
:103A200000000000000000000000B007F00370007C
:103A30003000300030003000300030003000300006
:103A40003000000000000000000000000000000046
:103A500000000000000000000000E003F003380E4A
:103A6000180C3800F003C007000C180C380EF007D3
:103A7000E003000000000000000000000000000063
:103A800000008000C000C000C000F007F007C000C8
:103A9000C000C000C000C000C000C000C000C0071F
:103AA000800700000000000000000000000000008F
:103AB0000000000000000000000018181818181876
:103AC000181818181818181818181818381CF01F73
:103AD000E0190000000000000000000000000000ED
:103AE000000000000000000000000C18180C180C6A
:103AF000180C300630063006600360036003C00116
:103B0000C0010000000000000000000000000000F4
:103B100000000000000000000000C141C141C3617D
:103B20006363636363633636363636361C1C1C1C8F
:103B30001C1C00000000000000000000000000004D
:103B4000000000000000000000001C38381C300C91
:103B5000600660036003600360036006300C381C7D
:103B60001C38000000000000000000000000000001
:103B7000000000000000000000001830301830186D
:103B80007018600C600CE00CC006C0068003800357
:103B9000800380018001C001F0007000000000007F
:103BA00000000000000000000000FC1FFC1F000CD3
:103BB000000600038001C000600030001800FC1FF8
:103BC000FC1F0000000000000000000000000000DA
:103BD00000038001C000C000C000C000C000C000E1
:103BE00060006000300060004000C000C000C00005
:103BF000C000C000C0008001000300000000000001
:103C000080018001800180018001800180018001AC
:103C1000800180018001800180018001800180019C
:103C2000800180018001800180018001000000008E
:103C30006000C000C001800180018001800180011E
:103C400000030003000600030001800180018001E1
:103C5000800180018001C0006000000000000000C1
:103C60000000000000000000000000000000F01054
:103C7000F81F080F00000000000000000000000016
:103C80000000000000000000000000000000000034
:103C9000B03C0008000000201800000014020008DA
:103CA000C83C000818000020F80600003002000898
:103CB0001000000001000000000000000024F400DB
:083CC0000000FFFF00000000FE
:04000005080001D915
:00000001FF
