:020000040800F2
:1000000030070020810200089F1F0008A31A000883
:100010009D1F00087F0500085B2800080000000005
:10002000000000000000000000000000B7220008EF
:100030008105000800000000A11F0008B922000887
:100040009B0200089B0200089B0200089B0200081C
:100050009B0200089B0200089B0200089B0200080C
:100060009B0200089B0200089B0200089B020008FC
:100070009B0200089B0200089B0200089B020008EC
:100080009B020008000000009B0200089B02000881
:100090009B0200089B0200089B0200089B020008CC
:1000A0009B0200089B020008392300089B020008FD
:1000B0009B0200089B0200089B0200089B020008AC
:1000C0009B0200089B0200089B0200089B0200089C
:1000D0009B0200089B0200089B0200089B0200088C
:1000E0009B0200089B0200089B0200089B0200087C
:1000F0009B0200089B0200089B0200080000000011
:10010000000000009B020008000000009B020008A5
:100110009B020008000000009B0200089B020008F0
:100120009B0200089B0200089B0200089B0200083B
:100130009B02000800000000000000009B02000875
:100140009B0200089B020008000000000000000065
:10015000000000000000000000000000000000009F
:100160000000000000000000000000009B020008EA
:100170009B020008000000000000000000000000DA
:10018000000000009B0200080000000000000000CA
:10019000000000000000000000000000000000005F
:1001A00000000000000000009B0200089B02000805
:1001B0009B0200089B0200089B0200080000000050
:1001C000000000009B02000800000000000000008A
:1001D0009B0200089B02000800F002F800F041F8C2
:1001E0000AA090E8000C82448344AAF10107DA4592
:1001F00001D100F036F8AFF2090EBAE80F0013F0A3
:10020000010F18BFFB1A43F00103184728390000FB
:1002100048390000103A24BF78C878C1FAD852078C
:1002200024BF30C830C144BF04680C607047000070
:100230000023002400250026103A28BF78C1FBD8EF
:10024000520728BF30C148BF0B607047642900F0D7
:100250007F80002070471FB502F076FB1FBD10B5F0
:1002600010BD00F052F91146FFF7F5FF02F032FB26
:1002700000F070F903B4FFF7F2FF03BC00F078F967
:100280000948804709480047FEE7FEE7FEE7FEE72A
:10029000FEE7FEE7FEE7FEE7FEE7FEE70448054966
:1002A000054A064B7047000029230008D9010008C1
:1002B00030010020300700203003002030030020F0
:1002C0000FB41CB5074B06AA7B44694600900598FD
:1002D00000F003F90020694600F012F91CBC5DF83B
:1002E00014FB0000350200002DE9F0410E460446E3
:1002F000002020622046E168884730B3252805D0D9
:10030000D4E901219047206A401CF2E7E1682046C9
:1003100000278847050018D0A5F14100192802D808
:1003200020354FF400673246294620462760FFF704
:100330008DFF40B1012804D0F61D26F007060836CF
:10034000D8E7361DD6E72846DAE7206ABDE8F0810F
:100350002DE9F0410646002410687529314616A59E
:1003600010D0AFF30080002802DA404213A507E066
:1003700031688A0701D512A502E0490704D511A505
:10038000012401E0AFF3008000210A2206F12407D6
:1003900009E0B0FBF2FCB0FBF2F302FB1C003030D2
:1003A00078541846491C0028F3D123462A46304683
:1003B000BDE8F04100F032B8000000002D00000060
:1003C0002B000000200000004FF0000200B5134693
:1003D00094469646203922BFA0E80C50A0E80C5065
:1003E000B1F12001BFF4F7AF090728BFA0E80C5016
:1003F00048BF0CC05DF804EB890028BF40F8042B0F
:1004000008BF704748BF20F8022B11F0804F18BF7B
:1004100000F8012B70477047704770472DE9F0478F
:100420000D4699469246044600F124080168880664
:1004300004D5E06921F01001216000E00120A8420C
:1004400001DD471B00E00027A1697A1902EB0900D2
:10045000081AA0612078C00602D42046AFF30080BD
:10046000002608E0D4E901211AF806009047206A26
:10047000401C761C20624E45F4DB2078C0060AD56D
:100480002046AFF3008006E0D4E9012130209047F8
:10049000206A401C2062381EA7F10107F4DC07E047
:1004A000D4E9012118F805009047206A401C206219
:1004B000281EA5F10105F3DC2046AFF3008020786B
:1004C000000602D50220BDE8F0870120FBE700000E
:1004D00001694A1C02610878704700B58FB0CDE908
:1004E00001310021059105497944CDE903101146F8
:1004F0006846FFF7F9FE0FB000BD0000E5FFFFFF03
:100500000A6802F8010B0A607047754600F02CF883
:10051000AE4605006946534620F00700854618B0F0
:1005200020B5FFF7BBFEBDE820404FF000064FF0BE
:1005300000074FF000084FF0000B21F00701AC4618
:10054000ACE8C009ACE8C009ACE8C009ACE8C00937
:100550008D46704710B50446AFF300802046BDE8D5
:100560001040FFF787BE000000487047CC00002015
:1005700001491820ABBEFEE7260002007047FEE7E7
:100580007047002240F6B83306E00021491C89B2CA
:100590009942FBD3521C92B28242F6D370470000BC
:1005A00070B5044600F032F90546601C02D00448DC
:1005B0004068044400F02AF9401BA042FAD370BD01
:1005C000000000202DE9F04FDFF8209200230126E3
:1005D0000324A9F1040B85B00F2709F1040AABF13C
:1005E000040EFAE006FA03F52A407CD091F804C024
:1005F0000CF0030CBCF1010F02D0BCF1020F26D1AC
:10060000D0F808C0CDF800C04FEA430C04FA0CF84B
:10061000CDF810C0DDF800C02CEA080CCDF800C001
:10062000D1F80C80DDF810C008FA0CF8DDF800C035
:1006300048EA0C08C0F80880D0F804C02CEA050C81
:100640000D79C5F300159D4045EA0C0545600D790F
:10065000ED43AD070ED0C5684FEA430804FA08FC25
:1006600025EA0C05D1F808C00CFA08FC4CEA050C88
:10067000C0F80CC00D7905F00305022D16D1DD0878
:1006800000EB850CCDF808C0DCF820805D074FEA50
:10069000D56C07FA0CF528EA05080D6905FA0CF582
:1006A000DDF808C045EA0805CCF8205005684FEA97
:1006B000430CCDF808C004FA0CFC25EA0C0591F8AF
:1006C00004C00CF00308DDF808C008FA0CF848EA8A
:1006D0000508C0F800804D6815F4403F7CD0444DBB
:1006E000D5F860C000E077E04CF0010CC5F860C0C0
:1006F0002D6E23F0030C05F0010500953D4D65447A
:100700000295AD684FEA837C4FEA1C7807FA08FC33
:1007100025EA0C05B0F1904F06D0DFF8DCC060454B
:1007200005D14FF0010C20E04FF0000C1DE0DFF888
:10073000CCC0604502D14FF0020C16E0DFF8C0C01B
:10074000604502D14FF0030C0FE0DFF8B8C0604500
:1007500002D14FF0040C08E0DFF8ACC0604502D1D4
:100760004FF0050C01E04FF0060C0CFA08FC4CEAC7
:10077000050C029DC5F808C0D9F80050CC46D1F848
:10078000048095435FEAC82800D51543CCF8005093
:10079000DAF80050D446D1F8048095435FEA8828FF
:1007A00000D51543CCF80050DBF80050DC46D1F8FA
:1007B000048095435FEA883800D51543CCF8005093
:1007C000DEF80050F446D1F8048095435FEAC8385B
:1007D00000D51543CCF800505B1C0A6832FA03F5CB
:1007E0007FF400AF05B0BDE8F08F000008040140C1
:1007F00000100240000001400004004800080048CA
:10080000000C0048001000480014004801488068AF
:1008100070470000000000200248816842681144CF
:10082000816070470000002010B50024032000F014
:1008300073F80F2000F008F808B1012401E000F07F
:1008400025F8204610BD000070B50E4E0546002468
:10085000706898B14FF47A71B1FBF0F00A490968F9
:10086000B1FBF0F000F0F6FB40B9102D06D20022EB
:100870002946501E00F030F8356000E00124204683
:1008800070BD0000000000200C0000200A4882B06B
:10089000016E41F001010166016E01F0010100915C
:1008A000816D41F080518165806D00F08050009035
:1008B00002B000F0A1B8000000100240002809DBDF
:1008C00000F01F02012191404009800000F1E0206A
:1008D000C0F8001170470000F0B40E4B1B680C46C6
:1008E000C3F30223C3F10705042D00D90425191D04
:1008F000072901D2002300E0DB1E012606FA05F1DC
:10090000491E214099409E40761E16403143F0BC5E
:1009100001F0A4BF0CED00E0064900F007020868F2
:100920004FF6FF03184040EA0220034A10430860D4
:10093000704700000CED00E00000FA052B492C4B3D
:100940000A6832214A432B4940B1B0F5007F08685C
:1009500029D020F4C06040F480602CE00868C0F327
:100960004120022804D051F8800F20F4807022E04A
:10097000D1F8800020F48070C1F88000086820F46D
:10098000C06040F400700860B2FBF3F0401C00E06F
:10099000401E4A69520501D50028F9D14869400531
:1009A0000AD503207047C0F34120022806D051F831
:1009B000800F40F48070086000207047D1F88000FC
:1009C00040F48070C1F88000086820F4C06040F4F2
:1009D00000700860B2FBF3F0401C00E0401E4A6962
:1009E0005205DBD50028F9D1D8E700000C00002023
:1009F00040420F00007000400248816841F480418D
:100A000081607047007000402DE9F0470E460500F8
:100A10004FF0000725D0DFF8AC81D8F8000000F0D7
:100A20000F00B0420CD2D8F8001021F00F01314372
:100A3000C8F80010D8F8000000F00F00B04210D144
:100A40002968614CC80741F2883A5AD06868DFF8D3
:100A50007C91032808D0022820682DD0400500286A
:100A60002CDB0120BDE8F08720688001F9D5E06823
:100A700000F00302E068C0F30310401C032A19D001
:100A8000534A00BFB2FBF0F0E268C2F306225043C3
:100A9000E268C2F34162521C5200B0FBF2F04845DA
:100AA00017D9A06810F0F00F0CD0880711D5A868EE
:100AB00040B10EE0474AE5E78003D0E700F092F846
:100AC000484506D9A06820F0F00040F08000A06002
:100AD0008027A068696820F003000843A060FFF742
:100AE00095FE814606E000BFFFF790FEA0EB0901EE
:100AF00051453AD8A068696800F00C00B0EB810F4E
:100B0000F2D12868810714D5400703D5A06840F4C6
:100B1000E060A0602878000705D5A06820F4605048
:100B200040F4E060A060A068A96820F0F0000843ED
:100B300004E0802F03D1A06820F0F000A060D8F876
:100B40000010404601F00F01B14216D9016821F0B2
:100B50000F0131430160FFF759FE074607E000BF70
:100B6000FFF754FEC11B514501D903207AE7D8F89D
:100B7000000000F00F00B042F2D12878400705D500
:100B8000A068E96820F4E0600843A06028780007C6
:100B900006D5A068296920F4605040EAC100A06031
:100BA00000F020F8A1680C4AC1F30311515C01F078
:100BB0001F01C8400949086009480068BDE8F047BE
:100BC000FFF742BE002002400010024000B4C404FF
:100BD0000024F40000127A00522900080C000020C2
:100BE00000000020184910B58868C0F3810217483A
:100BF000012A0BD08A684310C2F38102022A06D070
:100C00008A68C2F38102032A03D0002010BD18466F
:100C100010BDCA6802F00304CA68C2F30312521C72
:100C2000032C02D0B0FBF2F001E0B3FBF2F0CA6893
:100C3000C968C2F306225043C1F34161491C49000F
:100C4000B0FBF1F010BD0000001002400024F400E1
:100C50002DE9F84304007AD02078F84DC00747D03A
:100C6000A868E96800F00C0001F003010C2802D02C
:100C7000082817D001E0032914D06068B0F5803F40
:100C800017D0B0F5A02F286817D020F48030286046
:100C9000286820F4802028606068E0B1FFF7B6FD86
:100CA000064614E02868800322D560680028D2D068
:100CB0001EE0286840F48030EDE740F48020286092
:100CC000F7E700BFFFF7A2FD801B642870D82868F3
:100CD0008003F7D50CE0FFF799FD064605E000BF5D
:100CE000FFF794FD801B6428F0D828688003F7D4B0
:100CF000207880074CD5A868E96800F00C0001F066
:100D000003010C2802D004280DD001E002290AD0EA
:100D1000E068002828682BD040F480702860FFF736
:100D200075FD064619E02868400502D5E0680028F0
:100D300091D06868217C20F0FE4040EA0160686044
:100D4000BF480068FFF780FD002800D120E072E175
:100D5000FFF75CFD801B0228B8D828684005F7D54E
:100D60006868217C20F0FE4040EA016068600FE086
:100D700020F480702860FFF749FD064605E000BFBB
:100D8000FFF744FD801B0228A0D828684005F7D44F
:100D90002078000729D560690028D5F8940013D081
:100DA00040F00100C5F89400FFF730FD064606E06C
:100DB00090E000BFFFF72AFD801B022886D8D5F8F7
:100DC00094008007F6D510E020F00100C5F89400EB
:100DD000FFF71CFD064604E0FFF718FD801B022804
:100DE00078D8D5F894008007F6D42078400761D5EC
:100DF000A86D0026C00008D4A86D40F08050A865FA
:100E0000A86D012600F0805000908E480168C90549
:100E100011D40168804641F480710160FFF7F6FC4F
:100E2000074604E0FFF7F2FCC01B022852D8D8F8AE
:100E30000000C005F6D5A068012815D00528D5F812
:100E4000900016D020F00100C5F89000D5F8900071
:100E500020F00400C5F89000A06841F28838B8B1CD
:100E6000FFF7D4FC07460EE0D5F8900040F00100F3
:100E7000F0E740F00400C5F89000F5E7FFF7C6FC86
:100E8000C11B414526D8D5F890008007F6D50CE067
:100E9000FFF7BCFC074604E0FFF7B8FCC11B414567
:100EA00018D8D5F890008007F6D41EB1A86D20F0B0
:100EB0008050A8652078800629D5A0690028D5F83B
:100EC000980013D040F00100C5F89800FFF79EFC91
:100ED000064606E075E000BFFFF798FC801B02287D
:100EE0006FD8D5F898008007F6D510E020F0010003
:100EF000C5F89800FFF78AFC064604E0FFF786FC79
:100F0000801B02285DD8D5F898008007F6D4E069E8
:100F1000F0B3A968C1F3810103295DD002282868D4
:100F200020F08070286003D0FFF770FC04464BE08F
:100F3000FFF76CFC064604E0FFF768FC801B022804
:100F40003FD828688001F7D4F4E908016FF00F0258
:100F500002EB01110843218A5204490802EB415176
:100F6000A26841EA02210843217D4FF07E424908F0
:100F700002EB41610843217B40EAC160E968324AE3
:100F800011400843E860286840F08070286000E065
:100F90005EE0E86840F08070E860FFF737FC0446E8
:100FA00005E000BFFFF732FC001B022809D82868C3
:100FB0008001F7D54CE000BFFFF728FC001B02289A
:100FC00002D90320BDE8F88328688001F4D4E868DA
:100FD0001E490840E8603BE00128F3D0E868226A37
:100FE00000F00301914226D1616A00F0F00209018C
:100FF000103991421FD1A26A00F4FE41B1EB022FD9
:1010000019D194F82C2000F07841B1EBC26F12D1C5
:10101000218E00F4C00249084905A1F50011914252
:1010200009D194F8341000F0C06049084906A1F1D4
:10103000007181420CD00120C4E700000010024082
:1010400000000020007000400C809F01FCFFEEFEBD
:101050000020B7E710B5401EB0F1807F01D301201A
:1010600010BD4FF0E02460610F21601701F0F6FB26
:101070000020A06107202061002010BD704770474C
:101080007047704770477047F0B590F83C20012AD0
:101090003AD0012580F83C50022280F83D200368B8
:1010A0005A689C68194E1A4FB34201D0BB4204D112
:1010B00022F4700C4A6842EA0C02DFF858C002EAD7
:1010C0000C02D1F800C04CEA020CC3F804C002685C
:1010D000B2420DD0B2F1804F0AD00F4B9A4207D0E6
:1010E0000E4B9A4204D0BA4202D00D4B9A4204D120
:1010F000896824F080031943916080F83D500021F5
:1011000080F83C100846F0BD0220F0BD002C0140E4
:10111000003401408FFFFFFD000400400008004044
:1011200000400140704710B5040003D094F83D0022
:1011300010B107E0012010BD002084F83C002046DB
:1011400000F022F8022084F83D00211D206801F003
:10115000F9F8012084F8480084F83E0084F83F0044
:1011600084F8400084F8410084F8420084F8430089
:1011700084F8440084F8450084F8460084F8470069
:1011800084F83D00002010BD10B586B0044614213F
:101190006846FFF719F921681B48B1F1804F29D043
:1011A0001A4A914224D1016E41F480210166016EF8
:1011B00001F480210591C16C41F00101C164C06C52
:1011C000694600F001000590802000900220019007
:1011D000002002900390012004901004FFF7F2F920
:1011E000002211461A20FFF777FB1A20FFF766FB53
:1011F00006B010BD816D41F001018165806D00F088
:1012000001000590F4E70000001002400048014092
:1012100070B5044690F83C000025012814D0012642
:1012200084F83C60022084F83D0022689068364BC8
:10123000184020F47F409060086870282ED010DCA1
:1012400010F00F0F03D021E04FF0020070BD4FEA05
:101250002012072A1AD2DFE802F0525252524A38BC
:1012600040002A4BC21A984249D009DCB0F5805F91
:101270000DD0B0F5005F1CD0B0F1101F06D13EE0DC
:10128000102A3CD0202A3AD0502A38D0012584F8A0
:101290003D60002084F83C00284670BDCB68D1E951
:1012A0000121206801F0B9F82068816841F07701D8
:1012B00009E0CB68D1E90121206801F0AEF820688F
:1012C000816841F480418160E1E7CA68496820682B
:1012D00001F04EFA5021206806E0CA68496820688B
:1012E00001F08EFA6021206801F0A2F8CFE7CA6809
:1012F0004968206801F03CFA40212068F4E7226840
:1013000001461046F0E7000088FFCEFF20001000E5
:1013100010B50A4A016891420FD1002100F0ABFBE1
:101320000749064B0022243348601A6000EB800016
:10133000044A0001B2FBF0F0086010BD0048014013
:101340001800002000127A002DE9F041054690F8BF
:101350003C0000260C46012810D0012085F83C00F6
:1013600072B1042A1CD0082A2CD00C2A50D0012695
:10137000002085F83C003046BDE8F0810220FBE704
:10138000D4E90012E368286801F004FA286881694A
:1013900021F00C01816128688169A26811430FE086
:1013A000D4E90012E368286801F03CFA28688169F2
:1013B00021F44061816128688169A26841EA0221C3
:1013C0008161D5E72868D4E9002C277B036A016A8C
:1013D00021F480710162C16923F4206321F00301CB
:1013E00041EA0C0121F0F00C39074FF420674CEA78
:1013F000116107EA02221A43C16102622868C169C9
:1014000021F00C01C1612868C169A26811432BE079
:101410002868D4E90021E768036AD0F820C02CF4DA
:10142000805CC0F820C0D0F81CC023F420432CF40A
:10143000407C4CEA012121F4704C4FF6FF7101EA27
:1014400007314FF4204741EA0C0107EA02321A4300
:10145000C16102622868C16921F44061C1612868E4
:10146000C169A26841EA0221C16181E710B50400A7
:1014700003D094F83D0010B107E0012010BD00201A
:1014800084F83C00204600F022F8022084F83D0059
:10149000211D206800F056FF012084F8480084F8E0
:1014A0003E0084F83F0084F8400084F8410084F84E
:1014B000420084F8430084F8440084F8450084F82E
:1014C000460084F8470084F83D00002010BD7047B6
:1014D00030B50446002571B1042911D0082914D073
:1014E0000C2917D0102918D094F8430094F84720FD
:1014F000012817D114E094F83E0094F84420F7E74F
:1015000094F83F0094F84520F2E794F8400094F8EE
:101510004620EDE794F84100E8E794F84200E5E75B
:10152000012A01D0012030BD022079B1042916D052
:1015300008291DD00C2949D010294AD084F843002D
:1015400084F847000C2947D001253DE084F83E008F
:1015500084F844002068C26842F0020210E084F877
:101560003F0084F845002068C26842F0040207E0AA
:1015700084F8400084F846002068C26842F00802FF
:10158000C2600122206800F03BFF164920688842B3
:101590000ED0B0F1804F0BD01349884208D01349C8
:1015A000884205D01249884202D01249884207D1A8
:1015B0008168114A1140062906D0B1F5803F03D059
:1015C000016841F001010160284630BD84F8410006
:1015D000B6E784F84200B3E72068C26842F0100220
:1015E000CEE70000002C014000040040000800404D
:1015F0000034014000400140070001002DE9F041A6
:1016000004460068C66805694FF00007A90713D5AE
:10161000B10711D5F91E016101202077206880698A
:101620008007204602D0FFF773FE04E000F0DEF8EA
:10163000204600F0A0F92777680716D5700714D563
:1016400021686FF00400086102202077206880691B
:1016500010F4407F204602D0FFF75AFE04E000F06D
:10166000C5F8204600F087F92777280715D53007F9
:1016700013D521686FF008000861042020772068E6
:10168000C0698007204602D0FFF742FE04E000F068
:10169000ADF8204600F06FF92777E80616D5F0067A
:1016A00014D521686FF010000861082020772068A9
:1016B000C06910F4407F204602D0FFF729FE04E005
:1016C00000F094F8204600F056F92777E80708D094
:1016D000F00706D021686FF001000861204600F095
:1016E000C9F9280601D4A80408D5300606D5216812
:1016F0006FF4025008612046FFF7C1FCE80508D5E9
:10170000300606D521686FF4807008612046FFF727
:10171000B5FC680608D5700606D521686FF0400054
:101720000861204600F0BCF9A80608D5B00606D529
:1017300021686FF0200008612046FFF7A1FCE80255
:1017400008D5F00206D521686FF4801008612046A4
:10175000FFF798FCA80208D5B00206D521686FF4FF
:10176000001008612046FFF78CFC680208D5700263
:1017700006D521686FF4800008612046FFF783FCDE
:1017800028020AD5300208D521686FF400000861EC
:101790002046BDE8F041FFF7C5BCBDE8F081000080
:1017A00010B586B0044614216846FEF70DFE206889
:1017B000B0F1804F15D10C48C16C41F00101C164FA
:1017C000C06C694600F00100059002200090019075
:1017D000002002900390012004904FF09040FEF70B
:1017E000F1FE06B010BD000000100240704770B559
:1017F000044690F83C0000260D4601280BD001203D
:1018000084F83C000C2A4AD007DC82B1042A20D09C
:10181000082A06D131E0022070BD102A53D0142AC4
:1018200063D00126002084F83C00304670BD20685B
:1018300000F008FE2068816941F00801816120689C
:10184000816921F004018161206881692A6911435D
:1018500011E0206800F044FE2068816941F40061D5
:1018600081612068816921F48061816120688169DA
:101870002A6941EA02218161D4E7206800F078FEFC
:101880002068C16941F00801C1612068C16921F087
:101890000401C1612068C1692A69114311E020680F
:1018A00000F0AEFE2068C16941F40061C1612068AA
:1018B000C16921F48061C1612068C1692A6941EA76
:1018C0000221C161AEE7206800F0E2FE2068016DF0
:1018D00041F0080101652068016D21F004010165F6
:1018E0002068016D2A69114311E0206800F008FFAB
:1018F0002068016D41F4006101652068016D21F4EB
:10190000806101652068016D2A6941EA0221016553
:1019100088E710B5040003D094F83D0010B107E04B
:10192000012010BD002084F83C00204600F022F881
:10193000022084F83D00211D206800F003FD0120F5
:1019400084F8480084F83E0084F83F0084F84000A2
:1019500084F8410084F8420084F8430084F844008D
:1019600084F8450084F8460084F8470084F83D0078
:10197000002010BD7047704730B50446022269B19F
:10198000042912D0082917D00C291CD0102921D0E5
:1019900094F84300012824D0012030BD94F83E0083
:1019A0000128F9D184F83E201DE094F83F00012879
:1019B000F2D184F83F2016E094F840000128EBD1E2
:1019C00084F840200FE094F841000128E4D184F825
:1019D000412008E094F842000128DDD184F842203B
:1019E00001E084F843200122206800F009FD194B32
:1019F00020681949194A984209D0884207D0904274
:101A000005D0174DA84202D0164DA84203D1456C0F
:101A100045F400454564206898420CD0B0F1804FF1
:101A200009D0114B984206D0104B984203D08842FF
:101A300001D0904207D181680D4A1140062906D095
:101A4000B1F5803F03D0016841F001010160002041
:101A500030BD0000002C0140003401400040014036
:101A600000440140004801400004004000080040DC
:101A70000700010070470246002041B1042909D047
:101A800008290AD00C2901D11068006C7047106831
:101A9000406B70471068806B70471068C06B704770
:101AA0007047FEE700B585B014216846FEF78CFC50
:101AB0004FF6FF70009000200321CDE90201019054
:101AC00069460248FEF77EFD05B000BD00080048EB
:101AD00000B585B014216846FEF776FC4FF6FF701E
:101AE000009001200190032003900020029069469D
:101AF0000248FEF767FD05B000BD00000008004881
:101B00002DE9F0410A4E80463068002485B2214616
:101B1000204600F01DF900F061F94FF49637404679
:101B200000F030F9641CBC42F9D33560BDE8F081A7
:101B30001408004830B587B014216846FEF744FC0D
:101B40001E48C16C41F00401C164C16C01F0040184
:101B50000591C16C41F00101C164C16C01F001014A
:101B60000591C16C41F00201C164C06C012500F017
:101B7000020005904FF44870CDE90005002403945D
:101B8000694602940E48FEF71DFD2802039400905A
:101B9000CDE901544FF0904469462046FEF712FD0E
:101BA000FFF796FFA06940F48070A06104481830E8
:101BB000016841F40871016007B030BD00100240B7
:101BC00000040048203AD2B2034B02EB420203EB7E
:101BD000021200F023B80000622900082DE9F0434A
:101BE000DFF8348081460E46D8F80000002587B221
:101BF00040F23F1407E021464846FFF7E3FF103C60
:101C00006D1CA4B2761C32780AB1142DF3D3C8F837
:101C10000070BDE8F0830000140800482DE9F0478B
:101C200091468A460026044600F092F8DFF840808C
:101C3000012700BF00F0D2F85FF0000539F8160068
:101C400007FA05F10842404601D1408800E00088CB
:101C500000F098F86D1C102DF0D3641CE4B25146CE
:101C6000204600F075F8761C182EE3D3BDE8F08707
:101C70001000002070B50D4E306885B2FFF75AFF96
:101C8000002000F017F80A4CA080A088A0F50241BF
:101C9000303907D000F00EFA002000F00BF8A080D9
:101CA000356070BD00F07DF9F6E7000014080048CB
:101CB0001000002070B51D490A6842F400720A60E5
:101CC0000A6842F480720A60184C103C226842F0A4
:101CD00020022260164A1060086840F02000086068
:101CE00000BF00BF00BF206840F0200020602068D7
:101CF00040F480702060FFF7D5FE4FF09041886A75
:101D000040F48070886200BF00BF00BF0848001F19
:101D1000006885B2886940F480708861FFF7D8FE5A
:101D2000206840F400702060284670BD28040048F8
:101D30001408004801B504480168BDF8002089B2C4
:101D4000024B5A80016008BD1408004810000020B2
:101D500010B50C460146202000F06EF82146BDE883
:101D60001040212000F068B801B504480168BDF8B2
:101D7000002089B2024B1A80016008BD1408004897
:101D800010000020134A116841F4007111601149DC
:101D900010390B6843F480730B600B6843F0200329
:101DA0000B600D4B1860106840F02000106000BF01
:101DB00000BF00BF086840F020000860086840F4D9
:101DC0008070086000BF00BF00BF086840F400706A
:101DD000086070472804004814080048144908683F
:101DE00040F400700860086840F480700860104893
:101DF0001038026842F0200202600E4B22221A6064
:101E00000A6842F020020A6000BF00BF00BF0168FC
:101E100041F020010160016841F48071016000BF60
:101E200000BF00BF016841F400710160704700000D
:101E30002804004814080048184B10B51A6842F4EA
:101E400000721A601A6842F480721A60134A103ADB
:101E5000146844F020041460114C2060186840F0AD
:101E60002000186000BF00BF00BF106840F02000D5
:101E70001060106840F4807010602160186840F0B5
:101E80002000186000BF00BF00BF106840F02000B5
:101E90001060106840F48070106010BD2804004885
:101EA000140800481FB500241548009401940294BA
:101EB0001249039401604F21C0E901144FF6FF71EC
:101EC000C0E9031444618461FFF72DF908B172B6CB
:101ED000FEE70B48FFF7CAFA08B172B6FEE7012029
:101EE000CDE9004002940022694605480394FFF7BB
:101EF0002BFA002801D072B6FEE71FBD0048014052
:101F00006C00002010B58EB000240794089409944A
:101F10000A940B940C941C2168460D94FEF754FA15
:101F20001D484FF08041016040F21F31C0E90114AB
:101F30006321C0E903148461FFF7F5F808B172B6B4
:101F4000FEE74FF48050079007A91348FFF760F9A8
:101F500008B172B6FEE71048FFF7DBFC08B172B6B5
:101F6000FEE70B940BA90C480D94FFF78DF808B110
:101F700072B6FEE76020CDE90004029404226946AF
:101F800005480494FFF733FC08B172B6FEE7024837
:101F9000FFF706FC0EB010BD20000020FEE7FEE7B4
:101FA000704730B501210020FFF746FF4FF47A70EB
:101FB000FEF7E7FA00210120FFF73EFF41F29071A2
:101FC0001020FFF739FF4FF41C516020FFF734FF5A
:101FD00001216120FFF730FF02214620FFF72CFF8F
:101FE00048F210011320FFF727FF48F2FE011220EC
:101FF000FFF722FF4FF4A0610220FFF71DFF41F21F
:1020000030010320FFF718FF40F20334214630204F
:10201000FFF712FF21463120FFF70EFF2146322045
:10202000FFF70AFFE51E29463320FFF705FF0321CE
:102030003420FFF701FF21463520FFF7FDFE142174
:102040003620FFF7F9FE21463720FFF7F5FE21463F
:102050003820FFF7F1FE21463920FFF7EDFE294633
:102060003A20FFF7E9FE03213B20FFF7E5FE21467A
:102070003C20FFF7E1FE4FF4A0513D20FFF7DCFECE
:102080004FF400719220FFF7D7FE21469320FFF70F
:10209000D3FE40F60D019020FFF7CEFE41F218016D
:1020A0000320FFF7C9FEBDE8304040F2731107205E
:1020B000FFF7C2BE10B543F20801E320FFF7BCFEF4
:1020C0001221E720FFF7B8FE41F23121EF20FFF7A0
:1020D000B3FE00210120FFF7AFFE4FF4E0610220C4
:1020E000FFF7AAFE41F230010320FFF7A5FE002111
:1020F0000420FFF7A1FE40F207210820FFF79CFE15
:1021000000210920FFF798FE00210A20FFF794FE26
:1021100000210C20FFF790FE00210D20FFF78CFE20
:1021200000210F20FFF788FE00211020FFF784FE1A
:1021300007211120FFF780FE00211220FFF77CFE0F
:1021400000211320FFF778FEC820FEF729FA41F29C
:1021500090611020FFF770FE40F227211120FFF759
:102160006BFE3220FEF71CFA1D211220FFF764FEE1
:102170003220FEF715FA4FF400611320FFF75CFEE2
:1021800014212920FFF758FE0B212B20FFF754FEC6
:102190003220FEF705FA00212020FFF74DFE002136
:1021A0002120FFF749FE07213020FFF745FE40F2CE
:1021B00007713120FFF740FE06213220FFF73CFE79
:1021C00040F204713520FFF737FE41F604713620E6
:1021D000FFF732FE04213720FFF72EFE00213820C2
:1021E000FFF72AFE40F206713920FFF725FE40F284
:1021F00001713C20FFF720FE0F213D20FFF71CFE60
:1022000000215020FFF718FEEF215120FFF714FEA8
:1022100000215220FFF710FE40F23F115320FFF73C
:102220000BFE4FF41C516020FFF706FE01216120D8
:10223000FFF702FE00216A20FFF7FEFD002180204B
:10224000FFF7FAFD00218120FFF7F6FD0021822033
:10225000FFF7F2FD00218320FFF7EEFD002184202F
:10226000FFF7EAFD00218520FFF7E6FD1021902011
:10227000FFF7E2FD00219220FFF7DEFD032193200E
:10228000FFF7DAFD4FF488719520FFF7D5FD0021A7
:102290009720FFF7D1FD00219820FFF7CDFD41F2F7
:1022A00018010320FFF7C8FDBDE8104040F273118C
:1022B0000720FFF7C1BD7047FEF7AEBA00B593B077
:1022C00038216846FEF780F814210EA8FEF77CF846
:1022D0004FF40070FEF732FB0220C1010391402150
:1022E00004910121CDE9080100900A21CDE90A10ED
:1022F00007900C900D906846FEF7AAFC08B172B6E4
:10230000FEE70F200E9003200F90002010901190F8
:10231000129002210EA8FEF777FB002801D072B6BA
:10232000FEE713B000BD00000248016841F47001EF
:102330000160704788ED00E00148FFF75FB90000D9
:102340006C0000202DE9F0430268264B264D274EF5
:10235000274C4FF08049984207D0484505D0A84205
:1023600003D0B04201D0A04203D122F070074A68E6
:102370003A43204FDFF880C0DFF8808098420DD0CC
:1023800048450BD0A84209D0B04207D0A04205D0A2
:10239000B84203D0604501D0404503D122F44075D6
:1023A000CA682A434D6922F080022A4302608A6883
:1023B000C2620A688262984207D0A04205D0B84241
:1023C00003D0604501D0404501D109690163012175
:1023D00041610169C90703D0016921F0010101616F
:1023E000BDE8F083002C01400004004000080040DC
:1023F00000340140004001400044014000480140D9
:1024000010B501F01F030121046A99408C43046256
:10241000016A9A401143016210BD10B5846842EA16
:10242000032224F47F440A432243826010BD00004B
:102430008268034B1A400A4342F0070181607047EB
:102440008FFFCFFF2DE9F043056A026A22F00102F7
:102450000262436882691C4C25F0020522400C6828
:1024600022F0030214438A68194E2A43174D194F6C
:10247000DFF864C0DFF86490A84207D0B04205D00E
:10248000B84203D0604501D0484506D122F0080883
:10249000CA6842EA080222F00402A84207D0B04209
:1024A00005D0B84203D0604501D0484505D14D69FB
:1024B00023F440731D438B692B4343608461496857
:1024C00041630262BDE8F0838FFFFEFF002C0140F4
:1024D00000340140004001400044014000480140F8
:1024E000F0B5056A026A22F010020262426883694E
:1024F000194C1B4E23400C6823F4407343EA042418
:1025000025F020038D6843EA0513144DA84201D03D
:10251000B04206D1CF6823F0800343EA071323F0CB
:102520004003A8420AD0B04208D00E4DA84205D0C0
:102530000D4DA84202D00D4DA84207D14D6922F49D
:10254000406242EA85028D6942EA85024260846106
:10255000496881630362F0BDFF8FFFFE002C0140DC
:102560000034014000400140004401400048014067
:10257000F0B5056A026A22F4807202624368C26999
:10258000194C1B4E22400C6822F00302144325F420
:1025900000728D6842EA0522144DA84201D0B04273
:1025A00006D1CF6822F4006242EA072222F4806258
:1025B000A8420AD0B04208D00E4DA84205D00E4D18
:1025C000A84202D00D4DA84207D14D6923F44053D3
:1025D00043EA05138D6943EA05134360C461496802
:1025E000C1630262F0BD00008FFFFEFF002C0140BE
:1025F00000340140004001400044014000480140D7
:10260000F0B5056A026A22F4805202624268C36928
:10261000194C1B4E23400C6823F4407343EA0424F6
:1026200025F400538D6843EA0533144DA84201D0C8
:10263000B04206D1CF6823F4004343EA073323F4C2
:102640008043A8420AD0B04208D00E4DA84205D01F
:102650000D4DA84202D00D4DA84207D14D6922F47C
:10266000404242EA85128D6942EA85124260C461A5
:10267000496801640362F0BDFF8FFFFE002C01403A
:102680000034014000400140004401400048014046
:1026900030B5056A026A22F4803202624268036D34
:1026A000114C23400C681C4325F400330D8943EA88
:1026B00005430E4DA8420BD00D4DA84208D00D4D3C
:1026C000A84205D00C4DA84202D00C4DA84204D11E
:1026D0004D6922F4803242EA05224260046549686D
:1026E0008164036230BD00008FFFFEFF002C0140BB
:1026F00000340140004001400044014000480140D6
:1027000030B5046A026A22F4801202624268036DE4
:10271000114D24F400142B400D6843EA05230D8964
:1027200044EA05540D4DA8420BD00D4DA84208D0E7
:102730000C4DA84205D00C4DA84202D00B4DA8422A
:1027400004D14D6922F4802242EA85224260036569
:102750004968C164046230BDFF8FFFFE002C014058
:102760000034014000400140004401400048014065
:1027700010B5036A046A24F001040462846924F039
:10278000F00444EA021423F00A020A43846102625C
:1027900010BD000070B5056A046A24F001040462EB
:1027A0008469124EB0420ED0B0F1804F0BD0104E63
:1027B000B04208D00F4EB04205D00F4EB04202D00A
:1027C0000E4EB04203D124F00304144301E044F060
:1027D00001041A0724F0F00444EA126225F00A0307
:1027E00001F00A0119438261016270BD002C0140B1
:1027F0000004004000080040003401400040014057
:1028000010B5036A046A24F010040462846923F09A
:10281000A00324F4704444EA023243EA01118261C5
:10282000016210BD30B5046A056A25F01005056225
:10283000856925F4407545EA022222F470454FF679
:10284000FF7202EA033224F0A0032A43A02404EA20
:10285000011119438261016230BDFEE70907090ECB
:10286000002804DB00F1E02080F80014704700F03D
:102870000F0000F1E02080F8141D704710B50AA188
:102880000E48FDF71DFD0D490020FFF7A7F90C4884
:102890000CA102680948FDF713FDBDE81040074987
:1028A0004820FFF79BB900002020202020207465DD
:1028B000787420202020202000000000B800002094
:1028C000180000202020206672653A202020256410
:1028D0002020200008B5FDF7A7FFFFF7EFFC184800
:1028E000C16C41F00401C164C16C01F004010091AC
:1028F000C16C41F00101C164C06C00F001000090A6
:10290000FFF700FBFFF7CEFAFFF7B4F90020FFF75F
:10291000F7F80020FFF70EFA4FF6FF70FFF724FAE2
:1029200004210848FFF728F832204107886305484A
:1029300000214C30FEF7CCFDFFF7A0FFFCE70000C4
:1029400000100240200000204FF04070E1EE100A1D
:1029500070470000000000000000010203040607A9
:102960000809000000000000000000000000000056
:102970000000000000000000000000000000000057
:102980000000000000000000000000000000000047
:102990000000000080018001800180018001800131
:1029A00080018001800180018001800180010000A0
:1029B0000000800180010000000000000000000015
:1029C000000000000000CC00CC00CC00CC00CC000B
:1029D000CC0000000000000000000000000000002B
:1029E00000000000000000000000000000000000E7
:1029F0000000000000000000000000000000600C6B
:102A0000600C600C30063006FE1FFE1F30063807D3
:102A10001803FE1FFE1F180318038C018C018C0184
:102A2000000000008000E003F80F9C0E8C1C8C1846
:102A30008C009800F801E007800E801C8C188C1820
:102A40009C18B80CF00FE00380008000000000002C
:102A500000000000000000000E181B0C110C1106F5
:102A60001106110311039B018E01C038C06C604434
:102A70006044304430441844186C0C3800000000A6
:102A800000000000E001F0033807180618063003C4
:102A9000F001F000F8009C310E33061E061C061CE7
:102AA000063FFC73F0210000000000000000000061
:102AB0000000000000000C000C000C000C000C00DA
:102AC0000C000000000000000000000000000000FA
:102AD00000000000000000000000000000000000F6
:102AE00000000000000200038001C000C000600080
:102AF0006000300030003000300030003000300026
:102B0000300060006000C000C000800100030002CF
:102B10000000000020006000C00080018001000370
:102B20000003000600060006000600060006000678
:102B300000060003000380018001C0006000200047
:102B40000000000000000000000000000000C000C5
:102B5000C000D806F807E001300338070000000085
:102B60000000000000000000000000000000000065
:102B700000000000000000000000000000008001D4
:102B80008001800180018001FC3FFC3F80018001C9
:102B900080018001800100000000000000000000B2
:102BA0000000000000000000000000000000000025
:102BB0000000000000000000000000000000000015
:102BC0000000000080018001000100018000000081
:102BD00000000000000000000000000000000000F5
:102BE00000000000000000000000E007E007000017
:102BF00000000000000000000000000000000000D5
:102C000000000000000000000000000000000000C4
:102C100000000000000000000000000000000000B4
:102C200000000000C000C000000000000000000024
:102C300000000000000C000C000600060006000367
:102C4000000300038003800180018001C000C000F8
:102C5000C0006000600000000000000000000000F4
:102C600000000000E003F007380E180C0C180C18D8
:102C70000C180C180C180C180C180C180C18180C34
:102C8000380EF007E0030000000000000000000024
:102C90000000000000018001C001F00198018801DE
:102CA000800180018001800180018001800180011C
:102CB0008001800180010000000000000000000091
:102CC00000000000E003F80F180C0C180C18001896
:102CD0000018000C000600038001C00060003000F6
:102CE0001800FC1FFC1F0000000000000000000096
:102CF00000000000E001F807180E0C0C0C0C000C92
:102D00000006C003C007000C001800180C180C18AF
:102D1000180CF807E00300000000000000000000AD
:102D200000000000000C000E000F000F800DC00C12
:102D3000600C600C300C180C0C0CFC3FFC3F000CC1
:102D4000000C000C000C000000000000000000005F
:102D500000000000F80FF80F180018000C00EC033A
:102D6000FC071C0E001C0018001800180C181C0C86
:102D7000180EF807E003000000000000000000004B
:102D800000000000C007F00F381C181818000C00D5
:102D9000CC03EC0F3C0E1C1C0C180C180C18181C47
:102DA000380EF007E0030000000000000000000003
:102DB00000000000FC1FFC1F000C000600060003C2
:102DC00080038001C001C000E0006000600070006E
:102DD0003000300030000000000000000000000063
:102DE00000000000E003F007380E180C180C180C57
:102DF0003806F007F007180C0C180C180C180C18F3
:102E0000380CF80FE0030000000000000000000094
:102E100000000000E003F007380E1C0C0C180C1822
:102E20000C181C1C381EF81BE0190018000C000CB4
:102E30001C0EF807F0010000000000000000000078
:102E40000000000000000000000000000000800101
:102E500080010000000000000000000000000000F1
:102E60000000800180010000000000000000000060
:102E700000000000000000000000000000008001D1
:102E800080010000000000000000000000000000C1
:102E900000008001800100010001800000000000AE
:102EA0000000000000000000000000000000000022
:102EB00000000010001C800FE003F8001800F8006C
:102EC000E003800F001C0010000000000000000064
:102ED00000000000000000000000000000000000F2
:102EE0000000F81F000000000000F81F00000000B4
:102EF00000000000000000000000000000000000D2
:102F000000000000000000000000000000000000C1
:102F1000000008003800F001C007001F0018001F63
:102F2000C007F001380008000000000000000000A9
:102F300000000000E003F80F180C0C180C18001823
:102F4000000C000600038001C000C000C0000000AB
:102F50000000C000C00000000000000000000000F1
:102F6000000000000000E00718180420C229224ACF
:102F7000114409440944094409221113E20C024096
:102F800004201818E0070000000000000000000006
:102F90000000000080038003C006C006C006600C6D
:102FA000600C301830183018F83FF83F1C700C6077
:102FB0000C6006C006C00000000000000000000019
:102FC00000000000FC03FC0F0C0C0C180C180C1873
:102FD0000C0CFC07FC0F0C180C300C300C300C30B7
:102FE0000C18FC1FFC07000000000000000000009F
:102FF00000000000C007F01F38381C300C7006605D
:1030000006000600060006000600060006600C70BA
:103010001C30F01FE007000000000000000000006E
:1030200000000000FE03FE0F060E0618061806300C
:103030000630063006300630063006300618061810
:10304000060EFE0FFE03000000000000000000005E
:1030500000000000FC3FFC3F0C000C000C000C00CA
:103060000C00FC1FFC1F0C000C000C000C000C00E2
:103070000C00FC3FFC3F00000000000000000000CE
:1030800000000000F83FF83F180018001800180072
:103090001800F81FF81F1800180018001800180072
:1030A00018001800180000000000000000000000D8
:1030B00000000000E00FF83F3C780E6006E007C01B
:1030C0000300030003FE03FE03C007C006C00EC0DA
:1030D0003CF0F83FE00F000000000000000000009E
:1030E000000000000C300C300C300C300C300C3078
:1030F0000C30FC3FFC3F0C300C300C300C300C30F2
:103100000C300C300C30000000000000000000000B
:1031100000000000800180018001800180018001A9
:103120008001800180018001800180018001800197
:10313000800180018001000000000000000000000C
:10314000000000000006000600060006000600065B
:10315000000600060006000600060006180618060F
:103160003807F003E001000000000000000000004C
:103170000000000006300618060C0606060386014D
:10318000C60066007600DE008E0106030606060C09
:103190000618063006600000000000000000000075
:1031A000000000001800180018001800180018008F
:1031B000180018001800180018001800180018004F
:1031C0001800F81FF81F00000000000000000000B9
:1031D000000000000EE01EF01EF01EF036D836D8BB
:1031E00036D836D866CC66CC66CCC6C6C6C6C6C689
:1031F000C6C686C386C300000000000000000000B1
:10320000000000000C301C303C303C306C306C3026
:10321000CC30CC308C310C330C330C360C360C3CAF
:103220000C3C0C380C3000000000000000000000D6
:1032300000000000E007F81F1C380E70066003C095
:1032400003C003C003C003C003C003C006600E7008
:103250001C38F81FE007000000000000000000001C
:1032600000000000FC0FFC1F0C380C300C300C3040
:103270000C300C18FC1FFC070C000C000C000C00A0
:103280000C000C000C00000000000000000000001A
:1032900000000000E007F81F1C380E70066003E015
:1032A00003C003C003C003C003C007E006630E3FB2
:1032B0001C3CF83FE0F700C00000000000000000E8
:1032C00000000000FE0FFE1F0638063006300630F4
:1032D0000638FE1FFE0706030606060C061806182B
:1032E000063006300660000000000000000000000C
:1032F00000000000E003F80F1C0C0C180C180C0068
:103300001C00F803E00F001E0038063006300E30B7
:103310001C1CF80FE0070000000000000000000087
:1033200000000000FE7FFE7F80018001800180019F
:103330008001800180018001800180018001800185
:1033400080018001800100000000000000000000FA
:10335000000000000C300C300C300C300C300C3005
:103360000C300C300C300C300C300C300C300C307D
:103370001818F81FE007000000000000000000001F
:103380000000000003600630063006300C180C18F0
:103390000C18180C180C380E300630067007600335
:1033A0006003C001C0010000000000000000000038
:1033B000000000000360C361C361C361663366330C
:1033C00066336633663366336C1B6C1B6C1B2C1ABE
:1033D0003C1E380E380E0000000000000000000007
:1033E000000000000FE00C7018303018700C600EF8
:1033F000C00780038003C003E006700C301C18185F
:103400000C300E6007E0000000000000000000002B
:103410000000000003C006600C301C383818300C67
:103420006006E007C0038001800180018001800107
:103430008001800180010000000000000000000009
:1034400000000000FC7FFC7F006000300018000CD2
:10345000000600038001C0006000300018000C006E
:103460000600FE7FFE7F000000000000000000005C
:1034700000000000E003E003600060006000600006
:10348000600060006000600060006000600060003C
:10349000600060006000600060006000E003E00326
:1034A0000000000030003000600060006000C000DC
:1034B000C000C000C0018001800180010003000342
:1034C00000030006000600000000000000000000ED
:1034D00000000000E003E00300030003000300031A
:1034E00000030003000300030003000300030003C4
:1034F000000300030003000300030003E003E003F4
:10350000000000000000C001C00160036003600310
:1035100030063006180C180C0000000000000000F7
:10352000000000000000000000000000000000009B
:10353000000000000000000000000000000000008B
:10354000000000000000000000000000000000007B
:1035500000000000FFFFFFFF00000000000000006F
:10356000000000000C000C000C000C000C000C0013
:10357000000000000000000000000000000000004B
:10358000000000000000000000000000000000003B
:103590000000000000000000000000000000F00338
:1035A000F8071C0C0C0C000FF00FF80C0C0C0C0C9A
:1035B0001C0FF80FF01800000000000000000000D1
:1035C0000000000018001800180018001800D803A8
:1035D000F80F380C18181818181818181818181880
:1035E000380CF80FD80300000000000000000000B5
:1035F0000000000000000000000000000000C00308
:10360000F007300E180C1800180018001800180CDD
:10361000300EF007C00300000000000000000000B2
:103620000000000000180018001800180018C01B47
:10363000F01F301C1818181818181818181818180F
:10364000301CF01FC01B0000000000000000000044
:103650000000000000000000000000000000C003A7
:10366000F00F300C1818F81FF81F18001800381841
:10367000301CF00FC0070000000000000000000038
:1036800000000000800FC00FC000C000C000F007A5
:10369000F007C000C000C000C000C000C000C000F3
:1036A000C000C000C00000000000000000000000DA
:1036B0000000000000000000000000000000E00D1D
:1036C000F80F180E0C0C0C0C0C0C0C0C0C0C0C0C3D
:1036D000180EF80FE00D000C0C0C1C06F807F0019A
:1036E0000000000018001800180018001800D80783
:1036F000F80F381C1818181818181818181818184F
:103700001818181818180000000000000000000029
:1037100000000000C000C000000000000000C00069
:10372000C000C000C000C000C000C000C000C00099
:10373000C000C000C0000000000000000000000049
:1037400000000000C000C000000000000000C00039
:10375000C000C000C000C000C000C000C000C00069
:10376000C000C000C000C000C000C000F800780069
:10377000000000000C000C000C000C000C000C0CF5
:103780000C060C038C01CC006C00FC009C018C032B
:103790000C030C060C0C00000000000000000000F0
:1037A00000000000C000C000C000C000C000C00099
:1037B000C000C000C000C000C000C000C000C00009
:1037C000C000C000C00000000000000000000000B9
:1037D00000000000000000000000000000007C3C31
:1037E000FF7EC7E383C183C183C183C183C183C11A
:1037F00083C183C183C100000000000000000000FD
:103800000000000000000000000000000000980719
:10381000F80F381C1818181818181818181818182D
:103820001818181818180000000000000000000008
:103830000000000000000000000000000000C003C5
:10384000F00F300C1818181818181818181818181D
:10385000300CF00FC003000000000000000000006A
:103860000000000000000000000000000000D8037D
:10387000F80F380C181818181818181818181818DD
:10388000380CF80FD803180018001800180018009A
:103890000000000000000000000000000000C01B4D
:1038A000F01F301C1818181818181818181818189D
:1038B000301CF01FC01B001800180018001800185A
:1038C0000000000000000000000000000000B00741
:1038D000F003700030003000300030003000300065
:1038E0003000300030000000000000000000000048
:1038F0000000000000000000000000000000E003E5
:10390000F003380E180C3800F003C007000C180C38
:10391000380EF007E0030000000000000000000087
:103920000000000000008000C000C000C000F007E0
:10393000F007C000C000C000C000C000C000C00050
:10394000C000C00780070000000000000000000069
:103950000000000000000000000000000000181837
:1039600018181818181818181818181818181818D7
:10397000381CF01FE01900000000000000000000EB
:1039800000000000000000000000000000000C1813
:10399000180C180C180C3006300630066003600353
:1039A0006003C001C0010000000000000000000032
:1039B0000000000000000000000000000000C14105
:1039C000C141C3616363636363633636363636363B
:1039D0001C1C1C1C1C1C000000000000000000003F
:1039E00000000000000000000000000000001C3883
:1039F000381C300C600660036003600360036006DF
:103A0000300C381C1C3800000000000000000000D2
:103A1000000000000000000000000000000018305E
:103A2000301830187018600C600CE00CC006C0062E
:103A300080038003800380018001C001F0007000DA
:103A40000000000000000000000000000000FC1F5B
:103A5000FC1F000C000600038001C0006000300065
:103A60001800FC1FFC1F0000000000000000000008
:103A70000000000000038001C000C000C000C000C2
:103A8000C000C00060006000300060004000C00066
:103A9000C000C000C000C000C000800100030000E2
:103AA0000000000080018001800180018001800110
:103AB00080018001800180018001800180018001FE
:103AC00080018001800180018001800180018001EE
:103AD000000000006000C000C00180018001800182
:103AE0008001800100030003000600030001800143
:103AF00080018001800180018001C0006000000021
:103B000000000000000000000000000000000000B5
:103B10000000F010F81F080F000000000000000077
:103B20000000000000000000000000000000000095
:103B300000000000543B00080000002020000000AE
:103B400014020008743B0008200000201007000049
:103B5000300200081000000001000000000000001A
:103B60000024F4000000FFFF00000000000000003F
:043B70000000000051
:04000005080001D915
:00000001FF
