:020000040800F2
:1000000038070020810200089B1B00089B15000890
:10001000991B00087F0500086B2000080000000005
:10002000000000000000000000000000B31E0008F7
:1000300081050008000000009D1B0008B51E000897
:100040009B0200089B0200089B0200089B0200081C
:100050009B0200089B0200089B0200089B0200080C
:100060009B0200089B0200089B0200089B020008FC
:100070009B0200089B0200089B0200089B020008EC
:100080009B020008000000009B0200089B02000881
:100090009B0200089B0200089B0200089B020008CC
:1000A0009B0200089B0200089B0200089B020008BC
:1000B000351F00089B0200089B0200089B020008F5
:1000C0009B0200089B0200089B0200089B0200089C
:1000D0009B0200089B0200089B0200089B0200088C
:1000E0009B0200089B0200089B0200089B0200087C
:1000F0009B0200089B0200089B0200080000000011
:10010000000000009B020008000000009B020008A5
:100110009B020008000000009B0200089B020008F0
:100120009B0200089B0200089B0200089B0200083B
:100130009B02000800000000000000009B02000875
:100140009B0200089B020008000000000000000065
:10015000000000000000000000000000000000009F
:100160000000000000000000000000009B020008EA
:100170009B020008000000000000000000000000DA
:10018000000000009B0200080000000000000000CA
:10019000000000000000000000000000000000005F
:1001A00000000000000000009B0200089B02000805
:1001B0009B0200089B0200089B0200080000000050
:1001C000000000009B02000800000000000000008A
:1001D0009B0200089B02000800F002F800F041F8C2
:1001E0000AA090E8000C82448344AAF10107DA4592
:1001F00001D100F036F8AFF2090EBAE80F0013F0A3
:10020000010F18BFFB1A43F001031847D832000052
:10021000F8320000103A24BF78C878C1FAD85207E3
:1002200024BF30C830C144BF04680C607047000070
:100230000023002400250026103A28BF78C1FBD8EF
:10024000520728BF30C148BF0B607047642900F0D7
:100250007F80002070471FB502F04EF81FBD10B51B
:1002600010BD00F052F91146FFF7F5FF02F016F845
:1002700000F070F903B4FFF7F2FF03BC00F078F967
:100280000948804709480047FEE7FEE7FEE7FEE72A
:10029000FEE7FEE7FEE7FEE7FEE7FEE70448054966
:1002A000054A064B70470000251F0008D9010008C9
:1002B00038010020380700203803002038030020D0
:1002C0000FB41CB5074B06AA7B44694600900598FD
:1002D00000F003F90020694600F012F91CBC5DF83B
:1002E00014FB0000350200002DE9F0410E460446E3
:1002F000002020622046E168884730B3252805D0D9
:10030000D4E901219047206A401CF2E7E1682046C9
:1003100000278847050018D0A5F14100192802D808
:1003200020354FF400673246294620462760FFF704
:100330008DFF40B1012804D0F61D26F007060836CF
:10034000D8E7361DD6E72846DAE7206ABDE8F0810F
:100350002DE9F0410646002410687529314616A59E
:1003600010D0AFF30080002802DA404213A507E066
:1003700031688A0701D512A502E0490704D511A505
:10038000012401E0AFF3008000210A2206F12407D6
:1003900009E0B0FBF2FCB0FBF2F302FB1C003030D2
:1003A00078541846491C0028F3D123462A46304683
:1003B000BDE8F04100F032B8000000002D00000060
:1003C0002B000000200000004FF0000200B5134693
:1003D00094469646203922BFA0E80C50A0E80C5065
:1003E000B1F12001BFF4F7AF090728BFA0E80C5016
:1003F00048BF0CC05DF804EB890028BF40F8042B0F
:1004000008BF704748BF20F8022B11F0804F18BF7B
:1004100000F8012B70477047704770472DE9F0478F
:100420000D4699469246044600F124080168880664
:1004300004D5E06921F01001216000E00120A8420C
:1004400001DD471B00E00027A1697A1902EB0900D2
:10045000081AA0612078C00602D42046AFF30080BD
:10046000002608E0D4E901211AF806009047206A26
:10047000401C761C20624E45F4DB2078C0060AD56D
:100480002046AFF3008006E0D4E9012130209047F8
:10049000206A401C2062381EA7F10107F4DC07E047
:1004A000D4E9012118F805009047206A401C206219
:1004B000281EA5F10105F3DC2046AFF3008020786B
:1004C000000602D50220BDE8F0870120FBE700000E
:1004D00001694A1C02610878704700B58FB0CDE908
:1004E00001310021059105497944CDE903101146F8
:1004F0006846FFF7F9FE0FB000BD0000E5FFFFFF03
:100500000A6802F8010B0A607047754600F02CF883
:10051000AE4605006946534620F00700854618B0F0
:1005200020B5FFF7BBFEBDE820404FF000064FF0BE
:1005300000074FF000084FF0000B21F00701AC4618
:10054000ACE8C009ACE8C009ACE8C009ACE8C00937
:100550008D46704710B50446AFF300802046BDE8D5
:100560001040FFF787BE000000487047D40000200D
:1005700001491820ABBEFEE7260002007047FEE7E7
:100580007047002240F6B83306E00021491C89B2CA
:100590009942FBD3521C92B28242F6D3704772B694
:1005A000FEE7000070B5044600F03CF90546601C0B
:1005B00002D004484068044400F034F9401BA042D3
:1005C000FAD370BD000000202DE9F04FDFF8209233
:1005D000002301260324A9F1040B85B00F2709F19C
:1005E000040AABF1040EFAE006FA03F52A407CD0C7
:1005F00091F804C00CF0030CBCF1010F02D0BCF167
:10060000020F26D1D0F808C0CDF800C04FEA430C45
:1006100004FA0CF8CDF810C0DDF800C02CEA080C84
:10062000CDF800C0D1F80C80DDF810C008FA0CF845
:10063000DDF800C048EA0C08C0F80880D0F804C013
:100640002CEA050C0D79C5F300159D4045EA0C0513
:1006500045600D79ED43AD070ED0C5684FEA4308FC
:1006600004FA08FC25EA0C05D1F808C00CFA08FCCD
:100670004CEA050CC0F80CC00D7905F00305022DFD
:1006800016D1DD0800EB850CCDF808C0DCF8208021
:100690005D074FEAD56C07FA0CF528EA05080D69E5
:1006A00005FA0CF5DDF808C045EA0805CCF820503D
:1006B00005684FEA430CCDF808C004FA0CFC25EAA3
:1006C0000C0591F804C00CF00308DDF808C008FA26
:1006D0000CF848EA0508C0F800804D6815F4403F62
:1006E0007CD0444DD5F860C000E077E04CF0010CC0
:1006F000C5F860C02D6E23F0030C05F001050095D0
:100700003D4D65440295AD684FEA837C4FEA1C7805
:1007100007FA08FC25EA0C05B0F1904F06D0DFF887
:10072000DCC0604505D14FF0010C20E04FF0000C1B
:100730001DE0DFF8CCC0604502D14FF0020C16E09E
:10074000DFF8C0C0604502D14FF0030C0FE0DFF8C6
:10075000B8C0604502D14FF0040C08E0DFF8ACC02F
:10076000604502D14FF0050C01E04FF0060C0CFA89
:1007700008FC4CEA050C029DC5F808C0D9F80050E9
:10078000CC46D1F8048095435FEAC82800D51543CC
:10079000CCF80050DAF80050D446D1F804809543E4
:1007A0005FEA882800D51543CCF80050DBF80050EC
:1007B000DC46D1F8048095435FEA883800D51543BC
:1007C000CCF80050DEF80050F446D1F80480954390
:1007D0005FEAC83800D51543CCF800505B1C0A68A6
:1007E00032FA03F57FF400AF05B0BDE8F08F0000EA
:1007F00008040140001002400000014000040048CD
:1008000000080048000C0048001000480014004890
:100810000069084000D0012070470AB1816170472B
:100820008162704701488068704700000000002026
:1008300002488168426811448160704700000020CE
:1008400010B50024032000F073F80F2000F008F822
:1008500008B1012401E000F025F8204610BD000099
:1008600070B50E4E05460024706898B14FF47A7149
:10087000B1FBF0F00A490968B1FBF0F000F0F6FBBB
:1008800040B9102D06D200222946501E00F030F843
:10089000356000E00124204670BD0000000000200B
:1008A0000C0000200A4882B0016E41F0010101668F
:1008B000016E01F001010091816D41F0805181656F
:1008C000806D00F08050009002B000F0A1B80000F0
:1008D00000100240002809DB00F01F0201219140B6
:1008E0004009800000F1E020C0F8001170470000CE
:1008F000F0B40E4B1B680C46C3F30223C3F107058B
:10090000042D00D90425191D072901D2002300E078
:10091000DB1E012606FA05F1491E214099409E4042
:10092000761E16403143F0BC01F0A0BB0CED00E098
:10093000064900F0070208684FF6FF03184040EA36
:100940000220034A10430860704700000CED00E0ED
:100950000000FA052B492C4B0A6832214A432B49E7
:1009600040B1B0F5007F086829D020F4C06040F4A1
:1009700080602CE00868C0F34120022804D051F8C0
:10098000800F20F4807022E0D1F8800020F4807085
:10099000C1F88000086820F4C06040F4007008606E
:1009A000B2FBF3F0401C00E0401E4A69520501D53D
:1009B0000028F9D1486940050AD503207047C0F3E3
:1009C0004120022806D051F8800F40F48070086062
:1009D00000207047D1F8800040F48070C1F880009A
:1009E000086820F4C06040F400700860B2FBF3F0C7
:1009F000401C00E0401E4A695205DBD50028F9D1B1
:100A0000D8E700000C00002040420F0000700040BA
:100A10000248816841F48041816070470070004065
:100A20002DE9F0470E4605004FF0000725D0DFF80E
:100A3000AC81D8F8000000F00F00B0420CD2D8F81A
:100A4000001021F00F013143C8F80010D8F8000061
:100A500000F00F00B04210D12968614CC80741F284
:100A6000883A5AD06868DFF87C91032808D00228B9
:100A700020682DD0400500282CDB0120BDE8F08740
:100A800020688001F9D5E06800F00302E068C0F357
:100A90000310401C032A19D0534A00BFB2FBF0F0E8
:100AA000E268C2F306225043E268C2F34162521C7C
:100AB0005200B0FBF2F0484517D9A06810F0F00FD3
:100AC0000CD0880711D5A86840B10EE0474AE5E789
:100AD0008003D0E700F092F8484506D9A06820F0DE
:100AE000F00040F08000A0608027A068696820F0D6
:100AF00003000843A060FFF795FE814606E000BFB3
:100B0000FFF790FEA0EB090151453AD8A06869684B
:100B100000F00C00B0EB810FF2D12868810714D5EA
:100B2000400703D5A06840F4E060A0602878000783
:100B300005D5A06820F4605040F4E060A060A06893
:100B4000A96820F0F000084304E0802F03D1A068DA
:100B500020F0F000A060D8F80010404601F00F012E
:100B6000B14216D9016821F00F0131430160FFF74E
:100B700059FE074607E000BFFFF754FEC11B514571
:100B800001D903207AE7D8F8000000F00F00B04246
:100B9000F2D12878400705D5A068E96820F4E06024
:100BA0000843A0602878000706D5A068296920F4CA
:100BB000605040EAC100A06000F020F8A1680C4A33
:100BC000C1F30311515C01F01F01C84009490860DD
:100BD00009480068BDE8F047FFF742BE0020024028
:100BE0000010024000B4C4040024F40000127A0093
:100BF000022300080C00002000000020184910B556
:100C00008868C0F381021748012A0BD08A68431014
:100C1000C2F38102022A06D08A68C2F38102032A43
:100C200003D0002010BD184610BDCA6802F00304AE
:100C3000CA68C2F30312521C032C02D0B0FBF2F0BC
:100C400001E0B3FBF2F0CA68C968C2F30622504360
:100C5000C1F34161491C4900B0FBF1F010BD000037
:100C6000001002400024F4002DE9F84304007AD07B
:100C70002078F84DC00747D0A868E96800F00C005C
:100C800001F003010C2802D0082817D001E0032945
:100C900014D06068B0F5803F17D0B0F5A02F286859
:100CA00017D020F480302860286820F48020286045
:100CB0006068E0B1FFF7B6FD064614E028688003DF
:100CC00022D560680028D2D01EE0286840F4803029
:100CD000EDE740F480202860F7E700BFFFF7A2FDB2
:100CE000801B642870D828688003F7D50CE0FFF7D4
:100CF00099FD064605E000BFFFF794FD801B6428C0
:100D0000F0D828688003F7D4207880074CD5A868ED
:100D1000E96800F00C0001F003010C2802D004285F
:100D20000DD001E002290AD0E068002828682BD005
:100D300040F480702860FFF775FD064619E02868CA
:100D4000400502D5E068002891D06868217C20F039
:100D5000FE4040EA01606860BF480068FFF780FD20
:100D6000002800D120E072E1FFF75CFD801B022823
:100D7000B8D828684005F7D56868217C20F0FE4087
:100D800040EA016068600FE020F480702860FFF79F
:100D900049FD064605E000BFFFF744FD801B022821
:100DA000A0D828684005F7D42078000729D56069C5
:100DB0000028D5F8940013D040F00100C5F8940045
:100DC000FFF730FD064606E090E000BFFFF72AFD82
:100DD000801B022886D8D5F894008007F6D510E04D
:100DE00020F00100C5F89400FFF71CFD064604E062
:100DF000FFF718FD801B022878D8D5F894008007EB
:100E0000F6D42078400761D5A86D0026C00008D42C
:100E1000A86D40F08050A865A86D012600F08050B4
:100E200000908E480168C90511D40168804641F4DC
:100E300080710160FFF7F6FC074604E0FFF7F2FC63
:100E4000C01B022852D8D8F80000C005F6D5A0680B
:100E5000012815D00528D5F8900016D020F0010003
:100E6000C5F89000D5F8900020F00400C5F8900077
:100E7000A06841F28838B8B1FFF7D4FC07460EE00D
:100E8000D5F8900040F00100F0E740F00400C5F80C
:100E90009000F5E7FFF7C6FCC11B414526D8D5F801
:100EA00090008007F6D50CE0FFF7BCFC074604E095
:100EB000FFF7B8FCC11B414518D8D5F89000800752
:100EC000F6D41EB1A86D20F08050A8652078800669
:100ED00029D5A0690028D5F8980013D040F001006A
:100EE000C5F89800FFF79EFC064606E075E000BFD7
:100EF000FFF798FC801B02286FD8D5F89800800770
:100F0000F6D510E020F00100C5F89800FFF78AFC44
:100F1000064604E0FFF786FC801B02285DD8D5F862
:100F200098008007F6D4E069F0B3A968C1F38101A5
:100F300003295DD00228286820F08070286003D043
:100F4000FFF770FC04464BE0FFF76CFC064604E03C
:100F5000FFF768FC801B02283FD828688001F7D47F
:100F6000F4E908016FF00F0202EB01110843218A36
:100F70005204490802EB4151A26841EA02210843A8
:100F8000217D4FF07E42490802EB41610843217BFD
:100F900040EAC160E968324A11400843E8602868C5
:100FA00040F08070286000E05EE0E86840F080700B
:100FB000E860FFF737FC044605E000BFFFF732FCAE
:100FC000001B022809D828688001F7D54CE000BF33
:100FD000FFF728FC001B022802D90320BDE8F88394
:100FE00028688001F4D4E8681E490840E8603BE0C6
:100FF0000128F3D0E868226A00F00301914226D16B
:10100000616A00F0F0020901103991421FD1A26A11
:1010100000F4FE41B1EB022F19D194F82C2000F01E
:101020007841B1EBC26F12D1218E00F4C0024908A1
:101030004905A1F50011914209D194F8341000F04E
:10104000C06049084906A1F1007181420CD001201D
:10105000C4E70000001002400000002000700040C3
:101060000C809F01FCFFEEFE0020B7E710B5401E8C
:10107000B0F1807F01D3012010BD4FF0E02460610A
:101080000F21601700F0F2FF0020A061072020610F
:10109000002010BD70477047704770477047704719
:1010A000F0B590F83C20012A3AD0012580F83C5058
:1010B000022280F83D2003685A689C68194E1A4F36
:1010C000B34201D0BB4204D122F4700C4A6842EA18
:1010D0000C02DFF858C002EA0C02D1F800C04CEA5A
:1010E000020CC3F804C00268B2420DD0B2F1804FC6
:1010F0000AD00F4B9A4207D00E4B9A4204D0BA4204
:1011000002D00D4B9A4204D1896824F08003194320
:10111000916080F83D50002180F83C100846F0BDF9
:101120000220F0BD002C0140003401408FFFFFFD84
:10113000000400400008004000400140704710B526
:10114000040003D094F83D0010B107E0012010BD69
:10115000002084F83C00204600F022F8022084F8A9
:101160003D00211D206800F0EBFE012084F84800BE
:1011700084F83E0084F83F0084F8400084F8410081
:1011800084F8420084F8430084F8440084F8450061
:1011900084F8460084F8470084F83D00002010BD24
:1011A00008B501681048B1F1804F0BD00F4A914249
:1011B00007D1816D41F002018165806D00F0020070
:1011C000009008BD816D41F001018165806D0022B4
:1011D00000F00100009011461C20FFF789FBBDE8DC
:1011E00008401C20FFF776BB0010024000040040BE
:1011F00090F83D10012901D001207047022180F8AC
:101200003D1000680F4988420ED0B0F1804F0BD0DE
:101210000D49884208D00D49884205D00C498842C2
:1012200002D00C49884207D181680B4A1140062937
:1012300006D0B1F5803F03D0016841F001010160A3
:1012400000207047002C01400004004000080040CE
:1012500000340140004001400700010090F83D10BB
:10126000012901D001207047022180F83D1001685A
:10127000CA6842F00102CA600068104988420ED074
:10128000B0F1804F0BD00E49884208D00D498842FA
:1012900005D00D49884202D00C49884207D18168A7
:1012A0000B4A1140062906D0B1F5803F03D00168F2
:1012B00041F001010160002070470000002C014056
:1012C000000400400008004000340140004001409C
:1012D0000700010070B5044690F83C000025012885
:1012E00014D0012684F83C60022084F83D00226876
:1012F0009068364B184020F47F4090600868702852
:101300002ED010DC10F00F0F03D021E04FF00200C0
:1013100070BD4FEA2012072A1AD2DFE802F05252BB
:1013200052524A3840002A4BC21A984249D009DC2E
:10133000B0F5805F0DD0B0F5005F1CD0B0F1101F8C
:1013400006D13EE0102A3CD0202A3AD0502A38D08C
:10135000012584F83D60002084F83C00284670BDDB
:10136000CB68D1E90121206800F048FE206881683F
:1013700041F0770109E0CB68D1E90121206800F054
:101380003DFE2068816841F480418160E1E7CA68E0
:101390004968206800F046FE5021206806E0CA68CF
:1013A0004968206800F04FFE6021206800F030FEA0
:1013B000CFE7CA684968206800F034FE4021206801
:1013C000F4E7226801461046F0E7000088FFCEFFF0
:1013D0002000100070472DE9F04104460068C668FF
:1013E00005694FF00007A90713D5B10711D5F91EFC
:1013F000016101202077206880698007204602D0A3
:10140000FFF7E8FF04E000F0B7F8204600F0B5F879
:101410002777680716D5700714D521686FF0040088
:101420000861022020772068806910F4407F204600
:1014300002D0FFF7CFFF04E000F09EF8204600F056
:101440009CF82777280715D5300713D521686FF04A
:1014500008000861042020772068C06980072046C2
:1014600002D0FFF7B7FF04E000F086F8204600F056
:1014700084F82777E80616D5F00614D521686FF0B2
:1014800010000861082020772068C06910F4407FB0
:10149000204602D0FFF79EFF04E000F06DF82046E2
:1014A00000F06BF82777E80708D0F00706D021682E
:1014B0006FF001000861204600F060F8280601D4B2
:1014C000A80408D5300606D521686FF402500861DB
:1014D0002046FFF7E0FDE80508D5300606D521686F
:1014E0006FF4807008612046FFF7D4FD680608D5C8
:1014F000700606D521686FF040000861204600F0B4
:101500004BF8A80608D5B00606D521686FF0200074
:1015100008612046FFF7C0FDE80208D5F00206D5B5
:1015200021686FF4801008612046FFF7B7FDA8021C
:1015300008D5B00206D521686FF400100861204676
:10154000FFF7ABFD680208D5700206D521686FF47D
:10155000800008612046FFF7A2FD28020AD530026C
:1015600008D521686FF4000008612046BDE8F0410D
:10157000FFF7E4BDBDE8F081704770470068B0F147
:10158000804F05D10349087A401C00F00100088112
:1015900070470000100000207047FEE700B585B0DE
:1015A00014216846FEF710FF4FF6FF7000900020F0
:1015B0000321CDE90201019069460248FFF704F8D2
:1015C00005B000BD0008004800B585B0142168468C
:1015D000FEF7FAFE4FF6FF70009001200190032005
:1015E00003900020029069460248FEF7EDFF05B027
:1015F00000BD0000000800482DE9F0410A4E804679
:101600003068002485B22146204600F01DF900F024
:1016100061F94FF49637404600F030F9641CBC4243
:10162000F9D33560BDE8F0811408004830B587B0C3
:1016300014216846FEF7C8FE1E48C16C41F0040143
:10164000C164C16C01F004010591C16C41F001015C
:10165000C164C16C01F001010591C16C41F002014E
:10166000C164C06C012500F0020005904FF4487081
:10167000CDE9000500240394694602940E48FEF764
:10168000A3FF280203940090CDE901544FF0904449
:1016900069462046FEF798FFFFF796FFA06940F4E1
:1016A0008070A06104481830016841F4087101603D
:1016B00007B030BD0010024000040048203AD2B20A
:1016C000034B02EB420203EB021200F023B80000CE
:1016D000122300082DE9F043DFF8348081460E46DE
:1016E000D8F80000002587B240F23F1407E02146F9
:1016F0004846FFF7E3FF103C6D1CA4B2761C32781D
:101700000AB1142DF3D3C8F80070BDE8F0830000CF
:10171000140800482DE9F04791468A460026044601
:1017200000F092F8DFF84080012700BF00F0D2F807
:101730005FF0000539F8160007FA05F10842404647
:1017400001D1408800E0008800F098F86D1C102D51
:10175000F0D3641CE4B25146204600F075F8761CC4
:10176000182EE3D3BDE8F0872000002070B50D4EA1
:10177000306885B2FFF75AFF002000F017F80A4CD6
:10178000A080A088A0F50241303907D000F090FA7F
:10179000002000F00BF8A080356070BD00F0FFF96C
:1017A000F6E70000140800482000002070B51D492D
:1017B0000A6842F400720A600A6842F480720A60A1
:1017C000184C103C226842F020022260164A106039
:1017D000086840F02000086000BF00BF00BF20681C
:1017E00040F020002060206840F480702060FFF707
:1017F000D5FE4FF09041886A40F48070886200BF47
:1018000000BF00BF0848001F006885B2886940F427
:1018100080708861FFF7D8FE206840F40070206077
:10182000284670BD280400481408004801B5044843
:101830000168BDF8002089B2024B5A80016008BDE2
:10184000140800482000002010B50C460146202056
:1018500000F06EF82146BDE81040212000F068B885
:1018600001B504480168BDF8002089B2024B1A8016
:10187000016008BD1408004820000020134A1168C8
:1018800041F400711160114910390B6843F4807301
:101890000B600B6843F020030B600D4B1860106861
:1018A00040F02000106000BF00BF00BF086840F09B
:1018B00020000860086840F48070086000BF00BF26
:1018C00000BF086840F400700860704728040048B2
:1018D000140800481449086840F40070086008685B
:1018E00040F48070086010481038026842F020020E
:1018F00002600E4B22221A600A6842F020020A603F
:1019000000BF00BF00BF016841F020010160016815
:1019100041F48071016000BF00BF00BF016841F465
:101920000071016070470000280400481408004856
:10193000184B10B51A6842F400721A601A6842F423
:1019400080721A60134A103A146844F0200414603C
:10195000114C2060186840F02000186000BF00BFE4
:1019600000BF106840F020001060106840F48070E4
:1019700010602160186840F02000186000BF00BFB0
:1019800000BF106840F020001060106840F48070C4
:10199000106010BD280400481408004870B50E4EB1
:1019A0000D460446012204213046FEF736FF4FF46F
:1019B0008070641EA040094B81B20DB1002200E08E
:1019C00001221846FEF729FF3046BDE8704000228C
:1019D0000421FEF722BF0000000C00480008004868
:1019E000F0B587B014216846FEF7EEFC3148C16CB3
:1019F00041F00401C164C16C01F004010591C16CA6
:101A000041F02001C164C16C01F020010591C16C5D
:101A100041F00101C164C16C01F001010591C16C8B
:101A200041F00201C164C16C01F002010591C16C79
:101A300041F00801C164C06C1F4E00F008004FF473
:101A40007F440590012221463046FEF7E6FE1B4FFB
:101A5000012204213846FEF7E0FE0125CDE90045CC
:101A600000240294694630460394FEF7ADFDCDE9AB
:101A700000544FF09046694630460294FEF7A4FDAC
:101A800002208DE8310069463046FEF79DFD0720B3
:101A90008DE8310069460A48FEF796FD0420009063
:101AA000CDE90154694638460394FEF78DFD07B031
:101AB000F0BD00000010024000080048000C004883
:101AC0000004004810B588B0002417480094019421
:101AD00002940394049405944FF0804106940160AD
:101AE00041F63F71C0E9011442F20F71C0E90314DD
:101AF0008461FFF724FB08B1FEF751FD4FF48050DD
:101B0000009069460848FFF7E5FB08B1FEF747FD7E
:101B1000049404A904480694FFF7C2FA002801D0EF
:101B2000FEF73DFD08B010BD2800002010B588B0BC
:101B3000002418480094019402940394049405949A
:101B400013490694016041F63F71C0E901144FF654
:101B5000FF71C0E903148461FFF7F1FA08B1FEF7E1
:101B60001EFD4FF48050009069460A48FFF7B2FB13
:101B700008B1FEF714FD049404A906480694FFF783
:101B80008FFA002801D0FEF70AFD08B010BD000052
:101B90000004004074000020FEE7FEE7704730B507
:101BA00001210020FFF7C4FE4FF47A70FEF7E9FC34
:101BB00000210120FFF7BCFE41F290711020FFF7D9
:101BC000B7FE4FF41C516020FFF7B2FE01216120E7
:101BD000FFF7AEFE02214620FFF7AAFE48F21001F1
:101BE0001320FFF7A5FE48F2FE011220FFF7A0FE2A
:101BF0004FF4A0610220FFF79BFE41F23001032069
:101C0000FFF796FE40F2033421463020FFF790FEA6
:101C100021463120FFF78CFE21463220FFF788FE57
:101C2000E51E29463320FFF783FE03213420FFF70A
:101C30007FFE21463520FFF77BFE14213620FFF77B
:101C400077FE21463720FFF773FE21463820FFF745
:101C50006FFE21463920FFF76BFE29463A20FFF739
:101C600067FE03213B20FFF763FE21463C20FFF780
:101C70005FFE4FF4A0513D20FFF75AFE4FF4007174
:101C80009220FFF755FE21469320FFF751FE40F6C4
:101C90000D019020FFF74CFE41F218010320FFF7E1
:101CA00047FEBDE8304040F273110720FFF740BE09
:101CB00010B543F20801E320FFF73AFE1221E720B6
:101CC000FFF736FE41F23121EF20FFF731FE002110
:101CD0000120FFF72DFE4FF4E0610220FFF728FE00
:101CE00041F230010320FFF723FE00210420FFF71B
:101CF0001FFE40F207210820FFF71AFE00210920ED
:101D0000FFF716FE00210A20FFF712FE00210C202B
:101D1000FFF70EFE00210D20FFF70AFE00210F2025
:101D2000FFF706FE00211020FFF702FE0721112019
:101D3000FFF7FEFD00211220FFF7FAFD002113201E
:101D4000FFF7F6FDC820FEF72DFC41F29061102050
:101D5000FFF7EEFD40F227211120FFF7E9FD3220C9
:101D6000FEF720FC1D211220FFF7E2FD3220FEF7D6
:101D700019FC4FF400611320FFF7DAFD142129202C
:101D8000FFF7D6FD0B212B20FFF7D2FD3220FEF707
:101D900009FC00212020FFF7CBFD00212120FFF7C7
:101DA000C7FD07213020FFF7C3FD40F20771312046
:101DB000FFF7BEFD06213220FFF7BAFD40F20471A5
:101DC0003520FFF7B5FD41F604713620FFF7B0FD71
:101DD00004213720FFF7ACFD00213820FFF7A8FDD4
:101DE00040F206713920FFF7A3FD40F201713C205B
:101DF000FFF79EFD0F213D20FFF79AFD00215020A7
:101E0000FFF796FDEF215120FFF792FD00215220B0
:101E1000FFF78EFD40F23F115320FFF789FD4FF48D
:101E20001C516020FFF784FD01216120FFF780FD38
:101E300000216A20FFF77CFD00218020FFF778FD5C
:101E400000218120FFF774FD00218220FFF770FD43
:101E500000218320FFF76CFD00218420FFF768FD3F
:101E600000218520FFF764FD10219020FFF760FD21
:101E700000219220FFF75CFD03219320FFF758FD1E
:101E80004FF488719520FFF753FD00219720FFF74D
:101E90004FFD00219820FFF74BFD41F21801032070
:101EA000FFF746FDBDE8104040F273110720FFF731
:101EB0003FBD7047FEF7BCBC00B593B03821684603
:101EC000FEF782FA14210EA8FEF77EFA4FF4007096
:101ED000FEF740FD0220C101039140210491012140
:101EE000CDE9080100900A21CDE90A1007900C9075
:101EF0000D906846FEF7B8FE08B172B6FEE70F20F7
:101F00000E9003200F90002010901190129002214B
:101F10000EA8FEF785FD002801D072B6FEE713B0CB
:101F200000BD00000248016841F470010160704783
:101F300088ED00E00148FFF74EBA000028000020BD
:101F40002DE9F0430268264B264D274E274C4FF0D3
:101F50008049984207D0484505D0A84203D0B042F6
:101F600001D0A04203D122F070074A683A43204FC3
:101F7000DFF880C0DFF8808098420DD048450BD054
:101F8000A84209D0B04207D0A04205D0B84203D041
:101F9000604501D0404503D122F44075CA682A4308
:101FA0004D6922F080022A4302608A68C2620A6890
:101FB0008262984207D0A04205D0B84203D0604563
:101FC00001D0404501D109690163012141610169E5
:101FD000C90703D0016921F001010161BDE8F08367
:101FE000002C014000040040000800400034014083
:101FF00000400140004401400048014010B58468A1
:1020000042EA032224F47F440A432243826010BD43
:102010008268034B1A400A4342F00701816070470F
:102020008FFFCFFF10B5036A046A24F00104046235
:10203000846924F0F00444EA021423F00A020A43FB
:102040008461026210BD10B5036A046A24F01004B2
:102050000462846923F0A00324F4704444EA023249
:1020600043EA01118261016210BDFEE70907090E12
:10207000002804DB00F1E02080F80014704700F035
:102080000F0000F1E02080F8141D704770B52F4D4F
:1020900001212846FEF7BCFB2D4C02212071284669
:1020A000FEF7B6FB607104212846FEF7B1FBA07174
:1020B00001214FF09040FEF7ABFBE07120792549FC
:1020C00010B92278012A08D0227842F2107350EA1F
:1020D000020505D0012809D00FE0002008600CE0BF
:1020E0000868984209D3E068401C05E02AB90868EE
:1020F000984202D2E068801CE060607930B9607874
:10210000012803D101210420FFF748FCA07930B950
:10211000A078012803D101210820FFF73FFCE079D6
:1021200058B9E178012908D16189491C89B2032293
:10213000B1FBF2F302FB1311618121792170617906
:102140006170A179A170E07070BD000000040048CA
:10215000100000202404004070B53D4C4FF6E0759F
:10216000618921B101291ED0022944D06AE039A138
:102170003D48FEF7A5F82846FFF758FB3A490020EE
:10218000FFF7A8FA39A13848E268FEF799F800206D
:10219000FFF74CFB34494820FFF79CFA38A132483E
:1021A000FEF78EF81AE02BA12F48FEF789F82E498A
:1021B0000020FFF78FFA2DA12B48E268FEF780F888
:1021C0002846FFF733FB28494820FFF783FA2CA164
:1021D0002548FEF775F80020FFF728FB224960200C
:1021E000FFF778FA2AA12048FEF76AF81E497820FE
:1021F000FFF770FA26E017A11B48FEF761F81A49AD
:102200000020FFF767FA19A11748E268FEF758F8AF
:1022100015494820FFF75EFA19A11348FEF750F858
:1022200011496020FFF756FA2846FFF7FFFA18A178
:102230000D48FEF745F80C497820FFF74BFA0020CF
:10224000FFF7F4FA217ABDE870400120FFF7A6BB42
:102250001000002020202020202074657874202089
:102260002020202000000000C0000020202020208E
:1022700020636F756E743A202020256420200000B2
:102280002020204920206C6F76652020202000002F
:10229000202020626962692020200000FEF7D0FA29
:1022A000FFF70AFEFFF79CFBFFF70CFCFFF73EFC75
:1022B000002204210D48FEF7B0FAFFF757FA00207C
:1022C000FFF79AF90020FFF7B1FA4FF6FF70FFF71A
:1022D000C7FA0748FEF7C2FF0648FEF789FF00BFAE
:1022E000FFF7D4FEFFF738FFFAE70000000C0048C4
:1022F00028000020740000204FF04070E1EE100A2A
:1023000070470000000000000000010203040607FF
:1023100008090000000000000000000000000000AC
:1023200000000000000000000000000000000000AD
:10233000000000000000000000000000000000009D
:102340000000000080018001800180018001800187
:1023500080018001800180018001800180010000F6
:10236000000080018001000000000000000000006B
:10237000000000000000CC00CC00CC00CC00CC0061
:10238000CC00000000000000000000000000000081
:10239000000000000000000000000000000000003D
:1023A0000000000000000000000000000000600CC1
:1023B000600C600C30063006FE1FFE1F300638072A
:1023C0001803FE1FFE1F180318038C018C018C01DB
:1023D000000000008000E003F80F9C0E8C1C8C189D
:1023E0008C009800F801E007800E801C8C188C1877
:1023F0009C18B80CF00FE003800080000000000083
:1024000000000000000000000E181B0C110C11064B
:102410001106110311039B018E01C038C06C60448A
:102420006044304430441844186C0C3800000000FC
:1024300000000000E001F00338071806180630031A
:10244000F001F000F8009C310E33061E061C061C3D
:10245000063FFC73F02100000000000000000000B7
:102460000000000000000C000C000C000C000C0030
:102470000C00000000000000000000000000000050
:10248000000000000000000000000000000000004C
:1024900000000000000200038001C000C0006000D6
:1024A000600030003000300030003000300030007C
:1024B000300060006000C000C00080010003000226
:1024C0000000000020006000C000800180010003C7
:1024D00000030006000600060006000600060006CF
:1024E00000060003000380018001C000600020009E
:1024F0000000000000000000000000000000C0001C
:10250000C000D806F807E0013003380700000000DB
:1025100000000000000000000000000000000000BB
:10252000000000000000000000000000000080012A
:102530008001800180018001FC3FFC3F800180011F
:102540008001800180010000000000000000000008
:10255000000000000000000000000000000000007B
:10256000000000000000000000000000000000006B
:1025700000000000800180010001000180000000D7
:10258000000000000000000000000000000000004B
:1025900000000000000000000000E007E00700006D
:1025A000000000000000000000000000000000002B
:1025B000000000000000000000000000000000001B
:1025C000000000000000000000000000000000000B
:1025D00000000000C000C00000000000000000007B
:1025E00000000000000C000C0006000600060003BE
:1025F000000300038003800180018001C000C0004F
:10260000C00060006000000000000000000000004A
:1026100000000000E003F007380E180C0C180C182E
:102620000C180C180C180C180C180C180C18180C8A
:10263000380EF007E003000000000000000000007A
:102640000000000000018001C001F0019801880134
:102650008001800180018001800180018001800172
:1026600080018001800100000000000000000000E7
:1026700000000000E003F80F180C0C180C180018EC
:102680000018000C000600038001C000600030004C
:102690001800FC1FFC1F00000000000000000000EC
:1026A00000000000E001F807180E0C0C0C0C000CE8
:1026B0000006C003C007000C001800180C180C1806
:1026C000180CF807E0030000000000000000000004
:1026D00000000000000C000E000F000F800DC00C69
:1026E000600C600C300C180C0C0CFC3FFC3F000C18
:1026F000000C000C000C00000000000000000000B6
:1027000000000000F80FF80F180018000C00EC0390
:10271000FC071C0E001C0018001800180C181C0CDC
:10272000180EF807E00300000000000000000000A1
:1027300000000000C007F00F381C181818000C002B
:10274000CC03EC0F3C0E1C1C0C180C180C18181C9D
:10275000380EF007E0030000000000000000000059
:1027600000000000FC1FFC1F000C00060006000318
:1027700080038001C001C000E000600060007000C4
:1027800030003000300000000000000000000000B9
:1027900000000000E003F007380E180C180C180CAD
:1027A0003806F007F007180C0C180C180C180C1849
:1027B000380CF80FE00300000000000000000000EB
:1027C00000000000E003F007380E1C0C0C180C1879
:1027D0000C181C1C381EF81BE0190018000C000C0B
:1027E0001C0EF807F00100000000000000000000CF
:1027F0000000000000000000000000000000800158
:102800008001000000000000000000000000000047
:1028100000008001800100000000000000000000B6
:102820000000000000000000000000000000800127
:102830008001000000000000000000000000000017
:102840000000800180010001000180000000000004
:102850000000000000000000000000000000000078
:1028600000000010001C800FE003F8001800F800C2
:10287000E003800F001C00100000000000000000BA
:102880000000000000000000000000000000000048
:102890000000F81F000000000000F81F000000000A
:1028A0000000000000000000000000000000000028
:1028B0000000000000000000000000000000000018
:1028C000000008003800F001C007001F0018001FBA
:1028D000C007F00138000800000000000000000000
:1028E00000000000E003F80F180C0C180C1800187A
:1028F000000C000600038001C000C000C000000002
:102900000000C000C0000000000000000000000047
:10291000000000000000E00718180420C229224A25
:10292000114409440944094409221113E20C0240EC
:1029300004201818E007000000000000000000005C
:102940000000000080038003C006C006C006600CC3
:10295000600C301830183018F83FF83F1C700C60CD
:102960000C6006C006C0000000000000000000006F
:1029700000000000FC03FC0F0C0C0C180C180C18C9
:102980000C0CFC07FC0F0C180C300C300C300C300D
:102990000C18FC1FFC0700000000000000000000F5
:1029A00000000000C007F01F38381C300C700660B3
:1029B00006000600060006000600060006600C7011
:1029C0001C30F01FE00700000000000000000000C5
:1029D00000000000FE03FE0F060E06180618063063
:1029E0000630063006300630063006300618061867
:1029F000060EFE0FFE0300000000000000000000B5
:102A000000000000FC3FFC3F0C000C000C000C0020
:102A10000C00FC1FFC1F0C000C000C000C000C0038
:102A20000C00FC3FFC3F0000000000000000000024
:102A300000000000F83FF83F1800180018001800C8
:102A40001800F81FF81F18001800180018001800C8
:102A5000180018001800000000000000000000002E
:102A600000000000E00FF83F3C780E6006E007C071
:102A70000300030003FE03FE03C007C006C00EC030
:102A80003CF0F83FE00F00000000000000000000F4
:102A9000000000000C300C300C300C300C300C30CE
:102AA0000C30FC3FFC3F0C300C300C300C300C3048
:102AB0000C300C300C300000000000000000000062
:102AC0000000000080018001800180018001800100
:102AD00080018001800180018001800180018001EE
:102AE0008001800180010000000000000000000063
:102AF00000000000000600060006000600060006B2
:102B00000006000600060006000600061806180665
:102B10003807F003E00100000000000000000000A2
:102B20000000000006300618060C060606038601A3
:102B3000C60066007600DE008E0106030606060C5F
:102B400006180630066000000000000000000000CB
:102B500000000000180018001800180018001800E5
:102B600018001800180018001800180018001800A5
:102B70001800F81FF81F000000000000000000000F
:102B8000000000000EE01EF01EF01EF036D836D811
:102B900036D836D866CC66CC66CCC6C6C6C6C6C6DF
:102BA000C6C686C386C30000000000000000000007
:102BB000000000000C301C303C303C306C306C307D
:102BC000CC30CC308C310C330C330C360C360C3C06
:102BD0000C3C0C380C30000000000000000000002D
:102BE00000000000E007F81F1C380E70066003C0EC
:102BF00003C003C003C003C003C003C006600E705F
:102C00001C38F81FE0070000000000000000000072
:102C100000000000FC0FFC1F0C380C300C300C3096
:102C20000C300C18FC1FFC070C000C000C000C00F6
:102C30000C000C000C000000000000000000000070
:102C400000000000E007F81F1C380E70066003E06B
:102C500003C003C003C003C003C007E006630E3F08
:102C60001C3CF83FE0F700C000000000000000003E
:102C700000000000FE0FFE1F06380630063006304A
:102C80000638FE1FFE0706030606060C0618061881
:102C90000630063006600000000000000000000062
:102CA00000000000E003F80F1C0C0C180C180C00BE
:102CB0001C00F803E00F001E0038063006300E300E
:102CC0001C1CF80FE00700000000000000000000DE
:102CD00000000000FE7FFE7F8001800180018001F6
:102CE00080018001800180018001800180018001DC
:102CF0008001800180010000000000000000000051
:102D0000000000000C300C300C300C300C300C305B
:102D10000C300C300C300C300C300C300C300C30D3
:102D20001818F81FE0070000000000000000000075
:102D30000000000003600630063006300C180C1846
:102D40000C18180C180C380E30063006700760038B
:102D50006003C001C001000000000000000000008E
:102D6000000000000360C361C361C3616633663362
:102D700066336633663366336C1B6C1B6C1B2C1A14
:102D80003C1E380E380E000000000000000000005D
:102D9000000000000FE00C7018303018700C600E4E
:102DA000C00780038003C003E006700C301C1818B5
:102DB0000C300E6007E00000000000000000000082
:102DC0000000000003C006600C301C383818300CBE
:102DD0006006E007C003800180018001800180015E
:102DE0008001800180010000000000000000000060
:102DF00000000000FC7FFC7F006000300018000C29
:102E0000000600038001C0006000300018000C00C4
:102E10000600FE7FFE7F00000000000000000000B2
:102E200000000000E003E00360006000600060005C
:102E30006000600060006000600060006000600092
:102E4000600060006000600060006000E003E0037C
:102E50000000000030003000600060006000C00032
:102E6000C000C000C0018001800180010003000398
:102E70000003000600060000000000000000000043
:102E800000000000E003E003000300030003000370
:102E9000000300030003000300030003000300031A
:102EA000000300030003000300030003E003E0034A
:102EB000000000000000C001C00160036003600367
:102EC00030063006180C180C00000000000000004E
:102ED00000000000000000000000000000000000F2
:102EE00000000000000000000000000000000000E2
:102EF00000000000000000000000000000000000D2
:102F000000000000FFFFFFFF0000000000000000C5
:102F1000000000000C000C000C000C000C000C0069
:102F200000000000000000000000000000000000A1
:102F30000000000000000000000000000000000091
:102F40000000000000000000000000000000F0038E
:102F5000F8071C0C0C0C000FF00FF80C0C0C0C0CF0
:102F60001C0FF80FF0180000000000000000000027
:102F70000000000018001800180018001800D803FE
:102F8000F80F380C181818181818181818181818D6
:102F9000380CF80FD803000000000000000000000B
:102FA0000000000000000000000000000000C0035E
:102FB000F007300E180C1800180018001800180C34
:102FC000300EF007C0030000000000000000000009
:102FD0000000000000180018001800180018C01B9E
:102FE000F01F301C18181818181818181818181866
:102FF000301CF01FC01B000000000000000000009B
:103000000000000000000000000000000000C003FD
:10301000F00F300C1818F81FF81F18001800381897
:10302000301CF00FC007000000000000000000008E
:1030300000000000800FC00FC000C000C000F007FB
:10304000F007C000C000C000C000C000C000C00049
:10305000C000C000C0000000000000000000000030
:103060000000000000000000000000000000E00D73
:10307000F80F180E0C0C0C0C0C0C0C0C0C0C0C0C93
:10308000180EF80FE00D000C0C0C1C06F807F001F0
:103090000000000018001800180018001800D807D9
:1030A000F80F381C181818181818181818181818A5
:1030B0001818181818180000000000000000000080
:1030C00000000000C000C000000000000000C000C0
:1030D000C000C000C000C000C000C000C000C000F0
:1030E000C000C000C00000000000000000000000A0
:1030F00000000000C000C000000000000000C00090
:10310000C000C000C000C000C000C000C000C000BF
:10311000C000C000C000C000C000C000F8007800BF
:10312000000000000C000C000C000C000C000C0C4B
:103130000C060C038C01CC006C00FC009C018C0381
:103140000C030C060C0C0000000000000000000046
:1031500000000000C000C000C000C000C000C000EF
:10316000C000C000C000C000C000C000C000C0005F
:10317000C000C000C000000000000000000000000F
:1031800000000000000000000000000000007C3C87
:10319000FF7EC7E383C183C183C183C183C183C170
:1031A00083C183C183C10000000000000000000053
:1031B0000000000000000000000000000000980770
:1031C000F80F381C18181818181818181818181884
:1031D000181818181818000000000000000000005F
:1031E0000000000000000000000000000000C0031C
:1031F000F00F300C18181818181818181818181874
:10320000300CF00FC00300000000000000000000C0
:103210000000000000000000000000000000D803D3
:10322000F80F380C18181818181818181818181833
:10323000380CF80FD80318001800180018001800F0
:103240000000000000000000000000000000C01BA3
:10325000F01F301C181818181818181818181818F3
:10326000301CF01FC01B00180018001800180018B0
:103270000000000000000000000000000000B00797
:10328000F0037000300030003000300030003000BB
:10329000300030003000000000000000000000009E
:1032A0000000000000000000000000000000E0033B
:1032B000F003380E180C3800F003C007000C180C8F
:1032C000380EF007E00300000000000000000000DE
:1032D0000000000000008000C000C000C000F00737
:1032E000F007C000C000C000C000C000C000C000A7
:1032F000C000C007800700000000000000000000C0
:10330000000000000000000000000000000018188D
:10331000181818181818181818181818181818182D
:10332000381CF01FE0190000000000000000000041
:1033300000000000000000000000000000000C1869
:10334000180C180C180C30063006300660036003A9
:103350006003C001C0010000000000000000000088
:103360000000000000000000000000000000C1415B
:10337000C141C36163636363636336363636363691
:103380001C1C1C1C1C1C0000000000000000000095
:1033900000000000000000000000000000001C38D9
:1033A000381C300C60066003600360036003600635
:1033B000300C381C1C380000000000000000000029
:1033C00000000000000000000000000000001830B5
:1033D000301830187018600C600CE00CC006C00685
:1033E00080038003800380018001C001F000700031
:1033F0000000000000000000000000000000FC1FB2
:10340000FC1F000C000600038001C00060003000BB
:103410001800FC1FFC1F000000000000000000005E
:103420000000000000038001C000C000C000C00018
:10343000C000C00060006000300060004000C000BC
:10344000C000C000C000C000C00080010003000038
:103450000000000080018001800180018001800166
:103460008001800180018001800180018001800154
:103470008001800180018001800180018001800144
:10348000000000006000C000C001800180018001D8
:103490008001800100030003000600030001800199
:1034A00080018001800180018001C0006000000077
:1034B000000000000000000000000000000000000C
:1034C0000000F010F81F080F0000000000000000CE
:1034D00000000000000000000000000000000000EC
:1034E0000000000004350008000000202800000053
:1034F000140200082C3500082800002010070000E6
:103500003002000810000000010000000000000070
:103510000024F4000101010100000000000000008F
:0C352000000000000000FFFF00000000A1
:04000005080001D915
:00000001FF
